{
	"contracts/MultiSignatureWallet.sol": {
		"MultiSigWallet": {
			"abi": [
				{
					"inputs": [
						{
							"internalType": "address[]",
							"name": "_owners",
							"type": "address[]"
						},
						{
							"internalType": "uint256",
							"name": "_requiredApprovals",
							"type": "uint256"
						}
					],
					"stateMutability": "nonpayable",
					"type": "constructor"
				},
				{
					"anonymous": false,
					"inputs": [
						{
							"indexed": true,
							"internalType": "address",
							"name": "newOwner",
							"type": "address"
						}
					],
					"name": "OwnershipAdded",
					"type": "event"
				},
				{
					"anonymous": false,
					"inputs": [
						{
							"indexed": true,
							"internalType": "address",
							"name": "removedOwner",
							"type": "address"
						}
					],
					"name": "OwnershipRemoved",
					"type": "event"
				},
				{
					"anonymous": false,
					"inputs": [
						{
							"indexed": true,
							"internalType": "uint256",
							"name": "txIndex",
							"type": "uint256"
						},
						{
							"indexed": true,
							"internalType": "address",
							"name": "approver",
							"type": "address"
						}
					],
					"name": "TransactionApproved",
					"type": "event"
				},
				{
					"anonymous": false,
					"inputs": [
						{
							"indexed": true,
							"internalType": "uint256",
							"name": "txIndex",
							"type": "uint256"
						}
					],
					"name": "TransactionCanceled",
					"type": "event"
				},
				{
					"anonymous": false,
					"inputs": [
						{
							"indexed": true,
							"internalType": "uint256",
							"name": "txIndex",
							"type": "uint256"
						},
						{
							"indexed": true,
							"internalType": "address",
							"name": "to",
							"type": "address"
						},
						{
							"indexed": false,
							"internalType": "uint256",
							"name": "value",
							"type": "uint256"
						},
						{
							"indexed": false,
							"internalType": "bytes",
							"name": "data",
							"type": "bytes"
						}
					],
					"name": "TransactionSubmitted",
					"type": "event"
				},
				{
					"inputs": [
						{
							"internalType": "address",
							"name": "newOwner",
							"type": "address"
						}
					],
					"name": "addOwner",
					"outputs": [],
					"stateMutability": "nonpayable",
					"type": "function"
				},
				{
					"inputs": [
						{
							"internalType": "uint256",
							"name": "",
							"type": "uint256"
						},
						{
							"internalType": "address",
							"name": "",
							"type": "address"
						}
					],
					"name": "approvals",
					"outputs": [
						{
							"internalType": "bool",
							"name": "",
							"type": "bool"
						}
					],
					"stateMutability": "view",
					"type": "function"
				},
				{
					"inputs": [
						{
							"internalType": "uint256",
							"name": "txIndex",
							"type": "uint256"
						}
					],
					"name": "approveTransaction",
					"outputs": [],
					"stateMutability": "nonpayable",
					"type": "function"
				},
				{
					"inputs": [
						{
							"internalType": "uint256",
							"name": "txIndex",
							"type": "uint256"
						}
					],
					"name": "cancelTransaction",
					"outputs": [],
					"stateMutability": "nonpayable",
					"type": "function"
				},
				{
					"inputs": [
						{
							"internalType": "uint256",
							"name": "txIndex",
							"type": "uint256"
						}
					],
					"name": "getApprovalCount",
					"outputs": [
						{
							"internalType": "uint256",
							"name": "",
							"type": "uint256"
						}
					],
					"stateMutability": "view",
					"type": "function"
				},
				{
					"inputs": [
						{
							"internalType": "address",
							"name": "",
							"type": "address"
						}
					],
					"name": "isOwner",
					"outputs": [
						{
							"internalType": "bool",
							"name": "",
							"type": "bool"
						}
					],
					"stateMutability": "view",
					"type": "function"
				},
				{
					"inputs": [
						{
							"internalType": "uint256",
							"name": "",
							"type": "uint256"
						}
					],
					"name": "owners",
					"outputs": [
						{
							"internalType": "address",
							"name": "",
							"type": "address"
						}
					],
					"stateMutability": "view",
					"type": "function"
				},
				{
					"inputs": [
						{
							"internalType": "address",
							"name": "removedOwner",
							"type": "address"
						}
					],
					"name": "removeOwner",
					"outputs": [],
					"stateMutability": "nonpayable",
					"type": "function"
				},
				{
					"inputs": [],
					"name": "requiredApprovals",
					"outputs": [
						{
							"internalType": "uint256",
							"name": "",
							"type": "uint256"
						}
					],
					"stateMutability": "view",
					"type": "function"
				},
				{
					"inputs": [
						{
							"internalType": "address",
							"name": "to",
							"type": "address"
						},
						{
							"internalType": "uint256",
							"name": "value",
							"type": "uint256"
						},
						{
							"internalType": "bytes",
							"name": "data",
							"type": "bytes"
						}
					],
					"name": "submitTransaction",
					"outputs": [],
					"stateMutability": "nonpayable",
					"type": "function"
				},
				{
					"inputs": [
						{
							"internalType": "uint256",
							"name": "",
							"type": "uint256"
						}
					],
					"name": "transactions",
					"outputs": [
						{
							"internalType": "address",
							"name": "to",
							"type": "address"
						},
						{
							"internalType": "uint256",
							"name": "value",
							"type": "uint256"
						},
						{
							"internalType": "bytes",
							"name": "data",
							"type": "bytes"
						},
						{
							"internalType": "bool",
							"name": "executed",
							"type": "bool"
						}
					],
					"stateMutability": "view",
					"type": "function"
				}
			],
			"devdoc": {
				"kind": "dev",
				"methods": {},
				"version": 1
			},
			"evm": {
				"assembly": "    /* \"contracts/MultiSignatureWallet.sol\":60:4954  contract MultiSigWallet {... */\n  mstore(0x40, 0x80)\n    /* \"contracts/MultiSignatureWallet.sol\":1369:2043  constructor(address[] memory _owners, uint256 _requiredApprovals) {... */\n  callvalue\n  dup1\n  iszero\n  tag_1\n  jumpi\n  0x00\n  dup1\n  revert\ntag_1:\n  pop\n  mload(0x40)\n  sub(codesize, bytecodeSize)\n  dup1\n  bytecodeSize\n  dup4\n  codecopy\n  dup2\n  dup2\n  add\n  0x40\n  mstore\n  dup2\n  add\n  swap1\n  tag_2\n  swap2\n  swap1\n  tag_3\n  jump\t// in\ntag_2:\n    /* \"contracts/MultiSignatureWallet.sol\":1471:1472  0 */\n  0x00\n    /* \"contracts/MultiSignatureWallet.sol\":1454:1461  _owners */\n  dup3\n    /* \"contracts/MultiSignatureWallet.sol\":1454:1468  _owners.length */\n  mload\n    /* \"contracts/MultiSignatureWallet.sol\":1454:1472  _owners.length > 0 */\n  gt\n    /* \"contracts/MultiSignatureWallet.sol\":1446:1504  require(_owners.length > 0, \"Owners list cannot be empty\") */\n  tag_6\n  jumpi\n  mload(0x40)\n  0x08c379a000000000000000000000000000000000000000000000000000000000\n  dup2\n  mstore\n  0x04\n  add\n  tag_7\n  swap1\n  tag_8\n  jump\t// in\ntag_7:\n  mload(0x40)\n  dup1\n  swap2\n  sub\n  swap1\n  revert\ntag_6:\n    /* \"contracts/MultiSignatureWallet.sol\":1544:1545  0 */\n  0x00\n    /* \"contracts/MultiSignatureWallet.sol\":1523:1541  _requiredApprovals */\n  dup2\n    /* \"contracts/MultiSignatureWallet.sol\":1523:1545  _requiredApprovals > 0 */\n  gt\n    /* \"contracts/MultiSignatureWallet.sol\":1523:1585  _requiredApprovals > 0 && _requiredApprovals <= _owners.length */\n  dup1\n  iszero\n  tag_9\n  jumpi\n  pop\n    /* \"contracts/MultiSignatureWallet.sol\":1571:1578  _owners */\n  dup2\n    /* \"contracts/MultiSignatureWallet.sol\":1571:1585  _owners.length */\n  mload\n    /* \"contracts/MultiSignatureWallet.sol\":1549:1567  _requiredApprovals */\n  dup2\n    /* \"contracts/MultiSignatureWallet.sol\":1549:1585  _requiredApprovals <= _owners.length */\n  gt\n  iszero\n    /* \"contracts/MultiSignatureWallet.sol\":1523:1585  _requiredApprovals > 0 && _requiredApprovals <= _owners.length */\ntag_9:\n    /* \"contracts/MultiSignatureWallet.sol\":1515:1626  require(_requiredApprovals > 0 && _requiredApprovals <= _owners.length, \"Invalid number of required approvals\") */\n  tag_10\n  jumpi\n  mload(0x40)\n  0x08c379a000000000000000000000000000000000000000000000000000000000\n  dup2\n  mstore\n  0x04\n  add\n  tag_11\n  swap1\n  tag_12\n  jump\t// in\ntag_11:\n  mload(0x40)\n  dup1\n  swap2\n  sub\n  swap1\n  revert\ntag_10:\n    /* \"contracts/MultiSignatureWallet.sol\":1644:1653  uint256 i */\n  0x00\n    /* \"contracts/MultiSignatureWallet.sol\":1639:1985  for (uint256 i = 0; i < _owners.length; i++) {... */\ntag_13:\n    /* \"contracts/MultiSignatureWallet.sol\":1663:1670  _owners */\n  dup3\n    /* \"contracts/MultiSignatureWallet.sol\":1663:1677  _owners.length */\n  mload\n    /* \"contracts/MultiSignatureWallet.sol\":1659:1660  i */\n  dup2\n    /* \"contracts/MultiSignatureWallet.sol\":1659:1677  i < _owners.length */\n  lt\n    /* \"contracts/MultiSignatureWallet.sol\":1639:1985  for (uint256 i = 0; i < _owners.length; i++) {... */\n  iszero\n  tag_14\n  jumpi\n    /* \"contracts/MultiSignatureWallet.sol\":1699:1712  address owner */\n  0x00\n    /* \"contracts/MultiSignatureWallet.sol\":1715:1722  _owners */\n  dup4\n    /* \"contracts/MultiSignatureWallet.sol\":1723:1724  i */\n  dup3\n    /* \"contracts/MultiSignatureWallet.sol\":1715:1725  _owners[i] */\n  dup2\n  mload\n  dup2\n  lt\n  tag_16\n  jumpi\n  tag_17\n  tag_18\n  jump\t// in\ntag_17:\ntag_16:\n  0x20\n  mul\n  0x20\n  add\n  add\n  mload\n    /* \"contracts/MultiSignatureWallet.sol\":1699:1725  address owner = _owners[i] */\n  swap1\n  pop\n    /* \"contracts/MultiSignatureWallet.sol\":1765:1766  0 */\n  0x00\n    /* \"contracts/MultiSignatureWallet.sol\":1748:1767  owner != address(0) */\n  0xffffffffffffffffffffffffffffffffffffffff\n  and\n    /* \"contracts/MultiSignatureWallet.sol\":1748:1753  owner */\n  dup2\n    /* \"contracts/MultiSignatureWallet.sol\":1748:1767  owner != address(0) */\n  0xffffffffffffffffffffffffffffffffffffffff\n  and\n  sub\n    /* \"contracts/MultiSignatureWallet.sol\":1740:1793  require(owner != address(0), \"Invalid owner address\") */\n  tag_19\n  jumpi\n  mload(0x40)\n  0x08c379a000000000000000000000000000000000000000000000000000000000\n  dup2\n  mstore\n  0x04\n  add\n  tag_20\n  swap1\n  tag_21\n  jump\t// in\ntag_20:\n  mload(0x40)\n  dup1\n  swap2\n  sub\n  swap1\n  revert\ntag_19:\n    /* \"contracts/MultiSignatureWallet.sol\":1817:1824  isOwner */\n  0x01\n    /* \"contracts/MultiSignatureWallet.sol\":1817:1831  isOwner[owner] */\n  0x00\n    /* \"contracts/MultiSignatureWallet.sol\":1825:1830  owner */\n  dup3\n    /* \"contracts/MultiSignatureWallet.sol\":1817:1831  isOwner[owner] */\n  0xffffffffffffffffffffffffffffffffffffffff\n  and\n  0xffffffffffffffffffffffffffffffffffffffff\n  and\n  dup2\n  mstore\n  0x20\n  add\n  swap1\n  dup2\n  mstore\n  0x20\n  add\n  0x00\n  keccak256\n  0x00\n  swap1\n  sload\n  swap1\n  0x0100\n  exp\n  swap1\n  div\n  0xff\n  and\n    /* \"contracts/MultiSignatureWallet.sol\":1816:1831  !isOwner[owner] */\n  iszero\n    /* \"contracts/MultiSignatureWallet.sol\":1808:1859  require(!isOwner[owner], \"Duplicate owner address\") */\n  tag_22\n  jumpi\n  mload(0x40)\n  0x08c379a000000000000000000000000000000000000000000000000000000000\n  dup2\n  mstore\n  0x04\n  add\n  tag_23\n  swap1\n  tag_24\n  jump\t// in\ntag_23:\n  mload(0x40)\n  dup1\n  swap2\n  sub\n  swap1\n  revert\ntag_22:\n    /* \"contracts/MultiSignatureWallet.sol\":1876:1882  owners */\n  0x00\n    /* \"contracts/MultiSignatureWallet.sol\":1888:1893  owner */\n  dup2\n    /* \"contracts/MultiSignatureWallet.sol\":1876:1894  owners.push(owner) */\n  swap1\n  dup1\n  0x01\n  dup2\n  sload\n  add\n  dup1\n  dup3\n  sstore\n  dup1\n  swap2\n  pop\n  pop\n  0x01\n  swap1\n  sub\n  swap1\n  0x00\n  mstore\n  keccak256(0x00, 0x20)\n  add\n  0x00\n  swap1\n  swap2\n  swap1\n  swap2\n  swap1\n  swap2\n  0x0100\n  exp\n  dup2\n  sload\n  dup2\n  0xffffffffffffffffffffffffffffffffffffffff\n  mul\n  not\n  and\n  swap1\n  dup4\n  0xffffffffffffffffffffffffffffffffffffffff\n  and\n  mul\n  or\n  swap1\n  sstore\n  pop\n    /* \"contracts/MultiSignatureWallet.sol\":1926:1930  true */\n  0x01\n    /* \"contracts/MultiSignatureWallet.sol\":1909:1916  isOwner */\n  dup1\n    /* \"contracts/MultiSignatureWallet.sol\":1909:1923  isOwner[owner] */\n  0x00\n    /* \"contracts/MultiSignatureWallet.sol\":1917:1922  owner */\n  dup4\n    /* \"contracts/MultiSignatureWallet.sol\":1909:1923  isOwner[owner] */\n  0xffffffffffffffffffffffffffffffffffffffff\n  and\n  0xffffffffffffffffffffffffffffffffffffffff\n  and\n  dup2\n  mstore\n  0x20\n  add\n  swap1\n  dup2\n  mstore\n  0x20\n  add\n  0x00\n  keccak256\n  0x00\n    /* \"contracts/MultiSignatureWallet.sol\":1909:1930  isOwner[owner] = true */\n  0x0100\n  exp\n  dup2\n  sload\n  dup2\n  0xff\n  mul\n  not\n  and\n  swap1\n  dup4\n  iszero\n  iszero\n  mul\n  or\n  swap1\n  sstore\n  pop\n    /* \"contracts/MultiSignatureWallet.sol\":1967:1972  owner */\n  dup1\n    /* \"contracts/MultiSignatureWallet.sol\":1952:1973  OwnershipAdded(owner) */\n  0xffffffffffffffffffffffffffffffffffffffff\n  and\n  0xb4cd6c6140e1db788f68710738b06ef4d0df6a884a06a088433a4c2f5e036e7c\n  mload(0x40)\n  mload(0x40)\n  dup1\n  swap2\n  sub\n  swap1\n  log2\n    /* \"contracts/MultiSignatureWallet.sol\":1684:1985  {... */\n  pop\n    /* \"contracts/MultiSignatureWallet.sol\":1679:1682  i++ */\n  dup1\n  dup1\n  0x01\n  add\n  swap2\n  pop\n  pop\n    /* \"contracts/MultiSignatureWallet.sol\":1639:1985  for (uint256 i = 0; i < _owners.length; i++) {... */\n  jump(tag_13)\ntag_14:\n  pop\n    /* \"contracts/MultiSignatureWallet.sol\":2017:2035  _requiredApprovals */\n  dup1\n    /* \"contracts/MultiSignatureWallet.sol\":1997:2014  requiredApprovals */\n  0x02\n    /* \"contracts/MultiSignatureWallet.sol\":1997:2035  requiredApprovals = _requiredApprovals */\n  dup2\n  swap1\n  sstore\n  pop\n    /* \"contracts/MultiSignatureWallet.sol\":1369:2043  constructor(address[] memory _owners, uint256 _requiredApprovals) {... */\n  pop\n  pop\n    /* \"contracts/MultiSignatureWallet.sol\":60:4954  contract MultiSigWallet {... */\n  jump(tag_26)\n    /* \"#utility.yul\":7:82   */\ntag_27:\n    /* \"#utility.yul\":40:46   */\n  0x00\n    /* \"#utility.yul\":73:75   */\n  0x40\n    /* \"#utility.yul\":67:76   */\n  mload\n    /* \"#utility.yul\":57:76   */\n  swap1\n  pop\n    /* \"#utility.yul\":7:82   */\n  swap1\n  jump\t// out\n    /* \"#utility.yul\":88:205   */\ntag_28:\n    /* \"#utility.yul\":197:198   */\n  0x00\n    /* \"#utility.yul\":194:195   */\n  dup1\n    /* \"#utility.yul\":187:199   */\n  revert\n    /* \"#utility.yul\":211:328   */\ntag_29:\n    /* \"#utility.yul\":320:321   */\n  0x00\n    /* \"#utility.yul\":317:318   */\n  dup1\n    /* \"#utility.yul\":310:322   */\n  revert\n    /* \"#utility.yul\":334:451   */\ntag_30:\n    /* \"#utility.yul\":443:444   */\n  0x00\n    /* \"#utility.yul\":440:441   */\n  dup1\n    /* \"#utility.yul\":433:445   */\n  revert\n    /* \"#utility.yul\":457:559   */\ntag_31:\n    /* \"#utility.yul\":498:504   */\n  0x00\n    /* \"#utility.yul\":549:551   */\n  0x1f\n    /* \"#utility.yul\":545:552   */\n  not\n    /* \"#utility.yul\":540:542   */\n  0x1f\n    /* \"#utility.yul\":533:538   */\n  dup4\n    /* \"#utility.yul\":529:543   */\n  add\n    /* \"#utility.yul\":525:553   */\n  and\n    /* \"#utility.yul\":515:553   */\n  swap1\n  pop\n    /* \"#utility.yul\":457:559   */\n  swap2\n  swap1\n  pop\n  jump\t// out\n    /* \"#utility.yul\":565:745   */\ntag_32:\n    /* \"#utility.yul\":613:690   */\n  0x4e487b7100000000000000000000000000000000000000000000000000000000\n    /* \"#utility.yul\":610:611   */\n  0x00\n    /* \"#utility.yul\":603:691   */\n  mstore\n    /* \"#utility.yul\":710:714   */\n  0x41\n    /* \"#utility.yul\":707:708   */\n  0x04\n    /* \"#utility.yul\":700:715   */\n  mstore\n    /* \"#utility.yul\":734:738   */\n  0x24\n    /* \"#utility.yul\":731:732   */\n  0x00\n    /* \"#utility.yul\":724:739   */\n  revert\n    /* \"#utility.yul\":751:1032   */\ntag_33:\n    /* \"#utility.yul\":834:861   */\n  tag_63\n    /* \"#utility.yul\":856:860   */\n  dup3\n    /* \"#utility.yul\":834:861   */\n  tag_31\n  jump\t// in\ntag_63:\n    /* \"#utility.yul\":826:832   */\n  dup2\n    /* \"#utility.yul\":822:862   */\n  add\n    /* \"#utility.yul\":964:970   */\n  dup2\n    /* \"#utility.yul\":952:962   */\n  dup2\n    /* \"#utility.yul\":949:971   */\n  lt\n    /* \"#utility.yul\":928:946   */\n  0xffffffffffffffff\n    /* \"#utility.yul\":916:926   */\n  dup3\n    /* \"#utility.yul\":913:947   */\n  gt\n    /* \"#utility.yul\":910:972   */\n  or\n    /* \"#utility.yul\":907:995   */\n  iszero\n  tag_64\n  jumpi\n    /* \"#utility.yul\":975:993   */\n  tag_65\n  tag_32\n  jump\t// in\ntag_65:\n    /* \"#utility.yul\":907:995   */\ntag_64:\n    /* \"#utility.yul\":1015:1025   */\n  dup1\n    /* \"#utility.yul\":1011:1013   */\n  0x40\n    /* \"#utility.yul\":1004:1026   */\n  mstore\n    /* \"#utility.yul\":794:1032   */\n  pop\n    /* \"#utility.yul\":751:1032   */\n  pop\n  pop\n  jump\t// out\n    /* \"#utility.yul\":1038:1167   */\ntag_34:\n    /* \"#utility.yul\":1072:1078   */\n  0x00\n    /* \"#utility.yul\":1099:1119   */\n  tag_67\n  tag_27\n  jump\t// in\ntag_67:\n    /* \"#utility.yul\":1089:1119   */\n  swap1\n  pop\n    /* \"#utility.yul\":1128:1161   */\n  tag_68\n    /* \"#utility.yul\":1156:1160   */\n  dup3\n    /* \"#utility.yul\":1148:1154   */\n  dup3\n    /* \"#utility.yul\":1128:1161   */\n  tag_33\n  jump\t// in\ntag_68:\n    /* \"#utility.yul\":1038:1167   */\n  swap2\n  swap1\n  pop\n  jump\t// out\n    /* \"#utility.yul\":1173:1484   */\ntag_35:\n    /* \"#utility.yul\":1250:1254   */\n  0x00\n    /* \"#utility.yul\":1340:1358   */\n  0xffffffffffffffff\n    /* \"#utility.yul\":1332:1338   */\n  dup3\n    /* \"#utility.yul\":1329:1359   */\n  gt\n    /* \"#utility.yul\":1326:1382   */\n  iszero\n  tag_70\n  jumpi\n    /* \"#utility.yul\":1362:1380   */\n  tag_71\n  tag_32\n  jump\t// in\ntag_71:\n    /* \"#utility.yul\":1326:1382   */\ntag_70:\n    /* \"#utility.yul\":1412:1416   */\n  0x20\n    /* \"#utility.yul\":1404:1410   */\n  dup3\n    /* \"#utility.yul\":1400:1417   */\n  mul\n    /* \"#utility.yul\":1392:1417   */\n  swap1\n  pop\n    /* \"#utility.yul\":1472:1476   */\n  0x20\n    /* \"#utility.yul\":1466:1470   */\n  dup2\n    /* \"#utility.yul\":1462:1477   */\n  add\n    /* \"#utility.yul\":1454:1477   */\n  swap1\n  pop\n    /* \"#utility.yul\":1173:1484   */\n  swap2\n  swap1\n  pop\n  jump\t// out\n    /* \"#utility.yul\":1490:1607   */\ntag_36:\n    /* \"#utility.yul\":1599:1600   */\n  0x00\n    /* \"#utility.yul\":1596:1597   */\n  dup1\n    /* \"#utility.yul\":1589:1601   */\n  revert\n    /* \"#utility.yul\":1613:1739   */\ntag_37:\n    /* \"#utility.yul\":1650:1657   */\n  0x00\n    /* \"#utility.yul\":1690:1732   */\n  0xffffffffffffffffffffffffffffffffffffffff\n    /* \"#utility.yul\":1683:1688   */\n  dup3\n    /* \"#utility.yul\":1679:1733   */\n  and\n    /* \"#utility.yul\":1668:1733   */\n  swap1\n  pop\n    /* \"#utility.yul\":1613:1739   */\n  swap2\n  swap1\n  pop\n  jump\t// out\n    /* \"#utility.yul\":1745:1841   */\ntag_38:\n    /* \"#utility.yul\":1782:1789   */\n  0x00\n    /* \"#utility.yul\":1811:1835   */\n  tag_75\n    /* \"#utility.yul\":1829:1834   */\n  dup3\n    /* \"#utility.yul\":1811:1835   */\n  tag_37\n  jump\t// in\ntag_75:\n    /* \"#utility.yul\":1800:1835   */\n  swap1\n  pop\n    /* \"#utility.yul\":1745:1841   */\n  swap2\n  swap1\n  pop\n  jump\t// out\n    /* \"#utility.yul\":1847:1969   */\ntag_39:\n    /* \"#utility.yul\":1920:1944   */\n  tag_77\n    /* \"#utility.yul\":1938:1943   */\n  dup2\n    /* \"#utility.yul\":1920:1944   */\n  tag_38\n  jump\t// in\ntag_77:\n    /* \"#utility.yul\":1913:1918   */\n  dup2\n    /* \"#utility.yul\":1910:1945   */\n  eq\n    /* \"#utility.yul\":1900:1963   */\n  tag_78\n  jumpi\n    /* \"#utility.yul\":1959:1960   */\n  0x00\n    /* \"#utility.yul\":1956:1957   */\n  dup1\n    /* \"#utility.yul\":1949:1961   */\n  revert\n    /* \"#utility.yul\":1900:1963   */\ntag_78:\n    /* \"#utility.yul\":1847:1969   */\n  pop\n  jump\t// out\n    /* \"#utility.yul\":1975:2118   */\ntag_40:\n    /* \"#utility.yul\":2032:2037   */\n  0x00\n    /* \"#utility.yul\":2063:2069   */\n  dup2\n    /* \"#utility.yul\":2057:2070   */\n  mload\n    /* \"#utility.yul\":2048:2070   */\n  swap1\n  pop\n    /* \"#utility.yul\":2079:2112   */\n  tag_80\n    /* \"#utility.yul\":2106:2111   */\n  dup2\n    /* \"#utility.yul\":2079:2112   */\n  tag_39\n  jump\t// in\ntag_80:\n    /* \"#utility.yul\":1975:2118   */\n  swap3\n  swap2\n  pop\n  pop\n  jump\t// out\n    /* \"#utility.yul\":2141:2873   */\ntag_41:\n    /* \"#utility.yul\":2248:2253   */\n  0x00\n    /* \"#utility.yul\":2273:2354   */\n  tag_82\n    /* \"#utility.yul\":2289:2353   */\n  tag_83\n    /* \"#utility.yul\":2346:2352   */\n  dup5\n    /* \"#utility.yul\":2289:2353   */\n  tag_35\n  jump\t// in\ntag_83:\n    /* \"#utility.yul\":2273:2354   */\n  tag_34\n  jump\t// in\ntag_82:\n    /* \"#utility.yul\":2264:2354   */\n  swap1\n  pop\n    /* \"#utility.yul\":2374:2379   */\n  dup1\n    /* \"#utility.yul\":2403:2409   */\n  dup4\n    /* \"#utility.yul\":2396:2401   */\n  dup3\n    /* \"#utility.yul\":2389:2410   */\n  mstore\n    /* \"#utility.yul\":2437:2441   */\n  0x20\n    /* \"#utility.yul\":2430:2435   */\n  dup3\n    /* \"#utility.yul\":2426:2442   */\n  add\n    /* \"#utility.yul\":2419:2442   */\n  swap1\n  pop\n    /* \"#utility.yul\":2490:2494   */\n  0x20\n    /* \"#utility.yul\":2482:2488   */\n  dup5\n    /* \"#utility.yul\":2478:2495   */\n  mul\n    /* \"#utility.yul\":2470:2476   */\n  dup4\n    /* \"#utility.yul\":2466:2496   */\n  add\n    /* \"#utility.yul\":2519:2522   */\n  dup6\n    /* \"#utility.yul\":2511:2517   */\n  dup2\n    /* \"#utility.yul\":2508:2523   */\n  gt\n    /* \"#utility.yul\":2505:2627   */\n  iszero\n  tag_84\n  jumpi\n    /* \"#utility.yul\":2538:2617   */\n  tag_85\n  tag_36\n  jump\t// in\ntag_85:\n    /* \"#utility.yul\":2505:2627   */\ntag_84:\n    /* \"#utility.yul\":2653:2659   */\n  dup4\n    /* \"#utility.yul\":2636:2867   */\ntag_86:\n    /* \"#utility.yul\":2670:2676   */\n  dup2\n    /* \"#utility.yul\":2665:2668   */\n  dup2\n    /* \"#utility.yul\":2662:2677   */\n  lt\n    /* \"#utility.yul\":2636:2867   */\n  iszero\n  tag_88\n  jumpi\n    /* \"#utility.yul\":2745:2748   */\n  dup1\n    /* \"#utility.yul\":2774:2822   */\n  tag_89\n    /* \"#utility.yul\":2818:2821   */\n  dup9\n    /* \"#utility.yul\":2806:2816   */\n  dup3\n    /* \"#utility.yul\":2774:2822   */\n  tag_40\n  jump\t// in\ntag_89:\n    /* \"#utility.yul\":2769:2772   */\n  dup5\n    /* \"#utility.yul\":2762:2823   */\n  mstore\n    /* \"#utility.yul\":2852:2856   */\n  0x20\n    /* \"#utility.yul\":2847:2850   */\n  dup5\n    /* \"#utility.yul\":2843:2857   */\n  add\n    /* \"#utility.yul\":2836:2857   */\n  swap4\n  pop\n    /* \"#utility.yul\":2712:2867   */\n  pop\n    /* \"#utility.yul\":2696:2700   */\n  0x20\n    /* \"#utility.yul\":2691:2694   */\n  dup2\n    /* \"#utility.yul\":2687:2701   */\n  add\n    /* \"#utility.yul\":2680:2701   */\n  swap1\n  pop\n    /* \"#utility.yul\":2636:2867   */\n  jump(tag_86)\ntag_88:\n    /* \"#utility.yul\":2640:2661   */\n  pop\n    /* \"#utility.yul\":2254:2873   */\n  pop\n  pop\n    /* \"#utility.yul\":2141:2873   */\n  swap4\n  swap3\n  pop\n  pop\n  pop\n  jump\t// out\n    /* \"#utility.yul\":2896:3281   */\ntag_42:\n    /* \"#utility.yul\":2978:2983   */\n  0x00\n    /* \"#utility.yul\":3027:3030   */\n  dup3\n    /* \"#utility.yul\":3020:3024   */\n  0x1f\n    /* \"#utility.yul\":3012:3018   */\n  dup4\n    /* \"#utility.yul\":3008:3025   */\n  add\n    /* \"#utility.yul\":3004:3031   */\n  slt\n    /* \"#utility.yul\":2994:3116   */\n  tag_91\n  jumpi\n    /* \"#utility.yul\":3035:3114   */\n  tag_92\n  tag_30\n  jump\t// in\ntag_92:\n    /* \"#utility.yul\":2994:3116   */\ntag_91:\n    /* \"#utility.yul\":3145:3151   */\n  dup2\n    /* \"#utility.yul\":3139:3152   */\n  mload\n    /* \"#utility.yul\":3170:3275   */\n  tag_93\n    /* \"#utility.yul\":3271:3274   */\n  dup5\n    /* \"#utility.yul\":3263:3269   */\n  dup3\n    /* \"#utility.yul\":3256:3260   */\n  0x20\n    /* \"#utility.yul\":3248:3254   */\n  dup7\n    /* \"#utility.yul\":3244:3261   */\n  add\n    /* \"#utility.yul\":3170:3275   */\n  tag_41\n  jump\t// in\ntag_93:\n    /* \"#utility.yul\":3161:3275   */\n  swap2\n  pop\n    /* \"#utility.yul\":2984:3281   */\n  pop\n    /* \"#utility.yul\":2896:3281   */\n  swap3\n  swap2\n  pop\n  pop\n  jump\t// out\n    /* \"#utility.yul\":3287:3364   */\ntag_43:\n    /* \"#utility.yul\":3324:3331   */\n  0x00\n    /* \"#utility.yul\":3353:3358   */\n  dup2\n    /* \"#utility.yul\":3342:3358   */\n  swap1\n  pop\n    /* \"#utility.yul\":3287:3364   */\n  swap2\n  swap1\n  pop\n  jump\t// out\n    /* \"#utility.yul\":3370:3492   */\ntag_44:\n    /* \"#utility.yul\":3443:3467   */\n  tag_96\n    /* \"#utility.yul\":3461:3466   */\n  dup2\n    /* \"#utility.yul\":3443:3467   */\n  tag_43\n  jump\t// in\ntag_96:\n    /* \"#utility.yul\":3436:3441   */\n  dup2\n    /* \"#utility.yul\":3433:3468   */\n  eq\n    /* \"#utility.yul\":3423:3486   */\n  tag_97\n  jumpi\n    /* \"#utility.yul\":3482:3483   */\n  0x00\n    /* \"#utility.yul\":3479:3480   */\n  dup1\n    /* \"#utility.yul\":3472:3484   */\n  revert\n    /* \"#utility.yul\":3423:3486   */\ntag_97:\n    /* \"#utility.yul\":3370:3492   */\n  pop\n  jump\t// out\n    /* \"#utility.yul\":3498:3641   */\ntag_45:\n    /* \"#utility.yul\":3555:3560   */\n  0x00\n    /* \"#utility.yul\":3586:3592   */\n  dup2\n    /* \"#utility.yul\":3580:3593   */\n  mload\n    /* \"#utility.yul\":3571:3593   */\n  swap1\n  pop\n    /* \"#utility.yul\":3602:3635   */\n  tag_99\n    /* \"#utility.yul\":3629:3634   */\n  dup2\n    /* \"#utility.yul\":3602:3635   */\n  tag_44\n  jump\t// in\ntag_99:\n    /* \"#utility.yul\":3498:3641   */\n  swap3\n  swap2\n  pop\n  pop\n  jump\t// out\n    /* \"#utility.yul\":3647:4357   */\ntag_3:\n    /* \"#utility.yul\":3751:3757   */\n  0x00\n    /* \"#utility.yul\":3759:3765   */\n  dup1\n    /* \"#utility.yul\":3808:3810   */\n  0x40\n    /* \"#utility.yul\":3796:3805   */\n  dup4\n    /* \"#utility.yul\":3787:3794   */\n  dup6\n    /* \"#utility.yul\":3783:3806   */\n  sub\n    /* \"#utility.yul\":3779:3811   */\n  slt\n    /* \"#utility.yul\":3776:3895   */\n  iszero\n  tag_101\n  jumpi\n    /* \"#utility.yul\":3814:3893   */\n  tag_102\n  tag_28\n  jump\t// in\ntag_102:\n    /* \"#utility.yul\":3776:3895   */\ntag_101:\n    /* \"#utility.yul\":3955:3956   */\n  0x00\n    /* \"#utility.yul\":3944:3953   */\n  dup4\n    /* \"#utility.yul\":3940:3957   */\n  add\n    /* \"#utility.yul\":3934:3958   */\n  mload\n    /* \"#utility.yul\":3985:4003   */\n  0xffffffffffffffff\n    /* \"#utility.yul\":3977:3983   */\n  dup2\n    /* \"#utility.yul\":3974:4004   */\n  gt\n    /* \"#utility.yul\":3971:4088   */\n  iszero\n  tag_103\n  jumpi\n    /* \"#utility.yul\":4007:4086   */\n  tag_104\n  tag_29\n  jump\t// in\ntag_104:\n    /* \"#utility.yul\":3971:4088   */\ntag_103:\n    /* \"#utility.yul\":4112:4201   */\n  tag_105\n    /* \"#utility.yul\":4193:4200   */\n  dup6\n    /* \"#utility.yul\":4184:4190   */\n  dup3\n    /* \"#utility.yul\":4173:4182   */\n  dup7\n    /* \"#utility.yul\":4169:4191   */\n  add\n    /* \"#utility.yul\":4112:4201   */\n  tag_42\n  jump\t// in\ntag_105:\n    /* \"#utility.yul\":4102:4201   */\n  swap3\n  pop\n    /* \"#utility.yul\":3905:4211   */\n  pop\n    /* \"#utility.yul\":4250:4252   */\n  0x20\n    /* \"#utility.yul\":4276:4340   */\n  tag_106\n    /* \"#utility.yul\":4332:4339   */\n  dup6\n    /* \"#utility.yul\":4323:4329   */\n  dup3\n    /* \"#utility.yul\":4312:4321   */\n  dup7\n    /* \"#utility.yul\":4308:4330   */\n  add\n    /* \"#utility.yul\":4276:4340   */\n  tag_45\n  jump\t// in\ntag_106:\n    /* \"#utility.yul\":4266:4340   */\n  swap2\n  pop\n    /* \"#utility.yul\":4221:4350   */\n  pop\n    /* \"#utility.yul\":3647:4357   */\n  swap3\n  pop\n  swap3\n  swap1\n  pop\n  jump\t// out\n    /* \"#utility.yul\":4363:4532   */\ntag_46:\n    /* \"#utility.yul\":4447:4458   */\n  0x00\n    /* \"#utility.yul\":4481:4487   */\n  dup3\n    /* \"#utility.yul\":4476:4479   */\n  dup3\n    /* \"#utility.yul\":4469:4488   */\n  mstore\n    /* \"#utility.yul\":4521:4525   */\n  0x20\n    /* \"#utility.yul\":4516:4519   */\n  dup3\n    /* \"#utility.yul\":4512:4526   */\n  add\n    /* \"#utility.yul\":4497:4526   */\n  swap1\n  pop\n    /* \"#utility.yul\":4363:4532   */\n  swap3\n  swap2\n  pop\n  pop\n  jump\t// out\n    /* \"#utility.yul\":4538:4715   */\ntag_47:\n    /* \"#utility.yul\":4678:4707   */\n  0x4f776e657273206c6973742063616e6e6f7420626520656d7074790000000000\n    /* \"#utility.yul\":4674:4675   */\n  0x00\n    /* \"#utility.yul\":4666:4672   */\n  dup3\n    /* \"#utility.yul\":4662:4676   */\n  add\n    /* \"#utility.yul\":4655:4708   */\n  mstore\n    /* \"#utility.yul\":4538:4715   */\n  pop\n  jump\t// out\n    /* \"#utility.yul\":4721:5087   */\ntag_48:\n    /* \"#utility.yul\":4863:4866   */\n  0x00\n    /* \"#utility.yul\":4884:4951   */\n  tag_110\n    /* \"#utility.yul\":4948:4950   */\n  0x1b\n    /* \"#utility.yul\":4943:4946   */\n  dup4\n    /* \"#utility.yul\":4884:4951   */\n  tag_46\n  jump\t// in\ntag_110:\n    /* \"#utility.yul\":4877:4951   */\n  swap2\n  pop\n    /* \"#utility.yul\":4960:5053   */\n  tag_111\n    /* \"#utility.yul\":5049:5052   */\n  dup3\n    /* \"#utility.yul\":4960:5053   */\n  tag_47\n  jump\t// in\ntag_111:\n    /* \"#utility.yul\":5078:5080   */\n  0x20\n    /* \"#utility.yul\":5073:5076   */\n  dup3\n    /* \"#utility.yul\":5069:5081   */\n  add\n    /* \"#utility.yul\":5062:5081   */\n  swap1\n  pop\n    /* \"#utility.yul\":4721:5087   */\n  swap2\n  swap1\n  pop\n  jump\t// out\n    /* \"#utility.yul\":5093:5512   */\ntag_8:\n    /* \"#utility.yul\":5259:5263   */\n  0x00\n    /* \"#utility.yul\":5297:5299   */\n  0x20\n    /* \"#utility.yul\":5286:5295   */\n  dup3\n    /* \"#utility.yul\":5282:5300   */\n  add\n    /* \"#utility.yul\":5274:5300   */\n  swap1\n  pop\n    /* \"#utility.yul\":5346:5355   */\n  dup2\n    /* \"#utility.yul\":5340:5344   */\n  dup2\n    /* \"#utility.yul\":5336:5356   */\n  sub\n    /* \"#utility.yul\":5332:5333   */\n  0x00\n    /* \"#utility.yul\":5321:5330   */\n  dup4\n    /* \"#utility.yul\":5317:5334   */\n  add\n    /* \"#utility.yul\":5310:5357   */\n  mstore\n    /* \"#utility.yul\":5374:5505   */\n  tag_113\n    /* \"#utility.yul\":5500:5504   */\n  dup2\n    /* \"#utility.yul\":5374:5505   */\n  tag_48\n  jump\t// in\ntag_113:\n    /* \"#utility.yul\":5366:5505   */\n  swap1\n  pop\n    /* \"#utility.yul\":5093:5512   */\n  swap2\n  swap1\n  pop\n  jump\t// out\n    /* \"#utility.yul\":5518:5741   */\ntag_49:\n    /* \"#utility.yul\":5658:5692   */\n  0x496e76616c6964206e756d626572206f6620726571756972656420617070726f\n    /* \"#utility.yul\":5654:5655   */\n  0x00\n    /* \"#utility.yul\":5646:5652   */\n  dup3\n    /* \"#utility.yul\":5642:5656   */\n  add\n    /* \"#utility.yul\":5635:5693   */\n  mstore\n    /* \"#utility.yul\":5727:5733   */\n  0x76616c7300000000000000000000000000000000000000000000000000000000\n    /* \"#utility.yul\":5722:5724   */\n  0x20\n    /* \"#utility.yul\":5714:5720   */\n  dup3\n    /* \"#utility.yul\":5710:5725   */\n  add\n    /* \"#utility.yul\":5703:5734   */\n  mstore\n    /* \"#utility.yul\":5518:5741   */\n  pop\n  jump\t// out\n    /* \"#utility.yul\":5747:6113   */\ntag_50:\n    /* \"#utility.yul\":5889:5892   */\n  0x00\n    /* \"#utility.yul\":5910:5977   */\n  tag_116\n    /* \"#utility.yul\":5974:5976   */\n  0x24\n    /* \"#utility.yul\":5969:5972   */\n  dup4\n    /* \"#utility.yul\":5910:5977   */\n  tag_46\n  jump\t// in\ntag_116:\n    /* \"#utility.yul\":5903:5977   */\n  swap2\n  pop\n    /* \"#utility.yul\":5986:6079   */\n  tag_117\n    /* \"#utility.yul\":6075:6078   */\n  dup3\n    /* \"#utility.yul\":5986:6079   */\n  tag_49\n  jump\t// in\ntag_117:\n    /* \"#utility.yul\":6104:6106   */\n  0x40\n    /* \"#utility.yul\":6099:6102   */\n  dup3\n    /* \"#utility.yul\":6095:6107   */\n  add\n    /* \"#utility.yul\":6088:6107   */\n  swap1\n  pop\n    /* \"#utility.yul\":5747:6113   */\n  swap2\n  swap1\n  pop\n  jump\t// out\n    /* \"#utility.yul\":6119:6538   */\ntag_12:\n    /* \"#utility.yul\":6285:6289   */\n  0x00\n    /* \"#utility.yul\":6323:6325   */\n  0x20\n    /* \"#utility.yul\":6312:6321   */\n  dup3\n    /* \"#utility.yul\":6308:6326   */\n  add\n    /* \"#utility.yul\":6300:6326   */\n  swap1\n  pop\n    /* \"#utility.yul\":6372:6381   */\n  dup2\n    /* \"#utility.yul\":6366:6370   */\n  dup2\n    /* \"#utility.yul\":6362:6382   */\n  sub\n    /* \"#utility.yul\":6358:6359   */\n  0x00\n    /* \"#utility.yul\":6347:6356   */\n  dup4\n    /* \"#utility.yul\":6343:6360   */\n  add\n    /* \"#utility.yul\":6336:6383   */\n  mstore\n    /* \"#utility.yul\":6400:6531   */\n  tag_119\n    /* \"#utility.yul\":6526:6530   */\n  dup2\n    /* \"#utility.yul\":6400:6531   */\n  tag_50\n  jump\t// in\ntag_119:\n    /* \"#utility.yul\":6392:6531   */\n  swap1\n  pop\n    /* \"#utility.yul\":6119:6538   */\n  swap2\n  swap1\n  pop\n  jump\t// out\n    /* \"#utility.yul\":6544:6724   */\ntag_18:\n    /* \"#utility.yul\":6592:6669   */\n  0x4e487b7100000000000000000000000000000000000000000000000000000000\n    /* \"#utility.yul\":6589:6590   */\n  0x00\n    /* \"#utility.yul\":6582:6670   */\n  mstore\n    /* \"#utility.yul\":6689:6693   */\n  0x32\n    /* \"#utility.yul\":6686:6687   */\n  0x04\n    /* \"#utility.yul\":6679:6694   */\n  mstore\n    /* \"#utility.yul\":6713:6717   */\n  0x24\n    /* \"#utility.yul\":6710:6711   */\n  0x00\n    /* \"#utility.yul\":6703:6718   */\n  revert\n    /* \"#utility.yul\":6730:6901   */\ntag_51:\n    /* \"#utility.yul\":6870:6893   */\n  0x496e76616c6964206f776e657220616464726573730000000000000000000000\n    /* \"#utility.yul\":6866:6867   */\n  0x00\n    /* \"#utility.yul\":6858:6864   */\n  dup3\n    /* \"#utility.yul\":6854:6868   */\n  add\n    /* \"#utility.yul\":6847:6894   */\n  mstore\n    /* \"#utility.yul\":6730:6901   */\n  pop\n  jump\t// out\n    /* \"#utility.yul\":6907:7273   */\ntag_52:\n    /* \"#utility.yul\":7049:7052   */\n  0x00\n    /* \"#utility.yul\":7070:7137   */\n  tag_123\n    /* \"#utility.yul\":7134:7136   */\n  0x15\n    /* \"#utility.yul\":7129:7132   */\n  dup4\n    /* \"#utility.yul\":7070:7137   */\n  tag_46\n  jump\t// in\ntag_123:\n    /* \"#utility.yul\":7063:7137   */\n  swap2\n  pop\n    /* \"#utility.yul\":7146:7239   */\n  tag_124\n    /* \"#utility.yul\":7235:7238   */\n  dup3\n    /* \"#utility.yul\":7146:7239   */\n  tag_51\n  jump\t// in\ntag_124:\n    /* \"#utility.yul\":7264:7266   */\n  0x20\n    /* \"#utility.yul\":7259:7262   */\n  dup3\n    /* \"#utility.yul\":7255:7267   */\n  add\n    /* \"#utility.yul\":7248:7267   */\n  swap1\n  pop\n    /* \"#utility.yul\":6907:7273   */\n  swap2\n  swap1\n  pop\n  jump\t// out\n    /* \"#utility.yul\":7279:7698   */\ntag_21:\n    /* \"#utility.yul\":7445:7449   */\n  0x00\n    /* \"#utility.yul\":7483:7485   */\n  0x20\n    /* \"#utility.yul\":7472:7481   */\n  dup3\n    /* \"#utility.yul\":7468:7486   */\n  add\n    /* \"#utility.yul\":7460:7486   */\n  swap1\n  pop\n    /* \"#utility.yul\":7532:7541   */\n  dup2\n    /* \"#utility.yul\":7526:7530   */\n  dup2\n    /* \"#utility.yul\":7522:7542   */\n  sub\n    /* \"#utility.yul\":7518:7519   */\n  0x00\n    /* \"#utility.yul\":7507:7516   */\n  dup4\n    /* \"#utility.yul\":7503:7520   */\n  add\n    /* \"#utility.yul\":7496:7543   */\n  mstore\n    /* \"#utility.yul\":7560:7691   */\n  tag_126\n    /* \"#utility.yul\":7686:7690   */\n  dup2\n    /* \"#utility.yul\":7560:7691   */\n  tag_52\n  jump\t// in\ntag_126:\n    /* \"#utility.yul\":7552:7691   */\n  swap1\n  pop\n    /* \"#utility.yul\":7279:7698   */\n  swap2\n  swap1\n  pop\n  jump\t// out\n    /* \"#utility.yul\":7704:7877   */\ntag_53:\n    /* \"#utility.yul\":7844:7869   */\n  0x4475706c6963617465206f776e65722061646472657373000000000000000000\n    /* \"#utility.yul\":7840:7841   */\n  0x00\n    /* \"#utility.yul\":7832:7838   */\n  dup3\n    /* \"#utility.yul\":7828:7842   */\n  add\n    /* \"#utility.yul\":7821:7870   */\n  mstore\n    /* \"#utility.yul\":7704:7877   */\n  pop\n  jump\t// out\n    /* \"#utility.yul\":7883:8249   */\ntag_54:\n    /* \"#utility.yul\":8025:8028   */\n  0x00\n    /* \"#utility.yul\":8046:8113   */\n  tag_129\n    /* \"#utility.yul\":8110:8112   */\n  0x17\n    /* \"#utility.yul\":8105:8108   */\n  dup4\n    /* \"#utility.yul\":8046:8113   */\n  tag_46\n  jump\t// in\ntag_129:\n    /* \"#utility.yul\":8039:8113   */\n  swap2\n  pop\n    /* \"#utility.yul\":8122:8215   */\n  tag_130\n    /* \"#utility.yul\":8211:8214   */\n  dup3\n    /* \"#utility.yul\":8122:8215   */\n  tag_53\n  jump\t// in\ntag_130:\n    /* \"#utility.yul\":8240:8242   */\n  0x20\n    /* \"#utility.yul\":8235:8238   */\n  dup3\n    /* \"#utility.yul\":8231:8243   */\n  add\n    /* \"#utility.yul\":8224:8243   */\n  swap1\n  pop\n    /* \"#utility.yul\":7883:8249   */\n  swap2\n  swap1\n  pop\n  jump\t// out\n    /* \"#utility.yul\":8255:8674   */\ntag_24:\n    /* \"#utility.yul\":8421:8425   */\n  0x00\n    /* \"#utility.yul\":8459:8461   */\n  0x20\n    /* \"#utility.yul\":8448:8457   */\n  dup3\n    /* \"#utility.yul\":8444:8462   */\n  add\n    /* \"#utility.yul\":8436:8462   */\n  swap1\n  pop\n    /* \"#utility.yul\":8508:8517   */\n  dup2\n    /* \"#utility.yul\":8502:8506   */\n  dup2\n    /* \"#utility.yul\":8498:8518   */\n  sub\n    /* \"#utility.yul\":8494:8495   */\n  0x00\n    /* \"#utility.yul\":8483:8492   */\n  dup4\n    /* \"#utility.yul\":8479:8496   */\n  add\n    /* \"#utility.yul\":8472:8519   */\n  mstore\n    /* \"#utility.yul\":8536:8667   */\n  tag_132\n    /* \"#utility.yul\":8662:8666   */\n  dup2\n    /* \"#utility.yul\":8536:8667   */\n  tag_54\n  jump\t// in\ntag_132:\n    /* \"#utility.yul\":8528:8667   */\n  swap1\n  pop\n    /* \"#utility.yul\":8255:8674   */\n  swap2\n  swap1\n  pop\n  jump\t// out\n    /* \"contracts/MultiSignatureWallet.sol\":60:4954  contract MultiSigWallet {... */\ntag_26:\n  dataSize(sub_0)\n  dup1\n  dataOffset(sub_0)\n  0x00\n  codecopy\n  0x00\n  return\nstop\n\nsub_0: assembly {\n        /* \"contracts/MultiSignatureWallet.sol\":60:4954  contract MultiSigWallet {... */\n      mstore(0x40, 0x80)\n      callvalue\n      dup1\n      iszero\n      tag_1\n      jumpi\n      0x00\n      dup1\n      revert\n    tag_1:\n      pop\n      jumpi(tag_2, lt(calldatasize, 0x04))\n      shr(0xe0, calldataload(0x00))\n      dup1\n      0x7065cb48\n      gt\n      tag_14\n      jumpi\n      dup1\n      0x7065cb48\n      eq\n      tag_8\n      jumpi\n      dup1\n      0x99c1aadc\n      eq\n      tag_9\n      jumpi\n      dup1\n      0x9ace38c2\n      eq\n      tag_10\n      jumpi\n      dup1\n      0xab2850da\n      eq\n      tag_11\n      jumpi\n      dup1\n      0xba7e7cab\n      eq\n      tag_12\n      jumpi\n      dup1\n      0xc6427474\n      eq\n      tag_13\n      jumpi\n      jump(tag_2)\n    tag_14:\n      dup1\n      0x025e7c27\n      eq\n      tag_3\n      jumpi\n      dup1\n      0x173825d9\n      eq\n      tag_4\n      jumpi\n      dup1\n      0x242232d1\n      eq\n      tag_5\n      jumpi\n      dup1\n      0x2f54bf6e\n      eq\n      tag_6\n      jumpi\n      dup1\n      0x3380c0d8\n      eq\n      tag_7\n      jumpi\n    tag_2:\n      0x00\n      dup1\n      revert\n        /* \"contracts/MultiSignatureWallet.sol\":91:114  address[] public owners */\n    tag_3:\n      tag_15\n      0x04\n      dup1\n      calldatasize\n      sub\n      dup2\n      add\n      swap1\n      tag_16\n      swap2\n      swap1\n      tag_17\n      jump\t// in\n    tag_16:\n      tag_18\n      jump\t// in\n    tag_15:\n      mload(0x40)\n      tag_19\n      swap2\n      swap1\n      tag_20\n      jump\t// in\n    tag_19:\n      mload(0x40)\n      dup1\n      swap2\n      sub\n      swap1\n      return\n        /* \"contracts/MultiSignatureWallet.sol\":2362:2827  function removeOwner(address removedOwner) external onlyOwner {... */\n    tag_4:\n      tag_21\n      0x04\n      dup1\n      calldatasize\n      sub\n      dup2\n      add\n      swap1\n      tag_22\n      swap2\n      swap1\n      tag_23\n      jump\t// in\n    tag_22:\n      tag_24\n      jump\t// in\n    tag_21:\n      stop\n        /* \"contracts/MultiSignatureWallet.sol\":3344:3873  function approveTransaction(uint256 txIndex) external onlyOwner transactionExists(txIndex) notExecuted(txIndex) notApproved(txIndex) {... */\n    tag_5:\n      tag_25\n      0x04\n      dup1\n      calldatasize\n      sub\n      dup2\n      add\n      swap1\n      tag_26\n      swap2\n      swap1\n      tag_17\n      jump\t// in\n    tag_26:\n      tag_27\n      jump\t// in\n    tag_25:\n      stop\n        /* \"contracts/MultiSignatureWallet.sol\":121:160  mapping(address => bool) public isOwner */\n    tag_6:\n      tag_28\n      0x04\n      dup1\n      calldatasize\n      sub\n      dup2\n      add\n      swap1\n      tag_29\n      swap2\n      swap1\n      tag_23\n      jump\t// in\n    tag_29:\n      tag_30\n      jump\t// in\n    tag_28:\n      mload(0x40)\n      tag_31\n      swap2\n      swap1\n      tag_32\n      jump\t// in\n    tag_31:\n      mload(0x40)\n      dup1\n      swap2\n      sub\n      swap1\n      return\n        /* \"contracts/MultiSignatureWallet.sol\":3881:4094  function cancelTransaction(uint256 txIndex) external onlyOwner transactionExists(txIndex) notExecuted(txIndex) {... */\n    tag_7:\n      tag_33\n      0x04\n      dup1\n      calldatasize\n      sub\n      dup2\n      add\n      swap1\n      tag_34\n      swap2\n      swap1\n      tag_17\n      jump\t// in\n    tag_34:\n      tag_35\n      jump\t// in\n    tag_33:\n      stop\n        /* \"contracts/MultiSignatureWallet.sol\":2051:2354  function addOwner(address newOwner) external onlyOwner {... */\n    tag_8:\n      tag_36\n      0x04\n      dup1\n      calldatasize\n      sub\n      dup2\n      add\n      swap1\n      tag_37\n      swap2\n      swap1\n      tag_23\n      jump\t// in\n    tag_37:\n      tag_38\n      jump\t// in\n    tag_36:\n      stop\n        /* \"contracts/MultiSignatureWallet.sol\":167:199  uint256 public requiredApprovals */\n    tag_9:\n      tag_39\n      tag_40\n      jump\t// in\n    tag_39:\n      mload(0x40)\n      tag_41\n      swap2\n      swap1\n      tag_42\n      jump\t// in\n    tag_41:\n      mload(0x40)\n      dup1\n      swap2\n      sub\n      swap1\n      return\n        /* \"contracts/MultiSignatureWallet.sol\":333:366  Transaction[] public transactions */\n    tag_10:\n      tag_43\n      0x04\n      dup1\n      calldatasize\n      sub\n      dup2\n      add\n      swap1\n      tag_44\n      swap2\n      swap1\n      tag_17\n      jump\t// in\n    tag_44:\n      tag_45\n      jump\t// in\n    tag_43:\n      mload(0x40)\n      tag_46\n      swap5\n      swap4\n      swap3\n      swap2\n      swap1\n      tag_47\n      jump\t// in\n    tag_46:\n      mload(0x40)\n      dup1\n      swap2\n      sub\n      swap1\n      return\n        /* \"contracts/MultiSignatureWallet.sol\":373:434  mapping(uint256 => mapping(address => bool)) public approvals */\n    tag_11:\n      tag_48\n      0x04\n      dup1\n      calldatasize\n      sub\n      dup2\n      add\n      swap1\n      tag_49\n      swap2\n      swap1\n      tag_50\n      jump\t// in\n    tag_49:\n      tag_51\n      jump\t// in\n    tag_48:\n      mload(0x40)\n      tag_52\n      swap2\n      swap1\n      tag_32\n      jump\t// in\n    tag_52:\n      mload(0x40)\n      dup1\n      swap2\n      sub\n      swap1\n      return\n        /* \"contracts/MultiSignatureWallet.sol\":4102:4395  function getApprovalCount(uint256 txIndex) public view returns (uint256) {... */\n    tag_12:\n      tag_53\n      0x04\n      dup1\n      calldatasize\n      sub\n      dup2\n      add\n      swap1\n      tag_54\n      swap2\n      swap1\n      tag_17\n      jump\t// in\n    tag_54:\n      tag_55\n      jump\t// in\n    tag_53:\n      mload(0x40)\n      tag_56\n      swap2\n      swap1\n      tag_42\n      jump\t// in\n    tag_56:\n      mload(0x40)\n      dup1\n      swap2\n      sub\n      swap1\n      return\n        /* \"contracts/MultiSignatureWallet.sol\":2835:3336  function submitTransaction(address to, uint256 value, bytes calldata data) external onlyOwner {... */\n    tag_13:\n      tag_57\n      0x04\n      dup1\n      calldatasize\n      sub\n      dup2\n      add\n      swap1\n      tag_58\n      swap2\n      swap1\n      tag_59\n      jump\t// in\n    tag_58:\n      tag_60\n      jump\t// in\n    tag_57:\n      stop\n        /* \"contracts/MultiSignatureWallet.sol\":91:114  address[] public owners */\n    tag_18:\n      0x00\n      dup2\n      dup2\n      sload\n      dup2\n      lt\n      tag_61\n      jumpi\n      0x00\n      dup1\n      revert\n    tag_61:\n      swap1\n      0x00\n      mstore\n      keccak256(0x00, 0x20)\n      add\n      0x00\n      swap2\n      pop\n      sload\n      swap1\n      0x0100\n      exp\n      swap1\n      div\n      0xffffffffffffffffffffffffffffffffffffffff\n      and\n      dup2\n      jump\t// out\n        /* \"contracts/MultiSignatureWallet.sol\":2362:2827  function removeOwner(address removedOwner) external onlyOwner {... */\n    tag_24:\n        /* \"contracts/MultiSignatureWallet.sol\":842:849  isOwner */\n      0x01\n        /* \"contracts/MultiSignatureWallet.sol\":842:861  isOwner[msg.sender] */\n      0x00\n        /* \"contracts/MultiSignatureWallet.sol\":850:860  msg.sender */\n      caller\n        /* \"contracts/MultiSignatureWallet.sol\":842:861  isOwner[msg.sender] */\n      0xffffffffffffffffffffffffffffffffffffffff\n      and\n      0xffffffffffffffffffffffffffffffffffffffff\n      and\n      dup2\n      mstore\n      0x20\n      add\n      swap1\n      dup2\n      mstore\n      0x20\n      add\n      0x00\n      keccak256\n      0x00\n      swap1\n      sload\n      swap1\n      0x0100\n      exp\n      swap1\n      div\n      0xff\n      and\n        /* \"contracts/MultiSignatureWallet.sol\":834:878  require(isOwner[msg.sender], \"Not an owner\") */\n      tag_64\n      jumpi\n      mload(0x40)\n      0x08c379a000000000000000000000000000000000000000000000000000000000\n      dup2\n      mstore\n      0x04\n      add\n      tag_65\n      swap1\n      tag_66\n      jump\t// in\n    tag_65:\n      mload(0x40)\n      dup1\n      swap2\n      sub\n      swap1\n      revert\n    tag_64:\n        /* \"contracts/MultiSignatureWallet.sol\":2443:2450  isOwner */\n      0x01\n        /* \"contracts/MultiSignatureWallet.sol\":2443:2464  isOwner[removedOwner] */\n      0x00\n        /* \"contracts/MultiSignatureWallet.sol\":2451:2463  removedOwner */\n      dup3\n        /* \"contracts/MultiSignatureWallet.sol\":2443:2464  isOwner[removedOwner] */\n      0xffffffffffffffffffffffffffffffffffffffff\n      and\n      0xffffffffffffffffffffffffffffffffffffffff\n      and\n      dup2\n      mstore\n      0x20\n      add\n      swap1\n      dup2\n      mstore\n      0x20\n      add\n      0x00\n      keccak256\n      0x00\n      swap1\n      sload\n      swap1\n      0x0100\n      exp\n      swap1\n      div\n      0xff\n      and\n        /* \"contracts/MultiSignatureWallet.sol\":2435:2489  require(isOwner[removedOwner], \"Owner does not exist\") */\n      tag_68\n      jumpi\n      mload(0x40)\n      0x08c379a000000000000000000000000000000000000000000000000000000000\n      dup2\n      mstore\n      0x04\n      add\n      tag_69\n      swap1\n      tag_70\n      jump\t// in\n    tag_69:\n      mload(0x40)\n      dup1\n      swap2\n      sub\n      swap1\n      revert\n    tag_68:\n        /* \"contracts/MultiSignatureWallet.sol\":2526:2531  false */\n      0x00\n        /* \"contracts/MultiSignatureWallet.sol\":2502:2509  isOwner */\n      0x01\n        /* \"contracts/MultiSignatureWallet.sol\":2502:2523  isOwner[removedOwner] */\n      0x00\n        /* \"contracts/MultiSignatureWallet.sol\":2510:2522  removedOwner */\n      dup4\n        /* \"contracts/MultiSignatureWallet.sol\":2502:2523  isOwner[removedOwner] */\n      0xffffffffffffffffffffffffffffffffffffffff\n      and\n      0xffffffffffffffffffffffffffffffffffffffff\n      and\n      dup2\n      mstore\n      0x20\n      add\n      swap1\n      dup2\n      mstore\n      0x20\n      add\n      0x00\n      keccak256\n      0x00\n        /* \"contracts/MultiSignatureWallet.sol\":2502:2531  isOwner[removedOwner] = false */\n      0x0100\n      exp\n      dup2\n      sload\n      dup2\n      0xff\n      mul\n      not\n      and\n      swap1\n      dup4\n      iszero\n      iszero\n      mul\n      or\n      swap1\n      sstore\n      pop\n        /* \"contracts/MultiSignatureWallet.sol\":2549:2558  uint256 i */\n      0x00\n        /* \"contracts/MultiSignatureWallet.sol\":2544:2772  for (uint256 i = 0; i < owners.length; i++) {... */\n    tag_71:\n        /* \"contracts/MultiSignatureWallet.sol\":2568:2574  owners */\n      0x00\n        /* \"contracts/MultiSignatureWallet.sol\":2568:2581  owners.length */\n      dup1\n      sload\n      swap1\n      pop\n        /* \"contracts/MultiSignatureWallet.sol\":2564:2565  i */\n      dup2\n        /* \"contracts/MultiSignatureWallet.sol\":2564:2581  i < owners.length */\n      lt\n        /* \"contracts/MultiSignatureWallet.sol\":2544:2772  for (uint256 i = 0; i < owners.length; i++) {... */\n      iszero\n      tag_72\n      jumpi\n        /* \"contracts/MultiSignatureWallet.sol\":2620:2632  removedOwner */\n      dup2\n        /* \"contracts/MultiSignatureWallet.sol\":2607:2632  owners[i] == removedOwner */\n      0xffffffffffffffffffffffffffffffffffffffff\n      and\n        /* \"contracts/MultiSignatureWallet.sol\":2607:2613  owners */\n      0x00\n        /* \"contracts/MultiSignatureWallet.sol\":2614:2615  i */\n      dup3\n        /* \"contracts/MultiSignatureWallet.sol\":2607:2616  owners[i] */\n      dup2\n      sload\n      dup2\n      lt\n      tag_74\n      jumpi\n      tag_75\n      tag_76\n      jump\t// in\n    tag_75:\n    tag_74:\n      swap1\n      0x00\n      mstore\n      keccak256(0x00, 0x20)\n      add\n      0x00\n      swap1\n      sload\n      swap1\n      0x0100\n      exp\n      swap1\n      div\n      0xffffffffffffffffffffffffffffffffffffffff\n      and\n        /* \"contracts/MultiSignatureWallet.sol\":2607:2632  owners[i] == removedOwner */\n      0xffffffffffffffffffffffffffffffffffffffff\n      and\n      sub\n        /* \"contracts/MultiSignatureWallet.sol\":2603:2761  if (owners[i] == removedOwner) {... */\n      tag_78\n      jumpi\n        /* \"contracts/MultiSignatureWallet.sol\":2665:2671  owners */\n      0x00\n        /* \"contracts/MultiSignatureWallet.sol\":2688:2689  1 */\n      0x01\n        /* \"contracts/MultiSignatureWallet.sol\":2672:2678  owners */\n      0x00\n        /* \"contracts/MultiSignatureWallet.sol\":2672:2685  owners.length */\n      dup1\n      sload\n      swap1\n      pop\n        /* \"contracts/MultiSignatureWallet.sol\":2672:2689  owners.length - 1 */\n      tag_79\n      swap2\n      swap1\n      tag_80\n      jump\t// in\n    tag_79:\n        /* \"contracts/MultiSignatureWallet.sol\":2665:2690  owners[owners.length - 1] */\n      dup2\n      sload\n      dup2\n      lt\n      tag_81\n      jumpi\n      tag_82\n      tag_76\n      jump\t// in\n    tag_82:\n    tag_81:\n      swap1\n      0x00\n      mstore\n      keccak256(0x00, 0x20)\n      add\n      0x00\n      swap1\n      sload\n      swap1\n      0x0100\n      exp\n      swap1\n      div\n      0xffffffffffffffffffffffffffffffffffffffff\n      and\n        /* \"contracts/MultiSignatureWallet.sol\":2653:2659  owners */\n      0x00\n        /* \"contracts/MultiSignatureWallet.sol\":2660:2661  i */\n      dup3\n        /* \"contracts/MultiSignatureWallet.sol\":2653:2662  owners[i] */\n      dup2\n      sload\n      dup2\n      lt\n      tag_84\n      jumpi\n      tag_85\n      tag_76\n      jump\t// in\n    tag_85:\n    tag_84:\n      swap1\n      0x00\n      mstore\n      keccak256(0x00, 0x20)\n      add\n      0x00\n        /* \"contracts/MultiSignatureWallet.sol\":2653:2690  owners[i] = owners[owners.length - 1] */\n      0x0100\n      exp\n      dup2\n      sload\n      dup2\n      0xffffffffffffffffffffffffffffffffffffffff\n      mul\n      not\n      and\n      swap1\n      dup4\n      0xffffffffffffffffffffffffffffffffffffffff\n      and\n      mul\n      or\n      swap1\n      sstore\n      pop\n        /* \"contracts/MultiSignatureWallet.sol\":2709:2715  owners */\n      0x00\n        /* \"contracts/MultiSignatureWallet.sol\":2709:2721  owners.pop() */\n      dup1\n      sload\n      dup1\n      tag_87\n      jumpi\n      tag_88\n      tag_89\n      jump\t// in\n    tag_88:\n    tag_87:\n      0x01\n      swap1\n      sub\n      dup2\n      dup2\n      swap1\n      0x00\n      mstore\n      keccak256(0x00, 0x20)\n      add\n      exp(0x0100, 0x00)\n      dup2\n      sload\n      swap1\n      0xffffffffffffffffffffffffffffffffffffffff\n      mul\n      not\n      and\n      swap1\n      sstore\n      swap1\n      sstore\n        /* \"contracts/MultiSignatureWallet.sol\":2740:2745  break */\n      jump(tag_72)\n        /* \"contracts/MultiSignatureWallet.sol\":2603:2761  if (owners[i] == removedOwner) {... */\n    tag_78:\n        /* \"contracts/MultiSignatureWallet.sol\":2583:2586  i++ */\n      dup1\n      dup1\n      0x01\n      add\n      swap2\n      pop\n      pop\n        /* \"contracts/MultiSignatureWallet.sol\":2544:2772  for (uint256 i = 0; i < owners.length; i++) {... */\n      jump(tag_71)\n    tag_72:\n      pop\n        /* \"contracts/MultiSignatureWallet.sol\":2806:2818  removedOwner */\n      dup1\n        /* \"contracts/MultiSignatureWallet.sol\":2789:2819  OwnershipRemoved(removedOwner) */\n      0xffffffffffffffffffffffffffffffffffffffff\n      and\n      0x86d076ecf250a6d90a67a7c75317f44709d5001395ecf1df6d9dad5278f1e681\n      mload(0x40)\n      mload(0x40)\n      dup1\n      swap2\n      sub\n      swap1\n      log2\n        /* \"contracts/MultiSignatureWallet.sol\":2362:2827  function removeOwner(address removedOwner) external onlyOwner {... */\n      pop\n      jump\t// out\n        /* \"contracts/MultiSignatureWallet.sol\":3344:3873  function approveTransaction(uint256 txIndex) external onlyOwner transactionExists(txIndex) notExecuted(txIndex) notApproved(txIndex) {... */\n    tag_27:\n        /* \"contracts/MultiSignatureWallet.sol\":842:849  isOwner */\n      0x01\n        /* \"contracts/MultiSignatureWallet.sol\":842:861  isOwner[msg.sender] */\n      0x00\n        /* \"contracts/MultiSignatureWallet.sol\":850:860  msg.sender */\n      caller\n        /* \"contracts/MultiSignatureWallet.sol\":842:861  isOwner[msg.sender] */\n      0xffffffffffffffffffffffffffffffffffffffff\n      and\n      0xffffffffffffffffffffffffffffffffffffffff\n      and\n      dup2\n      mstore\n      0x20\n      add\n      swap1\n      dup2\n      mstore\n      0x20\n      add\n      0x00\n      keccak256\n      0x00\n      swap1\n      sload\n      swap1\n      0x0100\n      exp\n      swap1\n      div\n      0xff\n      and\n        /* \"contracts/MultiSignatureWallet.sol\":834:878  require(isOwner[msg.sender], \"Not an owner\") */\n      tag_92\n      jumpi\n      mload(0x40)\n      0x08c379a000000000000000000000000000000000000000000000000000000000\n      dup2\n      mstore\n      0x04\n      add\n      tag_93\n      swap1\n      tag_66\n      jump\t// in\n    tag_93:\n      mload(0x40)\n      dup1\n      swap2\n      sub\n      swap1\n      revert\n    tag_92:\n        /* \"contracts/MultiSignatureWallet.sol\":3426:3433  txIndex */\n      dup1\n        /* \"contracts/MultiSignatureWallet.sol\":979:991  transactions */\n      0x03\n        /* \"contracts/MultiSignatureWallet.sol\":979:998  transactions.length */\n      dup1\n      sload\n      swap1\n      pop\n        /* \"contracts/MultiSignatureWallet.sol\":969:976  txIndex */\n      dup2\n        /* \"contracts/MultiSignatureWallet.sol\":969:998  txIndex < transactions.length */\n      lt\n        /* \"contracts/MultiSignatureWallet.sol\":961:1029  require(txIndex < transactions.length, \"Transaction does not exist\") */\n      tag_95\n      jumpi\n      mload(0x40)\n      0x08c379a000000000000000000000000000000000000000000000000000000000\n      dup2\n      mstore\n      0x04\n      add\n      tag_96\n      swap1\n      tag_97\n      jump\t// in\n    tag_96:\n      mload(0x40)\n      dup1\n      swap2\n      sub\n      swap1\n      revert\n    tag_95:\n        /* \"contracts/MultiSignatureWallet.sol\":3447:3454  txIndex */\n      dup2\n        /* \"contracts/MultiSignatureWallet.sol\":1115:1127  transactions */\n      0x03\n        /* \"contracts/MultiSignatureWallet.sol\":1128:1135  txIndex */\n      dup2\n        /* \"contracts/MultiSignatureWallet.sol\":1115:1136  transactions[txIndex] */\n      dup2\n      sload\n      dup2\n      lt\n      tag_99\n      jumpi\n      tag_100\n      tag_76\n      jump\t// in\n    tag_100:\n    tag_99:\n      swap1\n      0x00\n      mstore\n      keccak256(0x00, 0x20)\n      swap1\n      0x04\n      mul\n      add\n        /* \"contracts/MultiSignatureWallet.sol\":1115:1145  transactions[txIndex].executed */\n      0x03\n      add\n      0x00\n      swap1\n      sload\n      swap1\n      0x0100\n      exp\n      swap1\n      div\n      0xff\n      and\n        /* \"contracts/MultiSignatureWallet.sol\":1114:1145  !transactions[txIndex].executed */\n      iszero\n        /* \"contracts/MultiSignatureWallet.sol\":1106:1178  require(!transactions[txIndex].executed, \"Transaction already executed\") */\n      tag_102\n      jumpi\n      mload(0x40)\n      0x08c379a000000000000000000000000000000000000000000000000000000000\n      dup2\n      mstore\n      0x04\n      add\n      tag_103\n      swap1\n      tag_104\n      jump\t// in\n    tag_103:\n      mload(0x40)\n      dup1\n      swap2\n      sub\n      swap1\n      revert\n    tag_102:\n        /* \"contracts/MultiSignatureWallet.sol\":3468:3475  txIndex */\n      dup3\n        /* \"contracts/MultiSignatureWallet.sol\":1264:1273  approvals */\n      0x04\n        /* \"contracts/MultiSignatureWallet.sol\":1264:1282  approvals[txIndex] */\n      0x00\n        /* \"contracts/MultiSignatureWallet.sol\":1274:1281  txIndex */\n      dup3\n        /* \"contracts/MultiSignatureWallet.sol\":1264:1282  approvals[txIndex] */\n      dup2\n      mstore\n      0x20\n      add\n      swap1\n      dup2\n      mstore\n      0x20\n      add\n      0x00\n      keccak256\n        /* \"contracts/MultiSignatureWallet.sol\":1264:1294  approvals[txIndex][msg.sender] */\n      0x00\n        /* \"contracts/MultiSignatureWallet.sol\":1283:1293  msg.sender */\n      caller\n        /* \"contracts/MultiSignatureWallet.sol\":1264:1294  approvals[txIndex][msg.sender] */\n      0xffffffffffffffffffffffffffffffffffffffff\n      and\n      0xffffffffffffffffffffffffffffffffffffffff\n      and\n      dup2\n      mstore\n      0x20\n      add\n      swap1\n      dup2\n      mstore\n      0x20\n      add\n      0x00\n      keccak256\n      0x00\n      swap1\n      sload\n      swap1\n      0x0100\n      exp\n      swap1\n      div\n      0xff\n      and\n        /* \"contracts/MultiSignatureWallet.sol\":1263:1294  !approvals[txIndex][msg.sender] */\n      iszero\n        /* \"contracts/MultiSignatureWallet.sol\":1255:1341  require(!approvals[txIndex][msg.sender], \"Transaction already approved by this owner\") */\n      tag_106\n      jumpi\n      mload(0x40)\n      0x08c379a000000000000000000000000000000000000000000000000000000000\n      dup2\n      mstore\n      0x04\n      add\n      tag_107\n      swap1\n      tag_108\n      jump\t// in\n    tag_107:\n      mload(0x40)\n      dup1\n      swap2\n      sub\n      swap1\n      revert\n    tag_106:\n        /* \"contracts/MultiSignatureWallet.sol\":3506:3518  transactions */\n      0x03\n        /* \"contracts/MultiSignatureWallet.sol\":3506:3525  transactions.length */\n      dup1\n      sload\n      swap1\n      pop\n        /* \"contracts/MultiSignatureWallet.sol\":3496:3503  txIndex */\n      dup5\n        /* \"contracts/MultiSignatureWallet.sol\":3496:3525  txIndex < transactions.length */\n      lt\n        /* \"contracts/MultiSignatureWallet.sol\":3488:3556  require(txIndex < transactions.length, \"Transaction does not exist\") */\n      tag_110\n      jumpi\n      mload(0x40)\n      0x08c379a000000000000000000000000000000000000000000000000000000000\n      dup2\n      mstore\n      0x04\n      add\n      tag_111\n      swap1\n      tag_97\n      jump\t// in\n    tag_111:\n      mload(0x40)\n      dup1\n      swap2\n      sub\n      swap1\n      revert\n    tag_110:\n        /* \"contracts/MultiSignatureWallet.sol\":3576:3588  transactions */\n      0x03\n        /* \"contracts/MultiSignatureWallet.sol\":3589:3596  txIndex */\n      dup5\n        /* \"contracts/MultiSignatureWallet.sol\":3576:3597  transactions[txIndex] */\n      dup2\n      sload\n      dup2\n      lt\n      tag_112\n      jumpi\n      tag_113\n      tag_76\n      jump\t// in\n    tag_113:\n    tag_112:\n      swap1\n      0x00\n      mstore\n      keccak256(0x00, 0x20)\n      swap1\n      0x04\n      mul\n      add\n        /* \"contracts/MultiSignatureWallet.sol\":3576:3606  transactions[txIndex].executed */\n      0x03\n      add\n      0x00\n      swap1\n      sload\n      swap1\n      0x0100\n      exp\n      swap1\n      div\n      0xff\n      and\n        /* \"contracts/MultiSignatureWallet.sol\":3575:3606  !transactions[txIndex].executed */\n      iszero\n        /* \"contracts/MultiSignatureWallet.sol\":3567:3639  require(!transactions[txIndex].executed, \"Transaction already executed\") */\n      tag_115\n      jumpi\n      mload(0x40)\n      0x08c379a000000000000000000000000000000000000000000000000000000000\n      dup2\n      mstore\n      0x04\n      add\n      tag_116\n      swap1\n      tag_104\n      jump\t// in\n    tag_116:\n      mload(0x40)\n      dup1\n      swap2\n      sub\n      swap1\n      revert\n    tag_115:\n        /* \"contracts/MultiSignatureWallet.sol\":3685:3689  true */\n      0x01\n        /* \"contracts/MultiSignatureWallet.sol\":3652:3661  approvals */\n      0x04\n        /* \"contracts/MultiSignatureWallet.sol\":3652:3670  approvals[txIndex] */\n      0x00\n        /* \"contracts/MultiSignatureWallet.sol\":3662:3669  txIndex */\n      dup7\n        /* \"contracts/MultiSignatureWallet.sol\":3652:3670  approvals[txIndex] */\n      dup2\n      mstore\n      0x20\n      add\n      swap1\n      dup2\n      mstore\n      0x20\n      add\n      0x00\n      keccak256\n        /* \"contracts/MultiSignatureWallet.sol\":3652:3682  approvals[txIndex][msg.sender] */\n      0x00\n        /* \"contracts/MultiSignatureWallet.sol\":3671:3681  msg.sender */\n      caller\n        /* \"contracts/MultiSignatureWallet.sol\":3652:3682  approvals[txIndex][msg.sender] */\n      0xffffffffffffffffffffffffffffffffffffffff\n      and\n      0xffffffffffffffffffffffffffffffffffffffff\n      and\n      dup2\n      mstore\n      0x20\n      add\n      swap1\n      dup2\n      mstore\n      0x20\n      add\n      0x00\n      keccak256\n      0x00\n        /* \"contracts/MultiSignatureWallet.sol\":3652:3689  approvals[txIndex][msg.sender] = true */\n      0x0100\n      exp\n      dup2\n      sload\n      dup2\n      0xff\n      mul\n      not\n      and\n      swap1\n      dup4\n      iszero\n      iszero\n      mul\n      or\n      swap1\n      sstore\n      pop\n        /* \"contracts/MultiSignatureWallet.sol\":3736:3746  msg.sender */\n      caller\n        /* \"contracts/MultiSignatureWallet.sol\":3707:3747  TransactionApproved(txIndex, msg.sender) */\n      0xffffffffffffffffffffffffffffffffffffffff\n      and\n        /* \"contracts/MultiSignatureWallet.sol\":3727:3734  txIndex */\n      dup5\n        /* \"contracts/MultiSignatureWallet.sol\":3707:3747  TransactionApproved(txIndex, msg.sender) */\n      0x924813d717e221b5f46dcd8a56da1679e4612584ab3237d55e5faabf6f6a3079\n      mload(0x40)\n      mload(0x40)\n      dup1\n      swap2\n      sub\n      swap1\n      log3\n        /* \"contracts/MultiSignatureWallet.sol\":3793:3810  requiredApprovals */\n      sload(0x02)\n        /* \"contracts/MultiSignatureWallet.sol\":3764:3789  getApprovalCount(txIndex) */\n      tag_117\n        /* \"contracts/MultiSignatureWallet.sol\":3781:3788  txIndex */\n      dup6\n        /* \"contracts/MultiSignatureWallet.sol\":3764:3780  getApprovalCount */\n      tag_55\n        /* \"contracts/MultiSignatureWallet.sol\":3764:3789  getApprovalCount(txIndex) */\n      jump\t// in\n    tag_117:\n        /* \"contracts/MultiSignatureWallet.sol\":3764:3810  getApprovalCount(txIndex) >= requiredApprovals */\n      lt\n        /* \"contracts/MultiSignatureWallet.sol\":3760:3866  if (getApprovalCount(txIndex) >= requiredApprovals) {... */\n      tag_118\n      jumpi\n        /* \"contracts/MultiSignatureWallet.sol\":3827:3854  executeTransaction(txIndex) */\n      tag_119\n        /* \"contracts/MultiSignatureWallet.sol\":3846:3853  txIndex */\n      dup5\n        /* \"contracts/MultiSignatureWallet.sol\":3827:3845  executeTransaction */\n      tag_120\n        /* \"contracts/MultiSignatureWallet.sol\":3827:3854  executeTransaction(txIndex) */\n      jump\t// in\n    tag_119:\n        /* \"contracts/MultiSignatureWallet.sol\":3760:3866  if (getApprovalCount(txIndex) >= requiredApprovals) {... */\n    tag_118:\n        /* \"contracts/MultiSignatureWallet.sol\":1189:1190  _ */\n      pop\n        /* \"contracts/MultiSignatureWallet.sol\":1040:1041  _ */\n      pop\n        /* \"contracts/MultiSignatureWallet.sol\":889:890  _ */\n      pop\n        /* \"contracts/MultiSignatureWallet.sol\":3344:3873  function approveTransaction(uint256 txIndex) external onlyOwner transactionExists(txIndex) notExecuted(txIndex) notApproved(txIndex) {... */\n      pop\n      jump\t// out\n        /* \"contracts/MultiSignatureWallet.sol\":121:160  mapping(address => bool) public isOwner */\n    tag_30:\n      mstore(0x20, 0x01)\n      dup1\n      0x00\n      mstore\n      keccak256(0x00, 0x40)\n      0x00\n      swap2\n      pop\n      sload\n      swap1\n      0x0100\n      exp\n      swap1\n      div\n      0xff\n      and\n      dup2\n      jump\t// out\n        /* \"contracts/MultiSignatureWallet.sol\":3881:4094  function cancelTransaction(uint256 txIndex) external onlyOwner transactionExists(txIndex) notExecuted(txIndex) {... */\n    tag_35:\n        /* \"contracts/MultiSignatureWallet.sol\":842:849  isOwner */\n      0x01\n        /* \"contracts/MultiSignatureWallet.sol\":842:861  isOwner[msg.sender] */\n      0x00\n        /* \"contracts/MultiSignatureWallet.sol\":850:860  msg.sender */\n      caller\n        /* \"contracts/MultiSignatureWallet.sol\":842:861  isOwner[msg.sender] */\n      0xffffffffffffffffffffffffffffffffffffffff\n      and\n      0xffffffffffffffffffffffffffffffffffffffff\n      and\n      dup2\n      mstore\n      0x20\n      add\n      swap1\n      dup2\n      mstore\n      0x20\n      add\n      0x00\n      keccak256\n      0x00\n      swap1\n      sload\n      swap1\n      0x0100\n      exp\n      swap1\n      div\n      0xff\n      and\n        /* \"contracts/MultiSignatureWallet.sol\":834:878  require(isOwner[msg.sender], \"Not an owner\") */\n      tag_122\n      jumpi\n      mload(0x40)\n      0x08c379a000000000000000000000000000000000000000000000000000000000\n      dup2\n      mstore\n      0x04\n      add\n      tag_123\n      swap1\n      tag_66\n      jump\t// in\n    tag_123:\n      mload(0x40)\n      dup1\n      swap2\n      sub\n      swap1\n      revert\n    tag_122:\n        /* \"contracts/MultiSignatureWallet.sol\":3962:3969  txIndex */\n      dup1\n        /* \"contracts/MultiSignatureWallet.sol\":979:991  transactions */\n      0x03\n        /* \"contracts/MultiSignatureWallet.sol\":979:998  transactions.length */\n      dup1\n      sload\n      swap1\n      pop\n        /* \"contracts/MultiSignatureWallet.sol\":969:976  txIndex */\n      dup2\n        /* \"contracts/MultiSignatureWallet.sol\":969:998  txIndex < transactions.length */\n      lt\n        /* \"contracts/MultiSignatureWallet.sol\":961:1029  require(txIndex < transactions.length, \"Transaction does not exist\") */\n      tag_125\n      jumpi\n      mload(0x40)\n      0x08c379a000000000000000000000000000000000000000000000000000000000\n      dup2\n      mstore\n      0x04\n      add\n      tag_126\n      swap1\n      tag_97\n      jump\t// in\n    tag_126:\n      mload(0x40)\n      dup1\n      swap2\n      sub\n      swap1\n      revert\n    tag_125:\n        /* \"contracts/MultiSignatureWallet.sol\":3983:3990  txIndex */\n      dup2\n        /* \"contracts/MultiSignatureWallet.sol\":1115:1127  transactions */\n      0x03\n        /* \"contracts/MultiSignatureWallet.sol\":1128:1135  txIndex */\n      dup2\n        /* \"contracts/MultiSignatureWallet.sol\":1115:1136  transactions[txIndex] */\n      dup2\n      sload\n      dup2\n      lt\n      tag_128\n      jumpi\n      tag_129\n      tag_76\n      jump\t// in\n    tag_129:\n    tag_128:\n      swap1\n      0x00\n      mstore\n      keccak256(0x00, 0x20)\n      swap1\n      0x04\n      mul\n      add\n        /* \"contracts/MultiSignatureWallet.sol\":1115:1145  transactions[txIndex].executed */\n      0x03\n      add\n      0x00\n      swap1\n      sload\n      swap1\n      0x0100\n      exp\n      swap1\n      div\n      0xff\n      and\n        /* \"contracts/MultiSignatureWallet.sol\":1114:1145  !transactions[txIndex].executed */\n      iszero\n        /* \"contracts/MultiSignatureWallet.sol\":1106:1178  require(!transactions[txIndex].executed, \"Transaction already executed\") */\n      tag_131\n      jumpi\n      mload(0x40)\n      0x08c379a000000000000000000000000000000000000000000000000000000000\n      dup2\n      mstore\n      0x04\n      add\n      tag_132\n      swap1\n      tag_104\n      jump\t// in\n    tag_132:\n      mload(0x40)\n      dup1\n      swap2\n      sub\n      swap1\n      revert\n    tag_131:\n        /* \"contracts/MultiSignatureWallet.sol\":4036:4040  true */\n      0x01\n        /* \"contracts/MultiSignatureWallet.sol\":4003:4015  transactions */\n      0x03\n        /* \"contracts/MultiSignatureWallet.sol\":4016:4023  txIndex */\n      dup5\n        /* \"contracts/MultiSignatureWallet.sol\":4003:4024  transactions[txIndex] */\n      dup2\n      sload\n      dup2\n      lt\n      tag_134\n      jumpi\n      tag_135\n      tag_76\n      jump\t// in\n    tag_135:\n    tag_134:\n      swap1\n      0x00\n      mstore\n      keccak256(0x00, 0x20)\n      swap1\n      0x04\n      mul\n      add\n        /* \"contracts/MultiSignatureWallet.sol\":4003:4033  transactions[txIndex].executed */\n      0x03\n      add\n      0x00\n        /* \"contracts/MultiSignatureWallet.sol\":4003:4040  transactions[txIndex].executed = true */\n      0x0100\n      exp\n      dup2\n      sload\n      dup2\n      0xff\n      mul\n      not\n      and\n      swap1\n      dup4\n      iszero\n      iszero\n      mul\n      or\n      swap1\n      sstore\n      pop\n        /* \"contracts/MultiSignatureWallet.sol\":4078:4085  txIndex */\n      dup3\n        /* \"contracts/MultiSignatureWallet.sol\":4058:4086  TransactionCanceled(txIndex) */\n      0x05059bfe288d11577563b32ca8457bdfd86d32da708af82367af4ea6d9dbcae5\n      mload(0x40)\n      mload(0x40)\n      dup1\n      swap2\n      sub\n      swap1\n      log2\n        /* \"contracts/MultiSignatureWallet.sol\":1040:1041  _ */\n      pop\n        /* \"contracts/MultiSignatureWallet.sol\":889:890  _ */\n      pop\n        /* \"contracts/MultiSignatureWallet.sol\":3881:4094  function cancelTransaction(uint256 txIndex) external onlyOwner transactionExists(txIndex) notExecuted(txIndex) {... */\n      pop\n      jump\t// out\n        /* \"contracts/MultiSignatureWallet.sol\":2051:2354  function addOwner(address newOwner) external onlyOwner {... */\n    tag_38:\n        /* \"contracts/MultiSignatureWallet.sol\":842:849  isOwner */\n      0x01\n        /* \"contracts/MultiSignatureWallet.sol\":842:861  isOwner[msg.sender] */\n      0x00\n        /* \"contracts/MultiSignatureWallet.sol\":850:860  msg.sender */\n      caller\n        /* \"contracts/MultiSignatureWallet.sol\":842:861  isOwner[msg.sender] */\n      0xffffffffffffffffffffffffffffffffffffffff\n      and\n      0xffffffffffffffffffffffffffffffffffffffff\n      and\n      dup2\n      mstore\n      0x20\n      add\n      swap1\n      dup2\n      mstore\n      0x20\n      add\n      0x00\n      keccak256\n      0x00\n      swap1\n      sload\n      swap1\n      0x0100\n      exp\n      swap1\n      div\n      0xff\n      and\n        /* \"contracts/MultiSignatureWallet.sol\":834:878  require(isOwner[msg.sender], \"Not an owner\") */\n      tag_138\n      jumpi\n      mload(0x40)\n      0x08c379a000000000000000000000000000000000000000000000000000000000\n      dup2\n      mstore\n      0x04\n      add\n      tag_139\n      swap1\n      tag_66\n      jump\t// in\n    tag_139:\n      mload(0x40)\n      dup1\n      swap2\n      sub\n      swap1\n      revert\n    tag_138:\n        /* \"contracts/MultiSignatureWallet.sol\":2145:2146  0 */\n      0x00\n        /* \"contracts/MultiSignatureWallet.sol\":2125:2147  newOwner != address(0) */\n      0xffffffffffffffffffffffffffffffffffffffff\n      and\n        /* \"contracts/MultiSignatureWallet.sol\":2125:2133  newOwner */\n      dup2\n        /* \"contracts/MultiSignatureWallet.sol\":2125:2147  newOwner != address(0) */\n      0xffffffffffffffffffffffffffffffffffffffff\n      and\n      sub\n        /* \"contracts/MultiSignatureWallet.sol\":2117:2173  require(newOwner != address(0), \"Invalid owner address\") */\n      tag_141\n      jumpi\n      mload(0x40)\n      0x08c379a000000000000000000000000000000000000000000000000000000000\n      dup2\n      mstore\n      0x04\n      add\n      tag_142\n      swap1\n      tag_143\n      jump\t// in\n    tag_142:\n      mload(0x40)\n      dup1\n      swap2\n      sub\n      swap1\n      revert\n    tag_141:\n        /* \"contracts/MultiSignatureWallet.sol\":2193:2200  isOwner */\n      0x01\n        /* \"contracts/MultiSignatureWallet.sol\":2193:2210  isOwner[newOwner] */\n      0x00\n        /* \"contracts/MultiSignatureWallet.sol\":2201:2209  newOwner */\n      dup3\n        /* \"contracts/MultiSignatureWallet.sol\":2193:2210  isOwner[newOwner] */\n      0xffffffffffffffffffffffffffffffffffffffff\n      and\n      0xffffffffffffffffffffffffffffffffffffffff\n      and\n      dup2\n      mstore\n      0x20\n      add\n      swap1\n      dup2\n      mstore\n      0x20\n      add\n      0x00\n      keccak256\n      0x00\n      swap1\n      sload\n      swap1\n      0x0100\n      exp\n      swap1\n      div\n      0xff\n      and\n        /* \"contracts/MultiSignatureWallet.sol\":2192:2210  !isOwner[newOwner] */\n      iszero\n        /* \"contracts/MultiSignatureWallet.sol\":2184:2235  require(!isOwner[newOwner], \"Owner already exists\") */\n      tag_144\n      jumpi\n      mload(0x40)\n      0x08c379a000000000000000000000000000000000000000000000000000000000\n      dup2\n      mstore\n      0x04\n      add\n      tag_145\n      swap1\n      tag_146\n      jump\t// in\n    tag_145:\n      mload(0x40)\n      dup1\n      swap2\n      sub\n      swap1\n      revert\n    tag_144:\n        /* \"contracts/MultiSignatureWallet.sol\":2248:2254  owners */\n      0x00\n        /* \"contracts/MultiSignatureWallet.sol\":2260:2268  newOwner */\n      dup2\n        /* \"contracts/MultiSignatureWallet.sol\":2248:2269  owners.push(newOwner) */\n      swap1\n      dup1\n      0x01\n      dup2\n      sload\n      add\n      dup1\n      dup3\n      sstore\n      dup1\n      swap2\n      pop\n      pop\n      0x01\n      swap1\n      sub\n      swap1\n      0x00\n      mstore\n      keccak256(0x00, 0x20)\n      add\n      0x00\n      swap1\n      swap2\n      swap1\n      swap2\n      swap1\n      swap2\n      0x0100\n      exp\n      dup2\n      sload\n      dup2\n      0xffffffffffffffffffffffffffffffffffffffff\n      mul\n      not\n      and\n      swap1\n      dup4\n      0xffffffffffffffffffffffffffffffffffffffff\n      and\n      mul\n      or\n      swap1\n      sstore\n      pop\n        /* \"contracts/MultiSignatureWallet.sol\":2300:2304  true */\n      0x01\n        /* \"contracts/MultiSignatureWallet.sol\":2280:2287  isOwner */\n      dup1\n        /* \"contracts/MultiSignatureWallet.sol\":2280:2297  isOwner[newOwner] */\n      0x00\n        /* \"contracts/MultiSignatureWallet.sol\":2288:2296  newOwner */\n      dup4\n        /* \"contracts/MultiSignatureWallet.sol\":2280:2297  isOwner[newOwner] */\n      0xffffffffffffffffffffffffffffffffffffffff\n      and\n      0xffffffffffffffffffffffffffffffffffffffff\n      and\n      dup2\n      mstore\n      0x20\n      add\n      swap1\n      dup2\n      mstore\n      0x20\n      add\n      0x00\n      keccak256\n      0x00\n        /* \"contracts/MultiSignatureWallet.sol\":2280:2304  isOwner[newOwner] = true */\n      0x0100\n      exp\n      dup2\n      sload\n      dup2\n      0xff\n      mul\n      not\n      and\n      swap1\n      dup4\n      iszero\n      iszero\n      mul\n      or\n      swap1\n      sstore\n      pop\n        /* \"contracts/MultiSignatureWallet.sol\":2337:2345  newOwner */\n      dup1\n        /* \"contracts/MultiSignatureWallet.sol\":2322:2346  OwnershipAdded(newOwner) */\n      0xffffffffffffffffffffffffffffffffffffffff\n      and\n      0xb4cd6c6140e1db788f68710738b06ef4d0df6a884a06a088433a4c2f5e036e7c\n      mload(0x40)\n      mload(0x40)\n      dup1\n      swap2\n      sub\n      swap1\n      log2\n        /* \"contracts/MultiSignatureWallet.sol\":2051:2354  function addOwner(address newOwner) external onlyOwner {... */\n      pop\n      jump\t// out\n        /* \"contracts/MultiSignatureWallet.sol\":167:199  uint256 public requiredApprovals */\n    tag_40:\n      sload(0x02)\n      dup2\n      jump\t// out\n        /* \"contracts/MultiSignatureWallet.sol\":333:366  Transaction[] public transactions */\n    tag_45:\n      0x03\n      dup2\n      dup2\n      sload\n      dup2\n      lt\n      tag_148\n      jumpi\n      0x00\n      dup1\n      revert\n    tag_148:\n      swap1\n      0x00\n      mstore\n      keccak256(0x00, 0x20)\n      swap1\n      0x04\n      mul\n      add\n      0x00\n      swap2\n      pop\n      swap1\n      pop\n      dup1\n      0x00\n      add\n      0x00\n      swap1\n      sload\n      swap1\n      0x0100\n      exp\n      swap1\n      div\n      0xffffffffffffffffffffffffffffffffffffffff\n      and\n      swap1\n      dup1\n      0x01\n      add\n      sload\n      swap1\n      dup1\n      0x02\n      add\n      dup1\n      sload\n      tag_150\n      swap1\n      tag_151\n      jump\t// in\n    tag_150:\n      dup1\n      0x1f\n      add\n      0x20\n      dup1\n      swap2\n      div\n      mul\n      0x20\n      add\n      mload(0x40)\n      swap1\n      dup2\n      add\n      0x40\n      mstore\n      dup1\n      swap3\n      swap2\n      swap1\n      dup2\n      dup2\n      mstore\n      0x20\n      add\n      dup3\n      dup1\n      sload\n      tag_152\n      swap1\n      tag_151\n      jump\t// in\n    tag_152:\n      dup1\n      iszero\n      tag_153\n      jumpi\n      dup1\n      0x1f\n      lt\n      tag_154\n      jumpi\n      0x0100\n      dup1\n      dup4\n      sload\n      div\n      mul\n      dup4\n      mstore\n      swap2\n      0x20\n      add\n      swap2\n      jump(tag_153)\n    tag_154:\n      dup3\n      add\n      swap2\n      swap1\n      0x00\n      mstore\n      keccak256(0x00, 0x20)\n      swap1\n    tag_155:\n      dup2\n      sload\n      dup2\n      mstore\n      swap1\n      0x01\n      add\n      swap1\n      0x20\n      add\n      dup1\n      dup4\n      gt\n      tag_155\n      jumpi\n      dup3\n      swap1\n      sub\n      0x1f\n      and\n      dup3\n      add\n      swap2\n    tag_153:\n      pop\n      pop\n      pop\n      pop\n      pop\n      swap1\n      dup1\n      0x03\n      add\n      0x00\n      swap1\n      sload\n      swap1\n      0x0100\n      exp\n      swap1\n      div\n      0xff\n      and\n      swap1\n      pop\n      dup5\n      jump\t// out\n        /* \"contracts/MultiSignatureWallet.sol\":373:434  mapping(uint256 => mapping(address => bool)) public approvals */\n    tag_51:\n      mstore(0x20, 0x04)\n      dup2\n      0x00\n      mstore\n      mstore(0x20, keccak256(0x00, 0x40))\n      dup1\n      0x00\n      mstore\n      keccak256(0x00, 0x40)\n      0x00\n      swap2\n      pop\n      swap2\n      pop\n      swap1\n      sload\n      swap1\n      0x0100\n      exp\n      swap1\n      div\n      0xff\n      and\n      dup2\n      jump\t// out\n        /* \"contracts/MultiSignatureWallet.sol\":4102:4395  function getApprovalCount(uint256 txIndex) public view returns (uint256) {... */\n    tag_55:\n        /* \"contracts/MultiSignatureWallet.sol\":4166:4173  uint256 */\n      0x00\n        /* \"contracts/MultiSignatureWallet.sol\":4186:4199  uint256 count */\n      dup1\n        /* \"contracts/MultiSignatureWallet.sol\":4202:4203  0 */\n      0x00\n        /* \"contracts/MultiSignatureWallet.sol\":4186:4203  uint256 count = 0 */\n      swap1\n      pop\n        /* \"contracts/MultiSignatureWallet.sol\":4221:4230  uint256 i */\n      0x00\n        /* \"contracts/MultiSignatureWallet.sol\":4216:4363  for (uint256 i = 0; i < owners.length; i++) {... */\n    tag_157:\n        /* \"contracts/MultiSignatureWallet.sol\":4240:4246  owners */\n      0x00\n        /* \"contracts/MultiSignatureWallet.sol\":4240:4253  owners.length */\n      dup1\n      sload\n      swap1\n      pop\n        /* \"contracts/MultiSignatureWallet.sol\":4236:4237  i */\n      dup2\n        /* \"contracts/MultiSignatureWallet.sol\":4236:4253  i < owners.length */\n      lt\n        /* \"contracts/MultiSignatureWallet.sol\":4216:4363  for (uint256 i = 0; i < owners.length; i++) {... */\n      iszero\n      tag_158\n      jumpi\n        /* \"contracts/MultiSignatureWallet.sol\":4279:4288  approvals */\n      0x04\n        /* \"contracts/MultiSignatureWallet.sol\":4279:4297  approvals[txIndex] */\n      0x00\n        /* \"contracts/MultiSignatureWallet.sol\":4289:4296  txIndex */\n      dup6\n        /* \"contracts/MultiSignatureWallet.sol\":4279:4297  approvals[txIndex] */\n      dup2\n      mstore\n      0x20\n      add\n      swap1\n      dup2\n      mstore\n      0x20\n      add\n      0x00\n      keccak256\n        /* \"contracts/MultiSignatureWallet.sol\":4279:4308  approvals[txIndex][owners[i]] */\n      0x00\n        /* \"contracts/MultiSignatureWallet.sol\":4298:4304  owners */\n      dup1\n        /* \"contracts/MultiSignatureWallet.sol\":4305:4306  i */\n      dup4\n        /* \"contracts/MultiSignatureWallet.sol\":4298:4307  owners[i] */\n      dup2\n      sload\n      dup2\n      lt\n      tag_160\n      jumpi\n      tag_161\n      tag_76\n      jump\t// in\n    tag_161:\n    tag_160:\n      swap1\n      0x00\n      mstore\n      keccak256(0x00, 0x20)\n      add\n      0x00\n      swap1\n      sload\n      swap1\n      0x0100\n      exp\n      swap1\n      div\n      0xffffffffffffffffffffffffffffffffffffffff\n      and\n        /* \"contracts/MultiSignatureWallet.sol\":4279:4308  approvals[txIndex][owners[i]] */\n      0xffffffffffffffffffffffffffffffffffffffff\n      and\n      0xffffffffffffffffffffffffffffffffffffffff\n      and\n      dup2\n      mstore\n      0x20\n      add\n      swap1\n      dup2\n      mstore\n      0x20\n      add\n      0x00\n      keccak256\n      0x00\n      swap1\n      sload\n      swap1\n      0x0100\n      exp\n      swap1\n      div\n      0xff\n      and\n        /* \"contracts/MultiSignatureWallet.sol\":4275:4352  if (approvals[txIndex][owners[i]]) {... */\n      iszero\n      tag_163\n      jumpi\n        /* \"contracts/MultiSignatureWallet.sol\":4329:4336  count++ */\n      dup2\n      dup1\n      tag_164\n      swap1\n      tag_165\n      jump\t// in\n    tag_164:\n      swap3\n      pop\n      pop\n        /* \"contracts/MultiSignatureWallet.sol\":4275:4352  if (approvals[txIndex][owners[i]]) {... */\n    tag_163:\n        /* \"contracts/MultiSignatureWallet.sol\":4255:4258  i++ */\n      dup1\n      dup1\n      0x01\n      add\n      swap2\n      pop\n      pop\n        /* \"contracts/MultiSignatureWallet.sol\":4216:4363  for (uint256 i = 0; i < owners.length; i++) {... */\n      jump(tag_157)\n    tag_158:\n      pop\n        /* \"contracts/MultiSignatureWallet.sol\":4382:4387  count */\n      dup1\n        /* \"contracts/MultiSignatureWallet.sol\":4375:4387  return count */\n      swap2\n      pop\n      pop\n        /* \"contracts/MultiSignatureWallet.sol\":4102:4395  function getApprovalCount(uint256 txIndex) public view returns (uint256) {... */\n      swap2\n      swap1\n      pop\n      jump\t// out\n        /* \"contracts/MultiSignatureWallet.sol\":2835:3336  function submitTransaction(address to, uint256 value, bytes calldata data) external onlyOwner {... */\n    tag_60:\n        /* \"contracts/MultiSignatureWallet.sol\":842:849  isOwner */\n      0x01\n        /* \"contracts/MultiSignatureWallet.sol\":842:861  isOwner[msg.sender] */\n      0x00\n        /* \"contracts/MultiSignatureWallet.sol\":850:860  msg.sender */\n      caller\n        /* \"contracts/MultiSignatureWallet.sol\":842:861  isOwner[msg.sender] */\n      0xffffffffffffffffffffffffffffffffffffffff\n      and\n      0xffffffffffffffffffffffffffffffffffffffff\n      and\n      dup2\n      mstore\n      0x20\n      add\n      swap1\n      dup2\n      mstore\n      0x20\n      add\n      0x00\n      keccak256\n      0x00\n      swap1\n      sload\n      swap1\n      0x0100\n      exp\n      swap1\n      div\n      0xff\n      and\n        /* \"contracts/MultiSignatureWallet.sol\":834:878  require(isOwner[msg.sender], \"Not an owner\") */\n      tag_167\n      jumpi\n      mload(0x40)\n      0x08c379a000000000000000000000000000000000000000000000000000000000\n      dup2\n      mstore\n      0x04\n      add\n      tag_168\n      swap1\n      tag_66\n      jump\t// in\n    tag_168:\n      mload(0x40)\n      dup1\n      swap2\n      sub\n      swap1\n      revert\n    tag_167:\n        /* \"contracts/MultiSignatureWallet.sol\":2962:2963  0 */\n      0x00\n        /* \"contracts/MultiSignatureWallet.sol\":2948:2964  to != address(0) */\n      0xffffffffffffffffffffffffffffffffffffffff\n      and\n        /* \"contracts/MultiSignatureWallet.sol\":2948:2950  to */\n      dup5\n        /* \"contracts/MultiSignatureWallet.sol\":2948:2964  to != address(0) */\n      0xffffffffffffffffffffffffffffffffffffffff\n      and\n      sub\n        /* \"contracts/MultiSignatureWallet.sol\":2940:2996  require(to != address(0), \"Invalid destination address\") */\n      tag_170\n      jumpi\n      mload(0x40)\n      0x08c379a000000000000000000000000000000000000000000000000000000000\n      dup2\n      mstore\n      0x04\n      add\n      tag_171\n      swap1\n      tag_172\n      jump\t// in\n    tag_171:\n      mload(0x40)\n      dup1\n      swap2\n      sub\n      swap1\n      revert\n    tag_170:\n        /* \"contracts/MultiSignatureWallet.sol\":3009:3042  Transaction memory newTransaction */\n      0x00\n        /* \"contracts/MultiSignatureWallet.sol\":3045:3172  Transaction({... */\n      mload(0x40)\n      dup1\n      0x80\n      add\n      0x40\n      mstore\n      dup1\n        /* \"contracts/MultiSignatureWallet.sol\":3076:3078  to */\n      dup7\n        /* \"contracts/MultiSignatureWallet.sol\":3045:3172  Transaction({... */\n      0xffffffffffffffffffffffffffffffffffffffff\n      and\n      dup2\n      mstore\n      0x20\n      add\n        /* \"contracts/MultiSignatureWallet.sol\":3100:3105  value */\n      dup6\n        /* \"contracts/MultiSignatureWallet.sol\":3045:3172  Transaction({... */\n      dup2\n      mstore\n      0x20\n      add\n        /* \"contracts/MultiSignatureWallet.sol\":3126:3130  data */\n      dup5\n      dup5\n        /* \"contracts/MultiSignatureWallet.sol\":3045:3172  Transaction({... */\n      dup1\n      dup1\n      0x1f\n      add\n      0x20\n      dup1\n      swap2\n      div\n      mul\n      0x20\n      add\n      mload(0x40)\n      swap1\n      dup2\n      add\n      0x40\n      mstore\n      dup1\n      swap4\n      swap3\n      swap2\n      swap1\n      dup2\n      dup2\n      mstore\n      0x20\n      add\n      dup4\n      dup4\n      dup1\n      dup3\n      dup5\n      calldatacopy\n      0x00\n      dup2\n      dup5\n      add\n      mstore\n      not(0x1f)\n      0x1f\n      dup3\n      add\n      and\n      swap1\n      pop\n      dup1\n      dup4\n      add\n      swap3\n      pop\n      pop\n      pop\n      pop\n      pop\n      pop\n      pop\n      dup2\n      mstore\n      0x20\n      add\n        /* \"contracts/MultiSignatureWallet.sol\":3155:3160  false */\n      0x00\n        /* \"contracts/MultiSignatureWallet.sol\":3045:3172  Transaction({... */\n      iszero\n      iszero\n      dup2\n      mstore\n      pop\n        /* \"contracts/MultiSignatureWallet.sol\":3009:3172  Transaction memory newTransaction = Transaction({... */\n      swap1\n      pop\n        /* \"contracts/MultiSignatureWallet.sol\":3185:3200  uint256 txIndex */\n      0x00\n        /* \"contracts/MultiSignatureWallet.sol\":3203:3215  transactions */\n      0x03\n        /* \"contracts/MultiSignatureWallet.sol\":3203:3222  transactions.length */\n      dup1\n      sload\n      swap1\n      pop\n        /* \"contracts/MultiSignatureWallet.sol\":3185:3222  uint256 txIndex = transactions.length */\n      swap1\n      pop\n        /* \"contracts/MultiSignatureWallet.sol\":3233:3245  transactions */\n      0x03\n        /* \"contracts/MultiSignatureWallet.sol\":3251:3265  newTransaction */\n      dup3\n        /* \"contracts/MultiSignatureWallet.sol\":3233:3266  transactions.push(newTransaction) */\n      swap1\n      dup1\n      0x01\n      dup2\n      sload\n      add\n      dup1\n      dup3\n      sstore\n      dup1\n      swap2\n      pop\n      pop\n      0x01\n      swap1\n      sub\n      swap1\n      0x00\n      mstore\n      keccak256(0x00, 0x20)\n      swap1\n      0x04\n      mul\n      add\n      0x00\n      swap1\n      swap2\n      swap1\n      swap2\n      swap1\n      swap2\n      pop\n      0x00\n      dup3\n      add\n      mload\n      dup2\n      0x00\n      add\n      exp(0x0100, 0x00)\n      dup2\n      sload\n      dup2\n      0xffffffffffffffffffffffffffffffffffffffff\n      mul\n      not\n      and\n      swap1\n      dup4\n      0xffffffffffffffffffffffffffffffffffffffff\n      and\n      mul\n      or\n      swap1\n      sstore\n      pop\n      0x20\n      dup3\n      add\n      mload\n      dup2\n      0x01\n      add\n      sstore\n      0x40\n      dup3\n      add\n      mload\n      dup2\n      0x02\n      add\n      swap1\n      dup2\n      tag_174\n      swap2\n      swap1\n      tag_175\n      jump\t// in\n    tag_174:\n      pop\n      0x60\n      dup3\n      add\n      mload\n      dup2\n      0x03\n      add\n      exp(0x0100, 0x00)\n      dup2\n      sload\n      dup2\n      0xff\n      mul\n      not\n      and\n      swap1\n      dup4\n      iszero\n      iszero\n      mul\n      or\n      swap1\n      sstore\n      pop\n      pop\n      pop\n        /* \"contracts/MultiSignatureWallet.sol\":3312:3314  to */\n      dup6\n        /* \"contracts/MultiSignatureWallet.sol\":3282:3328  TransactionSubmitted(txIndex, to, value, data) */\n      0xffffffffffffffffffffffffffffffffffffffff\n      and\n        /* \"contracts/MultiSignatureWallet.sol\":3303:3310  txIndex */\n      dup2\n        /* \"contracts/MultiSignatureWallet.sol\":3282:3328  TransactionSubmitted(txIndex, to, value, data) */\n      0x3f6db45da5513bd4fe9f8a31e60ea668bdd4bca57e30a85a9a26f90c9fbcb56c\n        /* \"contracts/MultiSignatureWallet.sol\":3316:3321  value */\n      dup8\n        /* \"contracts/MultiSignatureWallet.sol\":3323:3327  data */\n      dup8\n      dup8\n        /* \"contracts/MultiSignatureWallet.sol\":3282:3328  TransactionSubmitted(txIndex, to, value, data) */\n      mload(0x40)\n      tag_176\n      swap4\n      swap3\n      swap2\n      swap1\n      tag_177\n      jump\t// in\n    tag_176:\n      mload(0x40)\n      dup1\n      swap2\n      sub\n      swap1\n      log3\n        /* \"contracts/MultiSignatureWallet.sol\":2929:3336  {... */\n      pop\n      pop\n        /* \"contracts/MultiSignatureWallet.sol\":2835:3336  function submitTransaction(address to, uint256 value, bytes calldata data) external onlyOwner {... */\n      pop\n      pop\n      pop\n      pop\n      jump\t// out\n        /* \"contracts/MultiSignatureWallet.sol\":4403:4951  function executeTransaction(uint256 txIndex) internal {... */\n    tag_120:\n        /* \"contracts/MultiSignatureWallet.sol\":4486:4498  transactions */\n      0x03\n        /* \"contracts/MultiSignatureWallet.sol\":4486:4505  transactions.length */\n      dup1\n      sload\n      swap1\n      pop\n        /* \"contracts/MultiSignatureWallet.sol\":4476:4483  txIndex */\n      dup2\n        /* \"contracts/MultiSignatureWallet.sol\":4476:4505  txIndex < transactions.length */\n      lt\n        /* \"contracts/MultiSignatureWallet.sol\":4468:4536  require(txIndex < transactions.length, \"Transaction does not exist\") */\n      tag_179\n      jumpi\n      mload(0x40)\n      0x08c379a000000000000000000000000000000000000000000000000000000000\n      dup2\n      mstore\n      0x04\n      add\n      tag_180\n      swap1\n      tag_97\n      jump\t// in\n    tag_180:\n      mload(0x40)\n      dup1\n      swap2\n      sub\n      swap1\n      revert\n    tag_179:\n        /* \"contracts/MultiSignatureWallet.sol\":4556:4568  transactions */\n      0x03\n        /* \"contracts/MultiSignatureWallet.sol\":4569:4576  txIndex */\n      dup2\n        /* \"contracts/MultiSignatureWallet.sol\":4556:4577  transactions[txIndex] */\n      dup2\n      sload\n      dup2\n      lt\n      tag_181\n      jumpi\n      tag_182\n      tag_76\n      jump\t// in\n    tag_182:\n    tag_181:\n      swap1\n      0x00\n      mstore\n      keccak256(0x00, 0x20)\n      swap1\n      0x04\n      mul\n      add\n        /* \"contracts/MultiSignatureWallet.sol\":4556:4586  transactions[txIndex].executed */\n      0x03\n      add\n      0x00\n      swap1\n      sload\n      swap1\n      0x0100\n      exp\n      swap1\n      div\n      0xff\n      and\n        /* \"contracts/MultiSignatureWallet.sol\":4555:4586  !transactions[txIndex].executed */\n      iszero\n        /* \"contracts/MultiSignatureWallet.sol\":4547:4619  require(!transactions[txIndex].executed, \"Transaction already executed\") */\n      tag_184\n      jumpi\n      mload(0x40)\n      0x08c379a000000000000000000000000000000000000000000000000000000000\n      dup2\n      mstore\n      0x04\n      add\n      tag_185\n      swap1\n      tag_104\n      jump\t// in\n    tag_185:\n      mload(0x40)\n      dup1\n      swap2\n      sub\n      swap1\n      revert\n    tag_184:\n        /* \"contracts/MultiSignatureWallet.sol\":4667:4684  requiredApprovals */\n      sload(0x02)\n        /* \"contracts/MultiSignatureWallet.sol\":4638:4663  getApprovalCount(txIndex) */\n      tag_186\n        /* \"contracts/MultiSignatureWallet.sol\":4655:4662  txIndex */\n      dup3\n        /* \"contracts/MultiSignatureWallet.sol\":4638:4654  getApprovalCount */\n      tag_55\n        /* \"contracts/MultiSignatureWallet.sol\":4638:4663  getApprovalCount(txIndex) */\n      jump\t// in\n    tag_186:\n        /* \"contracts/MultiSignatureWallet.sol\":4638:4684  getApprovalCount(txIndex) >= requiredApprovals */\n      lt\n      iszero\n        /* \"contracts/MultiSignatureWallet.sol\":4630:4709  require(getApprovalCount(txIndex) >= requiredApprovals, \"Not enough approvals\") */\n      tag_187\n      jumpi\n      mload(0x40)\n      0x08c379a000000000000000000000000000000000000000000000000000000000\n      dup2\n      mstore\n      0x04\n      add\n      tag_188\n      swap1\n      tag_189\n      jump\t// in\n    tag_188:\n      mload(0x40)\n      dup1\n      swap2\n      sub\n      swap1\n      revert\n    tag_187:\n        /* \"contracts/MultiSignatureWallet.sol\":4755:4759  true */\n      0x01\n        /* \"contracts/MultiSignatureWallet.sol\":4722:4734  transactions */\n      0x03\n        /* \"contracts/MultiSignatureWallet.sol\":4735:4742  txIndex */\n      dup3\n        /* \"contracts/MultiSignatureWallet.sol\":4722:4743  transactions[txIndex] */\n      dup2\n      sload\n      dup2\n      lt\n      tag_190\n      jumpi\n      tag_191\n      tag_76\n      jump\t// in\n    tag_191:\n    tag_190:\n      swap1\n      0x00\n      mstore\n      keccak256(0x00, 0x20)\n      swap1\n      0x04\n      mul\n      add\n        /* \"contracts/MultiSignatureWallet.sol\":4722:4752  transactions[txIndex].executed */\n      0x03\n      add\n      0x00\n        /* \"contracts/MultiSignatureWallet.sol\":4722:4759  transactions[txIndex].executed = true */\n      0x0100\n      exp\n      dup2\n      sload\n      dup2\n      0xff\n      mul\n      not\n      and\n      swap1\n      dup4\n      iszero\n      iszero\n      mul\n      or\n      swap1\n      sstore\n      pop\n        /* \"contracts/MultiSignatureWallet.sol\":4773:4785  bool success */\n      0x00\n        /* \"contracts/MultiSignatureWallet.sol\":4791:4803  transactions */\n      0x03\n        /* \"contracts/MultiSignatureWallet.sol\":4804:4811  txIndex */\n      dup3\n        /* \"contracts/MultiSignatureWallet.sol\":4791:4812  transactions[txIndex] */\n      dup2\n      sload\n      dup2\n      lt\n      tag_193\n      jumpi\n      tag_194\n      tag_76\n      jump\t// in\n    tag_194:\n    tag_193:\n      swap1\n      0x00\n      mstore\n      keccak256(0x00, 0x20)\n      swap1\n      0x04\n      mul\n      add\n        /* \"contracts/MultiSignatureWallet.sol\":4791:4815  transactions[txIndex].to */\n      0x00\n      add\n      0x00\n      swap1\n      sload\n      swap1\n      0x0100\n      exp\n      swap1\n      div\n      0xffffffffffffffffffffffffffffffffffffffff\n      and\n        /* \"contracts/MultiSignatureWallet.sol\":4791:4820  transactions[txIndex].to.call */\n      0xffffffffffffffffffffffffffffffffffffffff\n      and\n        /* \"contracts/MultiSignatureWallet.sol\":4828:4840  transactions */\n      0x03\n        /* \"contracts/MultiSignatureWallet.sol\":4841:4848  txIndex */\n      dup4\n        /* \"contracts/MultiSignatureWallet.sol\":4828:4849  transactions[txIndex] */\n      dup2\n      sload\n      dup2\n      lt\n      tag_196\n      jumpi\n      tag_197\n      tag_76\n      jump\t// in\n    tag_197:\n    tag_196:\n      swap1\n      0x00\n      mstore\n      keccak256(0x00, 0x20)\n      swap1\n      0x04\n      mul\n      add\n        /* \"contracts/MultiSignatureWallet.sol\":4828:4855  transactions[txIndex].value */\n      0x01\n      add\n      sload\n        /* \"contracts/MultiSignatureWallet.sol\":4857:4869  transactions */\n      0x03\n        /* \"contracts/MultiSignatureWallet.sol\":4870:4877  txIndex */\n      dup5\n        /* \"contracts/MultiSignatureWallet.sol\":4857:4878  transactions[txIndex] */\n      dup2\n      sload\n      dup2\n      lt\n      tag_199\n      jumpi\n      tag_200\n      tag_76\n      jump\t// in\n    tag_200:\n    tag_199:\n      swap1\n      0x00\n      mstore\n      keccak256(0x00, 0x20)\n      swap1\n      0x04\n      mul\n      add\n        /* \"contracts/MultiSignatureWallet.sol\":4857:4883  transactions[txIndex].data */\n      0x02\n      add\n        /* \"contracts/MultiSignatureWallet.sol\":4791:4884  transactions[txIndex].to.call{value: transactions[txIndex].value}(transactions[txIndex].data) */\n      mload(0x40)\n      tag_202\n      swap2\n      swap1\n      tag_203\n      jump\t// in\n    tag_202:\n      0x00\n      mload(0x40)\n      dup1\n      dup4\n      sub\n      dup2\n      dup6\n      dup8\n      gas\n      call\n      swap3\n      pop\n      pop\n      pop\n      returndatasize\n      dup1\n      0x00\n      dup2\n      eq\n      tag_206\n      jumpi\n      mload(0x40)\n      swap2\n      pop\n      and(add(returndatasize, 0x3f), not(0x1f))\n      dup3\n      add\n      0x40\n      mstore\n      returndatasize\n      dup3\n      mstore\n      returndatasize\n      0x00\n      0x20\n      dup5\n      add\n      returndatacopy\n      jump(tag_205)\n    tag_206:\n      0x60\n      swap2\n      pop\n    tag_205:\n      pop\n        /* \"contracts/MultiSignatureWallet.sol\":4772:4884  (bool success, ) = transactions[txIndex].to.call{value: transactions[txIndex].value}(transactions[txIndex].data) */\n      pop\n      swap1\n      pop\n        /* \"contracts/MultiSignatureWallet.sol\":4903:4910  success */\n      dup1\n        /* \"contracts/MultiSignatureWallet.sol\":4895:4943  require(success, \"Transaction execution failed\") */\n      tag_207\n      jumpi\n      mload(0x40)\n      0x08c379a000000000000000000000000000000000000000000000000000000000\n      dup2\n      mstore\n      0x04\n      add\n      tag_208\n      swap1\n      tag_209\n      jump\t// in\n    tag_208:\n      mload(0x40)\n      dup1\n      swap2\n      sub\n      swap1\n      revert\n    tag_207:\n        /* \"contracts/MultiSignatureWallet.sol\":4457:4951  {... */\n      pop\n        /* \"contracts/MultiSignatureWallet.sol\":4403:4951  function executeTransaction(uint256 txIndex) internal {... */\n      pop\n      jump\t// out\n        /* \"#utility.yul\":88:205   */\n    tag_211:\n        /* \"#utility.yul\":197:198   */\n      0x00\n        /* \"#utility.yul\":194:195   */\n      dup1\n        /* \"#utility.yul\":187:199   */\n      revert\n        /* \"#utility.yul\":211:328   */\n    tag_212:\n        /* \"#utility.yul\":320:321   */\n      0x00\n        /* \"#utility.yul\":317:318   */\n      dup1\n        /* \"#utility.yul\":310:322   */\n      revert\n        /* \"#utility.yul\":334:411   */\n    tag_213:\n        /* \"#utility.yul\":371:378   */\n      0x00\n        /* \"#utility.yul\":400:405   */\n      dup2\n        /* \"#utility.yul\":389:405   */\n      swap1\n      pop\n        /* \"#utility.yul\":334:411   */\n      swap2\n      swap1\n      pop\n      jump\t// out\n        /* \"#utility.yul\":417:539   */\n    tag_214:\n        /* \"#utility.yul\":490:514   */\n      tag_282\n        /* \"#utility.yul\":508:513   */\n      dup2\n        /* \"#utility.yul\":490:514   */\n      tag_213\n      jump\t// in\n    tag_282:\n        /* \"#utility.yul\":483:488   */\n      dup2\n        /* \"#utility.yul\":480:515   */\n      eq\n        /* \"#utility.yul\":470:533   */\n      tag_283\n      jumpi\n        /* \"#utility.yul\":529:530   */\n      0x00\n        /* \"#utility.yul\":526:527   */\n      dup1\n        /* \"#utility.yul\":519:531   */\n      revert\n        /* \"#utility.yul\":470:533   */\n    tag_283:\n        /* \"#utility.yul\":417:539   */\n      pop\n      jump\t// out\n        /* \"#utility.yul\":545:684   */\n    tag_215:\n        /* \"#utility.yul\":591:596   */\n      0x00\n        /* \"#utility.yul\":629:635   */\n      dup2\n        /* \"#utility.yul\":616:636   */\n      calldataload\n        /* \"#utility.yul\":607:636   */\n      swap1\n      pop\n        /* \"#utility.yul\":645:678   */\n      tag_285\n        /* \"#utility.yul\":672:677   */\n      dup2\n        /* \"#utility.yul\":645:678   */\n      tag_214\n      jump\t// in\n    tag_285:\n        /* \"#utility.yul\":545:684   */\n      swap3\n      swap2\n      pop\n      pop\n      jump\t// out\n        /* \"#utility.yul\":690:1019   */\n    tag_17:\n        /* \"#utility.yul\":749:755   */\n      0x00\n        /* \"#utility.yul\":798:800   */\n      0x20\n        /* \"#utility.yul\":786:795   */\n      dup3\n        /* \"#utility.yul\":777:784   */\n      dup5\n        /* \"#utility.yul\":773:796   */\n      sub\n        /* \"#utility.yul\":769:801   */\n      slt\n        /* \"#utility.yul\":766:885   */\n      iszero\n      tag_287\n      jumpi\n        /* \"#utility.yul\":804:883   */\n      tag_288\n      tag_211\n      jump\t// in\n    tag_288:\n        /* \"#utility.yul\":766:885   */\n    tag_287:\n        /* \"#utility.yul\":924:925   */\n      0x00\n        /* \"#utility.yul\":949:1002   */\n      tag_289\n        /* \"#utility.yul\":994:1001   */\n      dup5\n        /* \"#utility.yul\":985:991   */\n      dup3\n        /* \"#utility.yul\":974:983   */\n      dup6\n        /* \"#utility.yul\":970:992   */\n      add\n        /* \"#utility.yul\":949:1002   */\n      tag_215\n      jump\t// in\n    tag_289:\n        /* \"#utility.yul\":939:1002   */\n      swap2\n      pop\n        /* \"#utility.yul\":895:1012   */\n      pop\n        /* \"#utility.yul\":690:1019   */\n      swap3\n      swap2\n      pop\n      pop\n      jump\t// out\n        /* \"#utility.yul\":1025:1151   */\n    tag_216:\n        /* \"#utility.yul\":1062:1069   */\n      0x00\n        /* \"#utility.yul\":1102:1144   */\n      0xffffffffffffffffffffffffffffffffffffffff\n        /* \"#utility.yul\":1095:1100   */\n      dup3\n        /* \"#utility.yul\":1091:1145   */\n      and\n        /* \"#utility.yul\":1080:1145   */\n      swap1\n      pop\n        /* \"#utility.yul\":1025:1151   */\n      swap2\n      swap1\n      pop\n      jump\t// out\n        /* \"#utility.yul\":1157:1253   */\n    tag_217:\n        /* \"#utility.yul\":1194:1201   */\n      0x00\n        /* \"#utility.yul\":1223:1247   */\n      tag_292\n        /* \"#utility.yul\":1241:1246   */\n      dup3\n        /* \"#utility.yul\":1223:1247   */\n      tag_216\n      jump\t// in\n    tag_292:\n        /* \"#utility.yul\":1212:1247   */\n      swap1\n      pop\n        /* \"#utility.yul\":1157:1253   */\n      swap2\n      swap1\n      pop\n      jump\t// out\n        /* \"#utility.yul\":1259:1377   */\n    tag_218:\n        /* \"#utility.yul\":1346:1370   */\n      tag_294\n        /* \"#utility.yul\":1364:1369   */\n      dup2\n        /* \"#utility.yul\":1346:1370   */\n      tag_217\n      jump\t// in\n    tag_294:\n        /* \"#utility.yul\":1341:1344   */\n      dup3\n        /* \"#utility.yul\":1334:1371   */\n      mstore\n        /* \"#utility.yul\":1259:1377   */\n      pop\n      pop\n      jump\t// out\n        /* \"#utility.yul\":1383:1605   */\n    tag_20:\n        /* \"#utility.yul\":1476:1480   */\n      0x00\n        /* \"#utility.yul\":1514:1516   */\n      0x20\n        /* \"#utility.yul\":1503:1512   */\n      dup3\n        /* \"#utility.yul\":1499:1517   */\n      add\n        /* \"#utility.yul\":1491:1517   */\n      swap1\n      pop\n        /* \"#utility.yul\":1527:1598   */\n      tag_296\n        /* \"#utility.yul\":1595:1596   */\n      0x00\n        /* \"#utility.yul\":1584:1593   */\n      dup4\n        /* \"#utility.yul\":1580:1597   */\n      add\n        /* \"#utility.yul\":1571:1577   */\n      dup5\n        /* \"#utility.yul\":1527:1598   */\n      tag_218\n      jump\t// in\n    tag_296:\n        /* \"#utility.yul\":1383:1605   */\n      swap3\n      swap2\n      pop\n      pop\n      jump\t// out\n        /* \"#utility.yul\":1611:1733   */\n    tag_219:\n        /* \"#utility.yul\":1684:1708   */\n      tag_298\n        /* \"#utility.yul\":1702:1707   */\n      dup2\n        /* \"#utility.yul\":1684:1708   */\n      tag_217\n      jump\t// in\n    tag_298:\n        /* \"#utility.yul\":1677:1682   */\n      dup2\n        /* \"#utility.yul\":1674:1709   */\n      eq\n        /* \"#utility.yul\":1664:1727   */\n      tag_299\n      jumpi\n        /* \"#utility.yul\":1723:1724   */\n      0x00\n        /* \"#utility.yul\":1720:1721   */\n      dup1\n        /* \"#utility.yul\":1713:1725   */\n      revert\n        /* \"#utility.yul\":1664:1727   */\n    tag_299:\n        /* \"#utility.yul\":1611:1733   */\n      pop\n      jump\t// out\n        /* \"#utility.yul\":1739:1878   */\n    tag_220:\n        /* \"#utility.yul\":1785:1790   */\n      0x00\n        /* \"#utility.yul\":1823:1829   */\n      dup2\n        /* \"#utility.yul\":1810:1830   */\n      calldataload\n        /* \"#utility.yul\":1801:1830   */\n      swap1\n      pop\n        /* \"#utility.yul\":1839:1872   */\n      tag_301\n        /* \"#utility.yul\":1866:1871   */\n      dup2\n        /* \"#utility.yul\":1839:1872   */\n      tag_219\n      jump\t// in\n    tag_301:\n        /* \"#utility.yul\":1739:1878   */\n      swap3\n      swap2\n      pop\n      pop\n      jump\t// out\n        /* \"#utility.yul\":1884:2213   */\n    tag_23:\n        /* \"#utility.yul\":1943:1949   */\n      0x00\n        /* \"#utility.yul\":1992:1994   */\n      0x20\n        /* \"#utility.yul\":1980:1989   */\n      dup3\n        /* \"#utility.yul\":1971:1978   */\n      dup5\n        /* \"#utility.yul\":1967:1990   */\n      sub\n        /* \"#utility.yul\":1963:1995   */\n      slt\n        /* \"#utility.yul\":1960:2079   */\n      iszero\n      tag_303\n      jumpi\n        /* \"#utility.yul\":1998:2077   */\n      tag_304\n      tag_211\n      jump\t// in\n    tag_304:\n        /* \"#utility.yul\":1960:2079   */\n    tag_303:\n        /* \"#utility.yul\":2118:2119   */\n      0x00\n        /* \"#utility.yul\":2143:2196   */\n      tag_305\n        /* \"#utility.yul\":2188:2195   */\n      dup5\n        /* \"#utility.yul\":2179:2185   */\n      dup3\n        /* \"#utility.yul\":2168:2177   */\n      dup6\n        /* \"#utility.yul\":2164:2186   */\n      add\n        /* \"#utility.yul\":2143:2196   */\n      tag_220\n      jump\t// in\n    tag_305:\n        /* \"#utility.yul\":2133:2196   */\n      swap2\n      pop\n        /* \"#utility.yul\":2089:2206   */\n      pop\n        /* \"#utility.yul\":1884:2213   */\n      swap3\n      swap2\n      pop\n      pop\n      jump\t// out\n        /* \"#utility.yul\":2219:2309   */\n    tag_221:\n        /* \"#utility.yul\":2253:2260   */\n      0x00\n        /* \"#utility.yul\":2296:2301   */\n      dup2\n        /* \"#utility.yul\":2289:2302   */\n      iszero\n        /* \"#utility.yul\":2282:2303   */\n      iszero\n        /* \"#utility.yul\":2271:2303   */\n      swap1\n      pop\n        /* \"#utility.yul\":2219:2309   */\n      swap2\n      swap1\n      pop\n      jump\t// out\n        /* \"#utility.yul\":2315:2424   */\n    tag_222:\n        /* \"#utility.yul\":2396:2417   */\n      tag_308\n        /* \"#utility.yul\":2411:2416   */\n      dup2\n        /* \"#utility.yul\":2396:2417   */\n      tag_221\n      jump\t// in\n    tag_308:\n        /* \"#utility.yul\":2391:2394   */\n      dup3\n        /* \"#utility.yul\":2384:2418   */\n      mstore\n        /* \"#utility.yul\":2315:2424   */\n      pop\n      pop\n      jump\t// out\n        /* \"#utility.yul\":2430:2640   */\n    tag_32:\n        /* \"#utility.yul\":2517:2521   */\n      0x00\n        /* \"#utility.yul\":2555:2557   */\n      0x20\n        /* \"#utility.yul\":2544:2553   */\n      dup3\n        /* \"#utility.yul\":2540:2558   */\n      add\n        /* \"#utility.yul\":2532:2558   */\n      swap1\n      pop\n        /* \"#utility.yul\":2568:2633   */\n      tag_310\n        /* \"#utility.yul\":2630:2631   */\n      0x00\n        /* \"#utility.yul\":2619:2628   */\n      dup4\n        /* \"#utility.yul\":2615:2632   */\n      add\n        /* \"#utility.yul\":2606:2612   */\n      dup5\n        /* \"#utility.yul\":2568:2633   */\n      tag_222\n      jump\t// in\n    tag_310:\n        /* \"#utility.yul\":2430:2640   */\n      swap3\n      swap2\n      pop\n      pop\n      jump\t// out\n        /* \"#utility.yul\":2646:2764   */\n    tag_223:\n        /* \"#utility.yul\":2733:2757   */\n      tag_312\n        /* \"#utility.yul\":2751:2756   */\n      dup2\n        /* \"#utility.yul\":2733:2757   */\n      tag_213\n      jump\t// in\n    tag_312:\n        /* \"#utility.yul\":2728:2731   */\n      dup3\n        /* \"#utility.yul\":2721:2758   */\n      mstore\n        /* \"#utility.yul\":2646:2764   */\n      pop\n      pop\n      jump\t// out\n        /* \"#utility.yul\":2770:2992   */\n    tag_42:\n        /* \"#utility.yul\":2863:2867   */\n      0x00\n        /* \"#utility.yul\":2901:2903   */\n      0x20\n        /* \"#utility.yul\":2890:2899   */\n      dup3\n        /* \"#utility.yul\":2886:2904   */\n      add\n        /* \"#utility.yul\":2878:2904   */\n      swap1\n      pop\n        /* \"#utility.yul\":2914:2985   */\n      tag_314\n        /* \"#utility.yul\":2982:2983   */\n      0x00\n        /* \"#utility.yul\":2971:2980   */\n      dup4\n        /* \"#utility.yul\":2967:2984   */\n      add\n        /* \"#utility.yul\":2958:2964   */\n      dup5\n        /* \"#utility.yul\":2914:2985   */\n      tag_223\n      jump\t// in\n    tag_314:\n        /* \"#utility.yul\":2770:2992   */\n      swap3\n      swap2\n      pop\n      pop\n      jump\t// out\n        /* \"#utility.yul\":2998:3096   */\n    tag_224:\n        /* \"#utility.yul\":3049:3055   */\n      0x00\n        /* \"#utility.yul\":3083:3088   */\n      dup2\n        /* \"#utility.yul\":3077:3089   */\n      mload\n        /* \"#utility.yul\":3067:3089   */\n      swap1\n      pop\n        /* \"#utility.yul\":2998:3096   */\n      swap2\n      swap1\n      pop\n      jump\t// out\n        /* \"#utility.yul\":3102:3270   */\n    tag_225:\n        /* \"#utility.yul\":3185:3196   */\n      0x00\n        /* \"#utility.yul\":3219:3225   */\n      dup3\n        /* \"#utility.yul\":3214:3217   */\n      dup3\n        /* \"#utility.yul\":3207:3226   */\n      mstore\n        /* \"#utility.yul\":3259:3263   */\n      0x20\n        /* \"#utility.yul\":3254:3257   */\n      dup3\n        /* \"#utility.yul\":3250:3264   */\n      add\n        /* \"#utility.yul\":3235:3264   */\n      swap1\n      pop\n        /* \"#utility.yul\":3102:3270   */\n      swap3\n      swap2\n      pop\n      pop\n      jump\t// out\n        /* \"#utility.yul\":3276:3522   */\n    tag_226:\n        /* \"#utility.yul\":3357:3358   */\n      0x00\n        /* \"#utility.yul\":3367:3480   */\n    tag_318:\n        /* \"#utility.yul\":3381:3387   */\n      dup4\n        /* \"#utility.yul\":3378:3379   */\n      dup2\n        /* \"#utility.yul\":3375:3388   */\n      lt\n        /* \"#utility.yul\":3367:3480   */\n      iszero\n      tag_320\n      jumpi\n        /* \"#utility.yul\":3466:3467   */\n      dup1\n        /* \"#utility.yul\":3461:3464   */\n      dup3\n        /* \"#utility.yul\":3457:3468   */\n      add\n        /* \"#utility.yul\":3451:3469   */\n      mload\n        /* \"#utility.yul\":3447:3448   */\n      dup2\n        /* \"#utility.yul\":3442:3445   */\n      dup5\n        /* \"#utility.yul\":3438:3449   */\n      add\n        /* \"#utility.yul\":3431:3470   */\n      mstore\n        /* \"#utility.yul\":3403:3405   */\n      0x20\n        /* \"#utility.yul\":3400:3401   */\n      dup2\n        /* \"#utility.yul\":3396:3406   */\n      add\n        /* \"#utility.yul\":3391:3406   */\n      swap1\n      pop\n        /* \"#utility.yul\":3367:3480   */\n      jump(tag_318)\n    tag_320:\n        /* \"#utility.yul\":3514:3515   */\n      0x00\n        /* \"#utility.yul\":3505:3511   */\n      dup5\n        /* \"#utility.yul\":3500:3503   */\n      dup5\n        /* \"#utility.yul\":3496:3512   */\n      add\n        /* \"#utility.yul\":3489:3516   */\n      mstore\n        /* \"#utility.yul\":3338:3522   */\n      pop\n        /* \"#utility.yul\":3276:3522   */\n      pop\n      pop\n      pop\n      jump\t// out\n        /* \"#utility.yul\":3528:3630   */\n    tag_227:\n        /* \"#utility.yul\":3569:3575   */\n      0x00\n        /* \"#utility.yul\":3620:3622   */\n      0x1f\n        /* \"#utility.yul\":3616:3623   */\n      not\n        /* \"#utility.yul\":3611:3613   */\n      0x1f\n        /* \"#utility.yul\":3604:3609   */\n      dup4\n        /* \"#utility.yul\":3600:3614   */\n      add\n        /* \"#utility.yul\":3596:3624   */\n      and\n        /* \"#utility.yul\":3586:3624   */\n      swap1\n      pop\n        /* \"#utility.yul\":3528:3630   */\n      swap2\n      swap1\n      pop\n      jump\t// out\n        /* \"#utility.yul\":3636:4009   */\n    tag_228:\n        /* \"#utility.yul\":3722:3725   */\n      0x00\n        /* \"#utility.yul\":3750:3788   */\n      tag_323\n        /* \"#utility.yul\":3782:3787   */\n      dup3\n        /* \"#utility.yul\":3750:3788   */\n      tag_224\n      jump\t// in\n    tag_323:\n        /* \"#utility.yul\":3804:3874   */\n      tag_324\n        /* \"#utility.yul\":3867:3873   */\n      dup2\n        /* \"#utility.yul\":3862:3865   */\n      dup6\n        /* \"#utility.yul\":3804:3874   */\n      tag_225\n      jump\t// in\n    tag_324:\n        /* \"#utility.yul\":3797:3874   */\n      swap4\n      pop\n        /* \"#utility.yul\":3883:3948   */\n      tag_325\n        /* \"#utility.yul\":3941:3947   */\n      dup2\n        /* \"#utility.yul\":3936:3939   */\n      dup6\n        /* \"#utility.yul\":3929:3933   */\n      0x20\n        /* \"#utility.yul\":3922:3927   */\n      dup7\n        /* \"#utility.yul\":3918:3934   */\n      add\n        /* \"#utility.yul\":3883:3948   */\n      tag_226\n      jump\t// in\n    tag_325:\n        /* \"#utility.yul\":3973:4002   */\n      tag_326\n        /* \"#utility.yul\":3995:4001   */\n      dup2\n        /* \"#utility.yul\":3973:4002   */\n      tag_227\n      jump\t// in\n    tag_326:\n        /* \"#utility.yul\":3968:3971   */\n      dup5\n        /* \"#utility.yul\":3964:4003   */\n      add\n        /* \"#utility.yul\":3957:4003   */\n      swap2\n      pop\n        /* \"#utility.yul\":3726:4009   */\n      pop\n        /* \"#utility.yul\":3636:4009   */\n      swap3\n      swap2\n      pop\n      pop\n      jump\t// out\n        /* \"#utility.yul\":4015:4643   */\n    tag_47:\n        /* \"#utility.yul\":4204:4208   */\n      0x00\n        /* \"#utility.yul\":4242:4245   */\n      0x80\n        /* \"#utility.yul\":4231:4240   */\n      dup3\n        /* \"#utility.yul\":4227:4246   */\n      add\n        /* \"#utility.yul\":4219:4246   */\n      swap1\n      pop\n        /* \"#utility.yul\":4256:4327   */\n      tag_328\n        /* \"#utility.yul\":4324:4325   */\n      0x00\n        /* \"#utility.yul\":4313:4322   */\n      dup4\n        /* \"#utility.yul\":4309:4326   */\n      add\n        /* \"#utility.yul\":4300:4306   */\n      dup8\n        /* \"#utility.yul\":4256:4327   */\n      tag_218\n      jump\t// in\n    tag_328:\n        /* \"#utility.yul\":4337:4409   */\n      tag_329\n        /* \"#utility.yul\":4405:4407   */\n      0x20\n        /* \"#utility.yul\":4394:4403   */\n      dup4\n        /* \"#utility.yul\":4390:4408   */\n      add\n        /* \"#utility.yul\":4381:4387   */\n      dup7\n        /* \"#utility.yul\":4337:4409   */\n      tag_223\n      jump\t// in\n    tag_329:\n        /* \"#utility.yul\":4456:4465   */\n      dup2\n        /* \"#utility.yul\":4450:4454   */\n      dup2\n        /* \"#utility.yul\":4446:4466   */\n      sub\n        /* \"#utility.yul\":4441:4443   */\n      0x40\n        /* \"#utility.yul\":4430:4439   */\n      dup4\n        /* \"#utility.yul\":4426:4444   */\n      add\n        /* \"#utility.yul\":4419:4467   */\n      mstore\n        /* \"#utility.yul\":4484:4560   */\n      tag_330\n        /* \"#utility.yul\":4555:4559   */\n      dup2\n        /* \"#utility.yul\":4546:4552   */\n      dup6\n        /* \"#utility.yul\":4484:4560   */\n      tag_228\n      jump\t// in\n    tag_330:\n        /* \"#utility.yul\":4476:4560   */\n      swap1\n      pop\n        /* \"#utility.yul\":4570:4636   */\n      tag_331\n        /* \"#utility.yul\":4632:4634   */\n      0x60\n        /* \"#utility.yul\":4621:4630   */\n      dup4\n        /* \"#utility.yul\":4617:4635   */\n      add\n        /* \"#utility.yul\":4608:4614   */\n      dup5\n        /* \"#utility.yul\":4570:4636   */\n      tag_222\n      jump\t// in\n    tag_331:\n        /* \"#utility.yul\":4015:4643   */\n      swap6\n      swap5\n      pop\n      pop\n      pop\n      pop\n      pop\n      jump\t// out\n        /* \"#utility.yul\":4649:5123   */\n    tag_50:\n        /* \"#utility.yul\":4717:4723   */\n      0x00\n        /* \"#utility.yul\":4725:4731   */\n      dup1\n        /* \"#utility.yul\":4774:4776   */\n      0x40\n        /* \"#utility.yul\":4762:4771   */\n      dup4\n        /* \"#utility.yul\":4753:4760   */\n      dup6\n        /* \"#utility.yul\":4749:4772   */\n      sub\n        /* \"#utility.yul\":4745:4777   */\n      slt\n        /* \"#utility.yul\":4742:4861   */\n      iszero\n      tag_333\n      jumpi\n        /* \"#utility.yul\":4780:4859   */\n      tag_334\n      tag_211\n      jump\t// in\n    tag_334:\n        /* \"#utility.yul\":4742:4861   */\n    tag_333:\n        /* \"#utility.yul\":4900:4901   */\n      0x00\n        /* \"#utility.yul\":4925:4978   */\n      tag_335\n        /* \"#utility.yul\":4970:4977   */\n      dup6\n        /* \"#utility.yul\":4961:4967   */\n      dup3\n        /* \"#utility.yul\":4950:4959   */\n      dup7\n        /* \"#utility.yul\":4946:4968   */\n      add\n        /* \"#utility.yul\":4925:4978   */\n      tag_215\n      jump\t// in\n    tag_335:\n        /* \"#utility.yul\":4915:4978   */\n      swap3\n      pop\n        /* \"#utility.yul\":4871:4988   */\n      pop\n        /* \"#utility.yul\":5027:5029   */\n      0x20\n        /* \"#utility.yul\":5053:5106   */\n      tag_336\n        /* \"#utility.yul\":5098:5105   */\n      dup6\n        /* \"#utility.yul\":5089:5095   */\n      dup3\n        /* \"#utility.yul\":5078:5087   */\n      dup7\n        /* \"#utility.yul\":5074:5096   */\n      add\n        /* \"#utility.yul\":5053:5106   */\n      tag_220\n      jump\t// in\n    tag_336:\n        /* \"#utility.yul\":5043:5106   */\n      swap2\n      pop\n        /* \"#utility.yul\":4998:5116   */\n      pop\n        /* \"#utility.yul\":4649:5123   */\n      swap3\n      pop\n      swap3\n      swap1\n      pop\n      jump\t// out\n        /* \"#utility.yul\":5129:5246   */\n    tag_229:\n        /* \"#utility.yul\":5238:5239   */\n      0x00\n        /* \"#utility.yul\":5235:5236   */\n      dup1\n        /* \"#utility.yul\":5228:5240   */\n      revert\n        /* \"#utility.yul\":5252:5369   */\n    tag_230:\n        /* \"#utility.yul\":5361:5362   */\n      0x00\n        /* \"#utility.yul\":5358:5359   */\n      dup1\n        /* \"#utility.yul\":5351:5363   */\n      revert\n        /* \"#utility.yul\":5375:5492   */\n    tag_231:\n        /* \"#utility.yul\":5484:5485   */\n      0x00\n        /* \"#utility.yul\":5481:5482   */\n      dup1\n        /* \"#utility.yul\":5474:5486   */\n      revert\n        /* \"#utility.yul\":5511:6063   */\n    tag_232:\n        /* \"#utility.yul\":5568:5576   */\n      0x00\n        /* \"#utility.yul\":5578:5584   */\n      dup1\n        /* \"#utility.yul\":5628:5631   */\n      dup4\n        /* \"#utility.yul\":5621:5625   */\n      0x1f\n        /* \"#utility.yul\":5613:5619   */\n      dup5\n        /* \"#utility.yul\":5609:5626   */\n      add\n        /* \"#utility.yul\":5605:5632   */\n      slt\n        /* \"#utility.yul\":5595:5717   */\n      tag_341\n      jumpi\n        /* \"#utility.yul\":5636:5715   */\n      tag_342\n      tag_229\n      jump\t// in\n    tag_342:\n        /* \"#utility.yul\":5595:5717   */\n    tag_341:\n        /* \"#utility.yul\":5749:5755   */\n      dup3\n        /* \"#utility.yul\":5736:5756   */\n      calldataload\n        /* \"#utility.yul\":5726:5756   */\n      swap1\n      pop\n        /* \"#utility.yul\":5779:5797   */\n      0xffffffffffffffff\n        /* \"#utility.yul\":5771:5777   */\n      dup2\n        /* \"#utility.yul\":5768:5798   */\n      gt\n        /* \"#utility.yul\":5765:5882   */\n      iszero\n      tag_343\n      jumpi\n        /* \"#utility.yul\":5801:5880   */\n      tag_344\n      tag_230\n      jump\t// in\n    tag_344:\n        /* \"#utility.yul\":5765:5882   */\n    tag_343:\n        /* \"#utility.yul\":5915:5919   */\n      0x20\n        /* \"#utility.yul\":5907:5913   */\n      dup4\n        /* \"#utility.yul\":5903:5920   */\n      add\n        /* \"#utility.yul\":5891:5920   */\n      swap2\n      pop\n        /* \"#utility.yul\":5969:5972   */\n      dup4\n        /* \"#utility.yul\":5961:5965   */\n      0x01\n        /* \"#utility.yul\":5953:5959   */\n      dup3\n        /* \"#utility.yul\":5949:5966   */\n      mul\n        /* \"#utility.yul\":5939:5947   */\n      dup4\n        /* \"#utility.yul\":5935:5967   */\n      add\n        /* \"#utility.yul\":5932:5973   */\n      gt\n        /* \"#utility.yul\":5929:6057   */\n      iszero\n      tag_345\n      jumpi\n        /* \"#utility.yul\":5976:6055   */\n      tag_346\n      tag_231\n      jump\t// in\n    tag_346:\n        /* \"#utility.yul\":5929:6057   */\n    tag_345:\n        /* \"#utility.yul\":5511:6063   */\n      swap3\n      pop\n      swap3\n      swap1\n      pop\n      jump\t// out\n        /* \"#utility.yul\":6069:6886   */\n    tag_59:\n        /* \"#utility.yul\":6157:6163   */\n      0x00\n        /* \"#utility.yul\":6165:6171   */\n      dup1\n        /* \"#utility.yul\":6173:6179   */\n      0x00\n        /* \"#utility.yul\":6181:6187   */\n      dup1\n        /* \"#utility.yul\":6230:6232   */\n      0x60\n        /* \"#utility.yul\":6218:6227   */\n      dup6\n        /* \"#utility.yul\":6209:6216   */\n      dup8\n        /* \"#utility.yul\":6205:6228   */\n      sub\n        /* \"#utility.yul\":6201:6233   */\n      slt\n        /* \"#utility.yul\":6198:6317   */\n      iszero\n      tag_348\n      jumpi\n        /* \"#utility.yul\":6236:6315   */\n      tag_349\n      tag_211\n      jump\t// in\n    tag_349:\n        /* \"#utility.yul\":6198:6317   */\n    tag_348:\n        /* \"#utility.yul\":6356:6357   */\n      0x00\n        /* \"#utility.yul\":6381:6434   */\n      tag_350\n        /* \"#utility.yul\":6426:6433   */\n      dup8\n        /* \"#utility.yul\":6417:6423   */\n      dup3\n        /* \"#utility.yul\":6406:6415   */\n      dup9\n        /* \"#utility.yul\":6402:6424   */\n      add\n        /* \"#utility.yul\":6381:6434   */\n      tag_220\n      jump\t// in\n    tag_350:\n        /* \"#utility.yul\":6371:6434   */\n      swap5\n      pop\n        /* \"#utility.yul\":6327:6444   */\n      pop\n        /* \"#utility.yul\":6483:6485   */\n      0x20\n        /* \"#utility.yul\":6509:6562   */\n      tag_351\n        /* \"#utility.yul\":6554:6561   */\n      dup8\n        /* \"#utility.yul\":6545:6551   */\n      dup3\n        /* \"#utility.yul\":6534:6543   */\n      dup9\n        /* \"#utility.yul\":6530:6552   */\n      add\n        /* \"#utility.yul\":6509:6562   */\n      tag_215\n      jump\t// in\n    tag_351:\n        /* \"#utility.yul\":6499:6562   */\n      swap4\n      pop\n        /* \"#utility.yul\":6454:6572   */\n      pop\n        /* \"#utility.yul\":6639:6641   */\n      0x40\n        /* \"#utility.yul\":6628:6637   */\n      dup6\n        /* \"#utility.yul\":6624:6642   */\n      add\n        /* \"#utility.yul\":6611:6643   */\n      calldataload\n        /* \"#utility.yul\":6670:6688   */\n      0xffffffffffffffff\n        /* \"#utility.yul\":6662:6668   */\n      dup2\n        /* \"#utility.yul\":6659:6689   */\n      gt\n        /* \"#utility.yul\":6656:6773   */\n      iszero\n      tag_352\n      jumpi\n        /* \"#utility.yul\":6692:6771   */\n      tag_353\n      tag_212\n      jump\t// in\n    tag_353:\n        /* \"#utility.yul\":6656:6773   */\n    tag_352:\n        /* \"#utility.yul\":6805:6869   */\n      tag_354\n        /* \"#utility.yul\":6861:6868   */\n      dup8\n        /* \"#utility.yul\":6852:6858   */\n      dup3\n        /* \"#utility.yul\":6841:6850   */\n      dup9\n        /* \"#utility.yul\":6837:6859   */\n      add\n        /* \"#utility.yul\":6805:6869   */\n      tag_232\n      jump\t// in\n    tag_354:\n        /* \"#utility.yul\":6787:6869   */\n      swap3\n      pop\n      swap3\n      pop\n        /* \"#utility.yul\":6582:6879   */\n      pop\n        /* \"#utility.yul\":6069:6886   */\n      swap3\n      swap6\n      swap2\n      swap5\n      pop\n      swap3\n      pop\n      jump\t// out\n        /* \"#utility.yul\":6892:7061   */\n    tag_233:\n        /* \"#utility.yul\":6976:6987   */\n      0x00\n        /* \"#utility.yul\":7010:7016   */\n      dup3\n        /* \"#utility.yul\":7005:7008   */\n      dup3\n        /* \"#utility.yul\":6998:7017   */\n      mstore\n        /* \"#utility.yul\":7050:7054   */\n      0x20\n        /* \"#utility.yul\":7045:7048   */\n      dup3\n        /* \"#utility.yul\":7041:7055   */\n      add\n        /* \"#utility.yul\":7026:7055   */\n      swap1\n      pop\n        /* \"#utility.yul\":6892:7061   */\n      swap3\n      swap2\n      pop\n      pop\n      jump\t// out\n        /* \"#utility.yul\":7067:7229   */\n    tag_234:\n        /* \"#utility.yul\":7207:7221   */\n      0x4e6f7420616e206f776e65720000000000000000000000000000000000000000\n        /* \"#utility.yul\":7203:7204   */\n      0x00\n        /* \"#utility.yul\":7195:7201   */\n      dup3\n        /* \"#utility.yul\":7191:7205   */\n      add\n        /* \"#utility.yul\":7184:7222   */\n      mstore\n        /* \"#utility.yul\":7067:7229   */\n      pop\n      jump\t// out\n        /* \"#utility.yul\":7235:7601   */\n    tag_235:\n        /* \"#utility.yul\":7377:7380   */\n      0x00\n        /* \"#utility.yul\":7398:7465   */\n      tag_358\n        /* \"#utility.yul\":7462:7464   */\n      0x0c\n        /* \"#utility.yul\":7457:7460   */\n      dup4\n        /* \"#utility.yul\":7398:7465   */\n      tag_233\n      jump\t// in\n    tag_358:\n        /* \"#utility.yul\":7391:7465   */\n      swap2\n      pop\n        /* \"#utility.yul\":7474:7567   */\n      tag_359\n        /* \"#utility.yul\":7563:7566   */\n      dup3\n        /* \"#utility.yul\":7474:7567   */\n      tag_234\n      jump\t// in\n    tag_359:\n        /* \"#utility.yul\":7592:7594   */\n      0x20\n        /* \"#utility.yul\":7587:7590   */\n      dup3\n        /* \"#utility.yul\":7583:7595   */\n      add\n        /* \"#utility.yul\":7576:7595   */\n      swap1\n      pop\n        /* \"#utility.yul\":7235:7601   */\n      swap2\n      swap1\n      pop\n      jump\t// out\n        /* \"#utility.yul\":7607:8026   */\n    tag_66:\n        /* \"#utility.yul\":7773:7777   */\n      0x00\n        /* \"#utility.yul\":7811:7813   */\n      0x20\n        /* \"#utility.yul\":7800:7809   */\n      dup3\n        /* \"#utility.yul\":7796:7814   */\n      add\n        /* \"#utility.yul\":7788:7814   */\n      swap1\n      pop\n        /* \"#utility.yul\":7860:7869   */\n      dup2\n        /* \"#utility.yul\":7854:7858   */\n      dup2\n        /* \"#utility.yul\":7850:7870   */\n      sub\n        /* \"#utility.yul\":7846:7847   */\n      0x00\n        /* \"#utility.yul\":7835:7844   */\n      dup4\n        /* \"#utility.yul\":7831:7848   */\n      add\n        /* \"#utility.yul\":7824:7871   */\n      mstore\n        /* \"#utility.yul\":7888:8019   */\n      tag_361\n        /* \"#utility.yul\":8014:8018   */\n      dup2\n        /* \"#utility.yul\":7888:8019   */\n      tag_235\n      jump\t// in\n    tag_361:\n        /* \"#utility.yul\":7880:8019   */\n      swap1\n      pop\n        /* \"#utility.yul\":7607:8026   */\n      swap2\n      swap1\n      pop\n      jump\t// out\n        /* \"#utility.yul\":8032:8202   */\n    tag_236:\n        /* \"#utility.yul\":8172:8194   */\n      0x4f776e657220646f6573206e6f74206578697374000000000000000000000000\n        /* \"#utility.yul\":8168:8169   */\n      0x00\n        /* \"#utility.yul\":8160:8166   */\n      dup3\n        /* \"#utility.yul\":8156:8170   */\n      add\n        /* \"#utility.yul\":8149:8195   */\n      mstore\n        /* \"#utility.yul\":8032:8202   */\n      pop\n      jump\t// out\n        /* \"#utility.yul\":8208:8574   */\n    tag_237:\n        /* \"#utility.yul\":8350:8353   */\n      0x00\n        /* \"#utility.yul\":8371:8438   */\n      tag_364\n        /* \"#utility.yul\":8435:8437   */\n      0x14\n        /* \"#utility.yul\":8430:8433   */\n      dup4\n        /* \"#utility.yul\":8371:8438   */\n      tag_233\n      jump\t// in\n    tag_364:\n        /* \"#utility.yul\":8364:8438   */\n      swap2\n      pop\n        /* \"#utility.yul\":8447:8540   */\n      tag_365\n        /* \"#utility.yul\":8536:8539   */\n      dup3\n        /* \"#utility.yul\":8447:8540   */\n      tag_236\n      jump\t// in\n    tag_365:\n        /* \"#utility.yul\":8565:8567   */\n      0x20\n        /* \"#utility.yul\":8560:8563   */\n      dup3\n        /* \"#utility.yul\":8556:8568   */\n      add\n        /* \"#utility.yul\":8549:8568   */\n      swap1\n      pop\n        /* \"#utility.yul\":8208:8574   */\n      swap2\n      swap1\n      pop\n      jump\t// out\n        /* \"#utility.yul\":8580:8999   */\n    tag_70:\n        /* \"#utility.yul\":8746:8750   */\n      0x00\n        /* \"#utility.yul\":8784:8786   */\n      0x20\n        /* \"#utility.yul\":8773:8782   */\n      dup3\n        /* \"#utility.yul\":8769:8787   */\n      add\n        /* \"#utility.yul\":8761:8787   */\n      swap1\n      pop\n        /* \"#utility.yul\":8833:8842   */\n      dup2\n        /* \"#utility.yul\":8827:8831   */\n      dup2\n        /* \"#utility.yul\":8823:8843   */\n      sub\n        /* \"#utility.yul\":8819:8820   */\n      0x00\n        /* \"#utility.yul\":8808:8817   */\n      dup4\n        /* \"#utility.yul\":8804:8821   */\n      add\n        /* \"#utility.yul\":8797:8844   */\n      mstore\n        /* \"#utility.yul\":8861:8992   */\n      tag_367\n        /* \"#utility.yul\":8987:8991   */\n      dup2\n        /* \"#utility.yul\":8861:8992   */\n      tag_237\n      jump\t// in\n    tag_367:\n        /* \"#utility.yul\":8853:8992   */\n      swap1\n      pop\n        /* \"#utility.yul\":8580:8999   */\n      swap2\n      swap1\n      pop\n      jump\t// out\n        /* \"#utility.yul\":9005:9185   */\n    tag_76:\n        /* \"#utility.yul\":9053:9130   */\n      0x4e487b7100000000000000000000000000000000000000000000000000000000\n        /* \"#utility.yul\":9050:9051   */\n      0x00\n        /* \"#utility.yul\":9043:9131   */\n      mstore\n        /* \"#utility.yul\":9150:9154   */\n      0x32\n        /* \"#utility.yul\":9147:9148   */\n      0x04\n        /* \"#utility.yul\":9140:9155   */\n      mstore\n        /* \"#utility.yul\":9174:9178   */\n      0x24\n        /* \"#utility.yul\":9171:9172   */\n      0x00\n        /* \"#utility.yul\":9164:9179   */\n      revert\n        /* \"#utility.yul\":9191:9371   */\n    tag_238:\n        /* \"#utility.yul\":9239:9316   */\n      0x4e487b7100000000000000000000000000000000000000000000000000000000\n        /* \"#utility.yul\":9236:9237   */\n      0x00\n        /* \"#utility.yul\":9229:9317   */\n      mstore\n        /* \"#utility.yul\":9336:9340   */\n      0x11\n        /* \"#utility.yul\":9333:9334   */\n      0x04\n        /* \"#utility.yul\":9326:9341   */\n      mstore\n        /* \"#utility.yul\":9360:9364   */\n      0x24\n        /* \"#utility.yul\":9357:9358   */\n      0x00\n        /* \"#utility.yul\":9350:9365   */\n      revert\n        /* \"#utility.yul\":9377:9571   */\n    tag_80:\n        /* \"#utility.yul\":9417:9421   */\n      0x00\n        /* \"#utility.yul\":9437:9457   */\n      tag_371\n        /* \"#utility.yul\":9455:9456   */\n      dup3\n        /* \"#utility.yul\":9437:9457   */\n      tag_213\n      jump\t// in\n    tag_371:\n        /* \"#utility.yul\":9432:9457   */\n      swap2\n      pop\n        /* \"#utility.yul\":9471:9491   */\n      tag_372\n        /* \"#utility.yul\":9489:9490   */\n      dup4\n        /* \"#utility.yul\":9471:9491   */\n      tag_213\n      jump\t// in\n    tag_372:\n        /* \"#utility.yul\":9466:9491   */\n      swap3\n      pop\n        /* \"#utility.yul\":9515:9516   */\n      dup3\n        /* \"#utility.yul\":9512:9513   */\n      dup3\n        /* \"#utility.yul\":9508:9517   */\n      sub\n        /* \"#utility.yul\":9500:9517   */\n      swap1\n      pop\n        /* \"#utility.yul\":9539:9540   */\n      dup2\n        /* \"#utility.yul\":9533:9537   */\n      dup2\n        /* \"#utility.yul\":9530:9541   */\n      gt\n        /* \"#utility.yul\":9527:9564   */\n      iszero\n      tag_373\n      jumpi\n        /* \"#utility.yul\":9544:9562   */\n      tag_374\n      tag_238\n      jump\t// in\n    tag_374:\n        /* \"#utility.yul\":9527:9564   */\n    tag_373:\n        /* \"#utility.yul\":9377:9571   */\n      swap3\n      swap2\n      pop\n      pop\n      jump\t// out\n        /* \"#utility.yul\":9577:9757   */\n    tag_89:\n        /* \"#utility.yul\":9625:9702   */\n      0x4e487b7100000000000000000000000000000000000000000000000000000000\n        /* \"#utility.yul\":9622:9623   */\n      0x00\n        /* \"#utility.yul\":9615:9703   */\n      mstore\n        /* \"#utility.yul\":9722:9726   */\n      0x31\n        /* \"#utility.yul\":9719:9720   */\n      0x04\n        /* \"#utility.yul\":9712:9727   */\n      mstore\n        /* \"#utility.yul\":9746:9750   */\n      0x24\n        /* \"#utility.yul\":9743:9744   */\n      0x00\n        /* \"#utility.yul\":9736:9751   */\n      revert\n        /* \"#utility.yul\":9763:9939   */\n    tag_239:\n        /* \"#utility.yul\":9903:9931   */\n      0x5472616e73616374696f6e20646f6573206e6f74206578697374000000000000\n        /* \"#utility.yul\":9899:9900   */\n      0x00\n        /* \"#utility.yul\":9891:9897   */\n      dup3\n        /* \"#utility.yul\":9887:9901   */\n      add\n        /* \"#utility.yul\":9880:9932   */\n      mstore\n        /* \"#utility.yul\":9763:9939   */\n      pop\n      jump\t// out\n        /* \"#utility.yul\":9945:10311   */\n    tag_240:\n        /* \"#utility.yul\":10087:10090   */\n      0x00\n        /* \"#utility.yul\":10108:10175   */\n      tag_378\n        /* \"#utility.yul\":10172:10174   */\n      0x1a\n        /* \"#utility.yul\":10167:10170   */\n      dup4\n        /* \"#utility.yul\":10108:10175   */\n      tag_233\n      jump\t// in\n    tag_378:\n        /* \"#utility.yul\":10101:10175   */\n      swap2\n      pop\n        /* \"#utility.yul\":10184:10277   */\n      tag_379\n        /* \"#utility.yul\":10273:10276   */\n      dup3\n        /* \"#utility.yul\":10184:10277   */\n      tag_239\n      jump\t// in\n    tag_379:\n        /* \"#utility.yul\":10302:10304   */\n      0x20\n        /* \"#utility.yul\":10297:10300   */\n      dup3\n        /* \"#utility.yul\":10293:10305   */\n      add\n        /* \"#utility.yul\":10286:10305   */\n      swap1\n      pop\n        /* \"#utility.yul\":9945:10311   */\n      swap2\n      swap1\n      pop\n      jump\t// out\n        /* \"#utility.yul\":10317:10736   */\n    tag_97:\n        /* \"#utility.yul\":10483:10487   */\n      0x00\n        /* \"#utility.yul\":10521:10523   */\n      0x20\n        /* \"#utility.yul\":10510:10519   */\n      dup3\n        /* \"#utility.yul\":10506:10524   */\n      add\n        /* \"#utility.yul\":10498:10524   */\n      swap1\n      pop\n        /* \"#utility.yul\":10570:10579   */\n      dup2\n        /* \"#utility.yul\":10564:10568   */\n      dup2\n        /* \"#utility.yul\":10560:10580   */\n      sub\n        /* \"#utility.yul\":10556:10557   */\n      0x00\n        /* \"#utility.yul\":10545:10554   */\n      dup4\n        /* \"#utility.yul\":10541:10558   */\n      add\n        /* \"#utility.yul\":10534:10581   */\n      mstore\n        /* \"#utility.yul\":10598:10729   */\n      tag_381\n        /* \"#utility.yul\":10724:10728   */\n      dup2\n        /* \"#utility.yul\":10598:10729   */\n      tag_240\n      jump\t// in\n    tag_381:\n        /* \"#utility.yul\":10590:10729   */\n      swap1\n      pop\n        /* \"#utility.yul\":10317:10736   */\n      swap2\n      swap1\n      pop\n      jump\t// out\n        /* \"#utility.yul\":10742:10920   */\n    tag_241:\n        /* \"#utility.yul\":10882:10912   */\n      0x5472616e73616374696f6e20616c726561647920657865637574656400000000\n        /* \"#utility.yul\":10878:10879   */\n      0x00\n        /* \"#utility.yul\":10870:10876   */\n      dup3\n        /* \"#utility.yul\":10866:10880   */\n      add\n        /* \"#utility.yul\":10859:10913   */\n      mstore\n        /* \"#utility.yul\":10742:10920   */\n      pop\n      jump\t// out\n        /* \"#utility.yul\":10926:11292   */\n    tag_242:\n        /* \"#utility.yul\":11068:11071   */\n      0x00\n        /* \"#utility.yul\":11089:11156   */\n      tag_384\n        /* \"#utility.yul\":11153:11155   */\n      0x1c\n        /* \"#utility.yul\":11148:11151   */\n      dup4\n        /* \"#utility.yul\":11089:11156   */\n      tag_233\n      jump\t// in\n    tag_384:\n        /* \"#utility.yul\":11082:11156   */\n      swap2\n      pop\n        /* \"#utility.yul\":11165:11258   */\n      tag_385\n        /* \"#utility.yul\":11254:11257   */\n      dup3\n        /* \"#utility.yul\":11165:11258   */\n      tag_241\n      jump\t// in\n    tag_385:\n        /* \"#utility.yul\":11283:11285   */\n      0x20\n        /* \"#utility.yul\":11278:11281   */\n      dup3\n        /* \"#utility.yul\":11274:11286   */\n      add\n        /* \"#utility.yul\":11267:11286   */\n      swap1\n      pop\n        /* \"#utility.yul\":10926:11292   */\n      swap2\n      swap1\n      pop\n      jump\t// out\n        /* \"#utility.yul\":11298:11717   */\n    tag_104:\n        /* \"#utility.yul\":11464:11468   */\n      0x00\n        /* \"#utility.yul\":11502:11504   */\n      0x20\n        /* \"#utility.yul\":11491:11500   */\n      dup3\n        /* \"#utility.yul\":11487:11505   */\n      add\n        /* \"#utility.yul\":11479:11505   */\n      swap1\n      pop\n        /* \"#utility.yul\":11551:11560   */\n      dup2\n        /* \"#utility.yul\":11545:11549   */\n      dup2\n        /* \"#utility.yul\":11541:11561   */\n      sub\n        /* \"#utility.yul\":11537:11538   */\n      0x00\n        /* \"#utility.yul\":11526:11535   */\n      dup4\n        /* \"#utility.yul\":11522:11539   */\n      add\n        /* \"#utility.yul\":11515:11562   */\n      mstore\n        /* \"#utility.yul\":11579:11710   */\n      tag_387\n        /* \"#utility.yul\":11705:11709   */\n      dup2\n        /* \"#utility.yul\":11579:11710   */\n      tag_242\n      jump\t// in\n    tag_387:\n        /* \"#utility.yul\":11571:11710   */\n      swap1\n      pop\n        /* \"#utility.yul\":11298:11717   */\n      swap2\n      swap1\n      pop\n      jump\t// out\n        /* \"#utility.yul\":11723:11952   */\n    tag_243:\n        /* \"#utility.yul\":11863:11897   */\n      0x5472616e73616374696f6e20616c726561647920617070726f76656420627920\n        /* \"#utility.yul\":11859:11860   */\n      0x00\n        /* \"#utility.yul\":11851:11857   */\n      dup3\n        /* \"#utility.yul\":11847:11861   */\n      add\n        /* \"#utility.yul\":11840:11898   */\n      mstore\n        /* \"#utility.yul\":11932:11944   */\n      0x74686973206f776e657200000000000000000000000000000000000000000000\n        /* \"#utility.yul\":11927:11929   */\n      0x20\n        /* \"#utility.yul\":11919:11925   */\n      dup3\n        /* \"#utility.yul\":11915:11930   */\n      add\n        /* \"#utility.yul\":11908:11945   */\n      mstore\n        /* \"#utility.yul\":11723:11952   */\n      pop\n      jump\t// out\n        /* \"#utility.yul\":11958:12324   */\n    tag_244:\n        /* \"#utility.yul\":12100:12103   */\n      0x00\n        /* \"#utility.yul\":12121:12188   */\n      tag_390\n        /* \"#utility.yul\":12185:12187   */\n      0x2a\n        /* \"#utility.yul\":12180:12183   */\n      dup4\n        /* \"#utility.yul\":12121:12188   */\n      tag_233\n      jump\t// in\n    tag_390:\n        /* \"#utility.yul\":12114:12188   */\n      swap2\n      pop\n        /* \"#utility.yul\":12197:12290   */\n      tag_391\n        /* \"#utility.yul\":12286:12289   */\n      dup3\n        /* \"#utility.yul\":12197:12290   */\n      tag_243\n      jump\t// in\n    tag_391:\n        /* \"#utility.yul\":12315:12317   */\n      0x40\n        /* \"#utility.yul\":12310:12313   */\n      dup3\n        /* \"#utility.yul\":12306:12318   */\n      add\n        /* \"#utility.yul\":12299:12318   */\n      swap1\n      pop\n        /* \"#utility.yul\":11958:12324   */\n      swap2\n      swap1\n      pop\n      jump\t// out\n        /* \"#utility.yul\":12330:12749   */\n    tag_108:\n        /* \"#utility.yul\":12496:12500   */\n      0x00\n        /* \"#utility.yul\":12534:12536   */\n      0x20\n        /* \"#utility.yul\":12523:12532   */\n      dup3\n        /* \"#utility.yul\":12519:12537   */\n      add\n        /* \"#utility.yul\":12511:12537   */\n      swap1\n      pop\n        /* \"#utility.yul\":12583:12592   */\n      dup2\n        /* \"#utility.yul\":12577:12581   */\n      dup2\n        /* \"#utility.yul\":12573:12593   */\n      sub\n        /* \"#utility.yul\":12569:12570   */\n      0x00\n        /* \"#utility.yul\":12558:12567   */\n      dup4\n        /* \"#utility.yul\":12554:12571   */\n      add\n        /* \"#utility.yul\":12547:12594   */\n      mstore\n        /* \"#utility.yul\":12611:12742   */\n      tag_393\n        /* \"#utility.yul\":12737:12741   */\n      dup2\n        /* \"#utility.yul\":12611:12742   */\n      tag_244\n      jump\t// in\n    tag_393:\n        /* \"#utility.yul\":12603:12742   */\n      swap1\n      pop\n        /* \"#utility.yul\":12330:12749   */\n      swap2\n      swap1\n      pop\n      jump\t// out\n        /* \"#utility.yul\":12755:12926   */\n    tag_245:\n        /* \"#utility.yul\":12895:12918   */\n      0x496e76616c6964206f776e657220616464726573730000000000000000000000\n        /* \"#utility.yul\":12891:12892   */\n      0x00\n        /* \"#utility.yul\":12883:12889   */\n      dup3\n        /* \"#utility.yul\":12879:12893   */\n      add\n        /* \"#utility.yul\":12872:12919   */\n      mstore\n        /* \"#utility.yul\":12755:12926   */\n      pop\n      jump\t// out\n        /* \"#utility.yul\":12932:13298   */\n    tag_246:\n        /* \"#utility.yul\":13074:13077   */\n      0x00\n        /* \"#utility.yul\":13095:13162   */\n      tag_396\n        /* \"#utility.yul\":13159:13161   */\n      0x15\n        /* \"#utility.yul\":13154:13157   */\n      dup4\n        /* \"#utility.yul\":13095:13162   */\n      tag_233\n      jump\t// in\n    tag_396:\n        /* \"#utility.yul\":13088:13162   */\n      swap2\n      pop\n        /* \"#utility.yul\":13171:13264   */\n      tag_397\n        /* \"#utility.yul\":13260:13263   */\n      dup3\n        /* \"#utility.yul\":13171:13264   */\n      tag_245\n      jump\t// in\n    tag_397:\n        /* \"#utility.yul\":13289:13291   */\n      0x20\n        /* \"#utility.yul\":13284:13287   */\n      dup3\n        /* \"#utility.yul\":13280:13292   */\n      add\n        /* \"#utility.yul\":13273:13292   */\n      swap1\n      pop\n        /* \"#utility.yul\":12932:13298   */\n      swap2\n      swap1\n      pop\n      jump\t// out\n        /* \"#utility.yul\":13304:13723   */\n    tag_143:\n        /* \"#utility.yul\":13470:13474   */\n      0x00\n        /* \"#utility.yul\":13508:13510   */\n      0x20\n        /* \"#utility.yul\":13497:13506   */\n      dup3\n        /* \"#utility.yul\":13493:13511   */\n      add\n        /* \"#utility.yul\":13485:13511   */\n      swap1\n      pop\n        /* \"#utility.yul\":13557:13566   */\n      dup2\n        /* \"#utility.yul\":13551:13555   */\n      dup2\n        /* \"#utility.yul\":13547:13567   */\n      sub\n        /* \"#utility.yul\":13543:13544   */\n      0x00\n        /* \"#utility.yul\":13532:13541   */\n      dup4\n        /* \"#utility.yul\":13528:13545   */\n      add\n        /* \"#utility.yul\":13521:13568   */\n      mstore\n        /* \"#utility.yul\":13585:13716   */\n      tag_399\n        /* \"#utility.yul\":13711:13715   */\n      dup2\n        /* \"#utility.yul\":13585:13716   */\n      tag_246\n      jump\t// in\n    tag_399:\n        /* \"#utility.yul\":13577:13716   */\n      swap1\n      pop\n        /* \"#utility.yul\":13304:13723   */\n      swap2\n      swap1\n      pop\n      jump\t// out\n        /* \"#utility.yul\":13729:13899   */\n    tag_247:\n        /* \"#utility.yul\":13869:13891   */\n      0x4f776e657220616c726561647920657869737473000000000000000000000000\n        /* \"#utility.yul\":13865:13866   */\n      0x00\n        /* \"#utility.yul\":13857:13863   */\n      dup3\n        /* \"#utility.yul\":13853:13867   */\n      add\n        /* \"#utility.yul\":13846:13892   */\n      mstore\n        /* \"#utility.yul\":13729:13899   */\n      pop\n      jump\t// out\n        /* \"#utility.yul\":13905:14271   */\n    tag_248:\n        /* \"#utility.yul\":14047:14050   */\n      0x00\n        /* \"#utility.yul\":14068:14135   */\n      tag_402\n        /* \"#utility.yul\":14132:14134   */\n      0x14\n        /* \"#utility.yul\":14127:14130   */\n      dup4\n        /* \"#utility.yul\":14068:14135   */\n      tag_233\n      jump\t// in\n    tag_402:\n        /* \"#utility.yul\":14061:14135   */\n      swap2\n      pop\n        /* \"#utility.yul\":14144:14237   */\n      tag_403\n        /* \"#utility.yul\":14233:14236   */\n      dup3\n        /* \"#utility.yul\":14144:14237   */\n      tag_247\n      jump\t// in\n    tag_403:\n        /* \"#utility.yul\":14262:14264   */\n      0x20\n        /* \"#utility.yul\":14257:14260   */\n      dup3\n        /* \"#utility.yul\":14253:14265   */\n      add\n        /* \"#utility.yul\":14246:14265   */\n      swap1\n      pop\n        /* \"#utility.yul\":13905:14271   */\n      swap2\n      swap1\n      pop\n      jump\t// out\n        /* \"#utility.yul\":14277:14696   */\n    tag_146:\n        /* \"#utility.yul\":14443:14447   */\n      0x00\n        /* \"#utility.yul\":14481:14483   */\n      0x20\n        /* \"#utility.yul\":14470:14479   */\n      dup3\n        /* \"#utility.yul\":14466:14484   */\n      add\n        /* \"#utility.yul\":14458:14484   */\n      swap1\n      pop\n        /* \"#utility.yul\":14530:14539   */\n      dup2\n        /* \"#utility.yul\":14524:14528   */\n      dup2\n        /* \"#utility.yul\":14520:14540   */\n      sub\n        /* \"#utility.yul\":14516:14517   */\n      0x00\n        /* \"#utility.yul\":14505:14514   */\n      dup4\n        /* \"#utility.yul\":14501:14518   */\n      add\n        /* \"#utility.yul\":14494:14541   */\n      mstore\n        /* \"#utility.yul\":14558:14689   */\n      tag_405\n        /* \"#utility.yul\":14684:14688   */\n      dup2\n        /* \"#utility.yul\":14558:14689   */\n      tag_248\n      jump\t// in\n    tag_405:\n        /* \"#utility.yul\":14550:14689   */\n      swap1\n      pop\n        /* \"#utility.yul\":14277:14696   */\n      swap2\n      swap1\n      pop\n      jump\t// out\n        /* \"#utility.yul\":14702:14882   */\n    tag_249:\n        /* \"#utility.yul\":14750:14827   */\n      0x4e487b7100000000000000000000000000000000000000000000000000000000\n        /* \"#utility.yul\":14747:14748   */\n      0x00\n        /* \"#utility.yul\":14740:14828   */\n      mstore\n        /* \"#utility.yul\":14847:14851   */\n      0x22\n        /* \"#utility.yul\":14844:14845   */\n      0x04\n        /* \"#utility.yul\":14837:14852   */\n      mstore\n        /* \"#utility.yul\":14871:14875   */\n      0x24\n        /* \"#utility.yul\":14868:14869   */\n      0x00\n        /* \"#utility.yul\":14861:14876   */\n      revert\n        /* \"#utility.yul\":14888:15208   */\n    tag_151:\n        /* \"#utility.yul\":14932:14938   */\n      0x00\n        /* \"#utility.yul\":14969:14970   */\n      0x02\n        /* \"#utility.yul\":14963:14967   */\n      dup3\n        /* \"#utility.yul\":14959:14971   */\n      div\n        /* \"#utility.yul\":14949:14971   */\n      swap1\n      pop\n        /* \"#utility.yul\":15016:15017   */\n      0x01\n        /* \"#utility.yul\":15010:15014   */\n      dup3\n        /* \"#utility.yul\":15006:15018   */\n      and\n        /* \"#utility.yul\":15037:15055   */\n      dup1\n        /* \"#utility.yul\":15027:15108   */\n      tag_408\n      jumpi\n        /* \"#utility.yul\":15093:15097   */\n      0x7f\n        /* \"#utility.yul\":15085:15091   */\n      dup3\n        /* \"#utility.yul\":15081:15098   */\n      and\n        /* \"#utility.yul\":15071:15098   */\n      swap2\n      pop\n        /* \"#utility.yul\":15027:15108   */\n    tag_408:\n        /* \"#utility.yul\":15155:15157   */\n      0x20\n        /* \"#utility.yul\":15147:15153   */\n      dup3\n        /* \"#utility.yul\":15144:15158   */\n      lt\n        /* \"#utility.yul\":15124:15142   */\n      dup2\n        /* \"#utility.yul\":15121:15159   */\n      sub\n        /* \"#utility.yul\":15118:15202   */\n      tag_409\n      jumpi\n        /* \"#utility.yul\":15174:15192   */\n      tag_410\n      tag_249\n      jump\t// in\n    tag_410:\n        /* \"#utility.yul\":15118:15202   */\n    tag_409:\n        /* \"#utility.yul\":14939:15208   */\n      pop\n        /* \"#utility.yul\":14888:15208   */\n      swap2\n      swap1\n      pop\n      jump\t// out\n        /* \"#utility.yul\":15214:15447   */\n    tag_165:\n        /* \"#utility.yul\":15253:15256   */\n      0x00\n        /* \"#utility.yul\":15276:15300   */\n      tag_412\n        /* \"#utility.yul\":15294:15299   */\n      dup3\n        /* \"#utility.yul\":15276:15300   */\n      tag_213\n      jump\t// in\n    tag_412:\n        /* \"#utility.yul\":15267:15300   */\n      swap2\n      pop\n        /* \"#utility.yul\":15322:15388   */\n      0xffffffffffffffffffffffffffffffffffffffffffffffffffffffffffffffff\n        /* \"#utility.yul\":15315:15320   */\n      dup3\n        /* \"#utility.yul\":15312:15389   */\n      sub\n        /* \"#utility.yul\":15309:15412   */\n      tag_413\n      jumpi\n        /* \"#utility.yul\":15392:15410   */\n      tag_414\n      tag_238\n      jump\t// in\n    tag_414:\n        /* \"#utility.yul\":15309:15412   */\n    tag_413:\n        /* \"#utility.yul\":15439:15440   */\n      0x01\n        /* \"#utility.yul\":15432:15437   */\n      dup3\n        /* \"#utility.yul\":15428:15441   */\n      add\n        /* \"#utility.yul\":15421:15441   */\n      swap1\n      pop\n        /* \"#utility.yul\":15214:15447   */\n      swap2\n      swap1\n      pop\n      jump\t// out\n        /* \"#utility.yul\":15453:15630   */\n    tag_250:\n        /* \"#utility.yul\":15593:15622   */\n      0x496e76616c69642064657374696e6174696f6e20616464726573730000000000\n        /* \"#utility.yul\":15589:15590   */\n      0x00\n        /* \"#utility.yul\":15581:15587   */\n      dup3\n        /* \"#utility.yul\":15577:15591   */\n      add\n        /* \"#utility.yul\":15570:15623   */\n      mstore\n        /* \"#utility.yul\":15453:15630   */\n      pop\n      jump\t// out\n        /* \"#utility.yul\":15636:16002   */\n    tag_251:\n        /* \"#utility.yul\":15778:15781   */\n      0x00\n        /* \"#utility.yul\":15799:15866   */\n      tag_417\n        /* \"#utility.yul\":15863:15865   */\n      0x1b\n        /* \"#utility.yul\":15858:15861   */\n      dup4\n        /* \"#utility.yul\":15799:15866   */\n      tag_233\n      jump\t// in\n    tag_417:\n        /* \"#utility.yul\":15792:15866   */\n      swap2\n      pop\n        /* \"#utility.yul\":15875:15968   */\n      tag_418\n        /* \"#utility.yul\":15964:15967   */\n      dup3\n        /* \"#utility.yul\":15875:15968   */\n      tag_250\n      jump\t// in\n    tag_418:\n        /* \"#utility.yul\":15993:15995   */\n      0x20\n        /* \"#utility.yul\":15988:15991   */\n      dup3\n        /* \"#utility.yul\":15984:15996   */\n      add\n        /* \"#utility.yul\":15977:15996   */\n      swap1\n      pop\n        /* \"#utility.yul\":15636:16002   */\n      swap2\n      swap1\n      pop\n      jump\t// out\n        /* \"#utility.yul\":16008:16427   */\n    tag_172:\n        /* \"#utility.yul\":16174:16178   */\n      0x00\n        /* \"#utility.yul\":16212:16214   */\n      0x20\n        /* \"#utility.yul\":16201:16210   */\n      dup3\n        /* \"#utility.yul\":16197:16215   */\n      add\n        /* \"#utility.yul\":16189:16215   */\n      swap1\n      pop\n        /* \"#utility.yul\":16261:16270   */\n      dup2\n        /* \"#utility.yul\":16255:16259   */\n      dup2\n        /* \"#utility.yul\":16251:16271   */\n      sub\n        /* \"#utility.yul\":16247:16248   */\n      0x00\n        /* \"#utility.yul\":16236:16245   */\n      dup4\n        /* \"#utility.yul\":16232:16249   */\n      add\n        /* \"#utility.yul\":16225:16272   */\n      mstore\n        /* \"#utility.yul\":16289:16420   */\n      tag_420\n        /* \"#utility.yul\":16415:16419   */\n      dup2\n        /* \"#utility.yul\":16289:16420   */\n      tag_251\n      jump\t// in\n    tag_420:\n        /* \"#utility.yul\":16281:16420   */\n      swap1\n      pop\n        /* \"#utility.yul\":16008:16427   */\n      swap2\n      swap1\n      pop\n      jump\t// out\n        /* \"#utility.yul\":16433:16613   */\n    tag_252:\n        /* \"#utility.yul\":16481:16558   */\n      0x4e487b7100000000000000000000000000000000000000000000000000000000\n        /* \"#utility.yul\":16478:16479   */\n      0x00\n        /* \"#utility.yul\":16471:16559   */\n      mstore\n        /* \"#utility.yul\":16578:16582   */\n      0x41\n        /* \"#utility.yul\":16575:16576   */\n      0x04\n        /* \"#utility.yul\":16568:16583   */\n      mstore\n        /* \"#utility.yul\":16602:16606   */\n      0x24\n        /* \"#utility.yul\":16599:16600   */\n      0x00\n        /* \"#utility.yul\":16592:16607   */\n      revert\n        /* \"#utility.yul\":16619:16759   */\n    tag_253:\n        /* \"#utility.yul\":16667:16671   */\n      0x00\n        /* \"#utility.yul\":16690:16693   */\n      dup2\n        /* \"#utility.yul\":16682:16693   */\n      swap1\n      pop\n        /* \"#utility.yul\":16713:16716   */\n      dup2\n        /* \"#utility.yul\":16710:16711   */\n      0x00\n        /* \"#utility.yul\":16703:16717   */\n      mstore\n        /* \"#utility.yul\":16747:16751   */\n      0x20\n        /* \"#utility.yul\":16744:16745   */\n      0x00\n        /* \"#utility.yul\":16734:16752   */\n      keccak256\n        /* \"#utility.yul\":16726:16752   */\n      swap1\n      pop\n        /* \"#utility.yul\":16619:16759   */\n      swap2\n      swap1\n      pop\n      jump\t// out\n        /* \"#utility.yul\":16765:16858   */\n    tag_254:\n        /* \"#utility.yul\":16802:16808   */\n      0x00\n        /* \"#utility.yul\":16849:16851   */\n      0x20\n        /* \"#utility.yul\":16844:16846   */\n      0x1f\n        /* \"#utility.yul\":16837:16842   */\n      dup4\n        /* \"#utility.yul\":16833:16847   */\n      add\n        /* \"#utility.yul\":16829:16852   */\n      div\n        /* \"#utility.yul\":16819:16852   */\n      swap1\n      pop\n        /* \"#utility.yul\":16765:16858   */\n      swap2\n      swap1\n      pop\n      jump\t// out\n        /* \"#utility.yul\":16864:16971   */\n    tag_255:\n        /* \"#utility.yul\":16908:16916   */\n      0x00\n        /* \"#utility.yul\":16958:16963   */\n      dup3\n        /* \"#utility.yul\":16952:16956   */\n      dup3\n        /* \"#utility.yul\":16948:16964   */\n      shl\n        /* \"#utility.yul\":16927:16964   */\n      swap1\n      pop\n        /* \"#utility.yul\":16864:16971   */\n      swap3\n      swap2\n      pop\n      pop\n      jump\t// out\n        /* \"#utility.yul\":16977:17370   */\n    tag_256:\n        /* \"#utility.yul\":17046:17052   */\n      0x00\n        /* \"#utility.yul\":17096:17097   */\n      0x08\n        /* \"#utility.yul\":17084:17094   */\n      dup4\n        /* \"#utility.yul\":17080:17098   */\n      mul\n        /* \"#utility.yul\":17119:17216   */\n      tag_426\n        /* \"#utility.yul\":17149:17215   */\n      0xffffffffffffffffffffffffffffffffffffffffffffffffffffffffffffffff\n        /* \"#utility.yul\":17138:17147   */\n      dup3\n        /* \"#utility.yul\":17119:17216   */\n      tag_255\n      jump\t// in\n    tag_426:\n        /* \"#utility.yul\":17237:17276   */\n      tag_427\n        /* \"#utility.yul\":17267:17275   */\n      dup7\n        /* \"#utility.yul\":17256:17265   */\n      dup4\n        /* \"#utility.yul\":17237:17276   */\n      tag_255\n      jump\t// in\n    tag_427:\n        /* \"#utility.yul\":17225:17276   */\n      swap6\n      pop\n        /* \"#utility.yul\":17309:17313   */\n      dup1\n        /* \"#utility.yul\":17305:17314   */\n      not\n        /* \"#utility.yul\":17298:17303   */\n      dup5\n        /* \"#utility.yul\":17294:17315   */\n      and\n        /* \"#utility.yul\":17285:17315   */\n      swap4\n      pop\n        /* \"#utility.yul\":17358:17362   */\n      dup1\n        /* \"#utility.yul\":17348:17356   */\n      dup7\n        /* \"#utility.yul\":17344:17363   */\n      and\n        /* \"#utility.yul\":17337:17342   */\n      dup5\n        /* \"#utility.yul\":17334:17364   */\n      or\n        /* \"#utility.yul\":17324:17364   */\n      swap3\n      pop\n        /* \"#utility.yul\":17053:17370   */\n      pop\n      pop\n        /* \"#utility.yul\":16977:17370   */\n      swap4\n      swap3\n      pop\n      pop\n      pop\n      jump\t// out\n        /* \"#utility.yul\":17376:17436   */\n    tag_257:\n        /* \"#utility.yul\":17404:17407   */\n      0x00\n        /* \"#utility.yul\":17425:17430   */\n      dup2\n        /* \"#utility.yul\":17418:17430   */\n      swap1\n      pop\n        /* \"#utility.yul\":17376:17436   */\n      swap2\n      swap1\n      pop\n      jump\t// out\n        /* \"#utility.yul\":17442:17584   */\n    tag_258:\n        /* \"#utility.yul\":17492:17501   */\n      0x00\n        /* \"#utility.yul\":17525:17578   */\n      tag_430\n        /* \"#utility.yul\":17543:17577   */\n      tag_431\n        /* \"#utility.yul\":17552:17576   */\n      tag_432\n        /* \"#utility.yul\":17570:17575   */\n      dup5\n        /* \"#utility.yul\":17552:17576   */\n      tag_213\n      jump\t// in\n    tag_432:\n        /* \"#utility.yul\":17543:17577   */\n      tag_257\n      jump\t// in\n    tag_431:\n        /* \"#utility.yul\":17525:17578   */\n      tag_213\n      jump\t// in\n    tag_430:\n        /* \"#utility.yul\":17512:17578   */\n      swap1\n      pop\n        /* \"#utility.yul\":17442:17584   */\n      swap2\n      swap1\n      pop\n      jump\t// out\n        /* \"#utility.yul\":17590:17665   */\n    tag_259:\n        /* \"#utility.yul\":17633:17636   */\n      0x00\n        /* \"#utility.yul\":17654:17659   */\n      dup2\n        /* \"#utility.yul\":17647:17659   */\n      swap1\n      pop\n        /* \"#utility.yul\":17590:17665   */\n      swap2\n      swap1\n      pop\n      jump\t// out\n        /* \"#utility.yul\":17671:17940   */\n    tag_260:\n        /* \"#utility.yul\":17781:17820   */\n      tag_435\n        /* \"#utility.yul\":17812:17819   */\n      dup4\n        /* \"#utility.yul\":17781:17820   */\n      tag_258\n      jump\t// in\n    tag_435:\n        /* \"#utility.yul\":17842:17933   */\n      tag_436\n        /* \"#utility.yul\":17891:17932   */\n      tag_437\n        /* \"#utility.yul\":17915:17931   */\n      dup3\n        /* \"#utility.yul\":17891:17932   */\n      tag_259\n      jump\t// in\n    tag_437:\n        /* \"#utility.yul\":17883:17889   */\n      dup5\n        /* \"#utility.yul\":17876:17880   */\n      dup5\n        /* \"#utility.yul\":17870:17881   */\n      sload\n        /* \"#utility.yul\":17842:17933   */\n      tag_256\n      jump\t// in\n    tag_436:\n        /* \"#utility.yul\":17836:17840   */\n      dup3\n        /* \"#utility.yul\":17829:17934   */\n      sstore\n        /* \"#utility.yul\":17747:17940   */\n      pop\n        /* \"#utility.yul\":17671:17940   */\n      pop\n      pop\n      pop\n      jump\t// out\n        /* \"#utility.yul\":17946:18019   */\n    tag_261:\n        /* \"#utility.yul\":17991:17994   */\n      0x00\n        /* \"#utility.yul\":17946:18019   */\n      swap1\n      jump\t// out\n        /* \"#utility.yul\":18025:18214   */\n    tag_262:\n        /* \"#utility.yul\":18102:18134   */\n      tag_440\n      tag_261\n      jump\t// in\n    tag_440:\n        /* \"#utility.yul\":18143:18208   */\n      tag_441\n        /* \"#utility.yul\":18201:18207   */\n      dup2\n        /* \"#utility.yul\":18193:18199   */\n      dup5\n        /* \"#utility.yul\":18187:18191   */\n      dup5\n        /* \"#utility.yul\":18143:18208   */\n      tag_260\n      jump\t// in\n    tag_441:\n        /* \"#utility.yul\":18078:18214   */\n      pop\n        /* \"#utility.yul\":18025:18214   */\n      pop\n      pop\n      jump\t// out\n        /* \"#utility.yul\":18220:18406   */\n    tag_263:\n        /* \"#utility.yul\":18280:18400   */\n    tag_443:\n        /* \"#utility.yul\":18297:18300   */\n      dup2\n        /* \"#utility.yul\":18290:18295   */\n      dup2\n        /* \"#utility.yul\":18287:18301   */\n      lt\n        /* \"#utility.yul\":18280:18400   */\n      iszero\n      tag_445\n      jumpi\n        /* \"#utility.yul\":18351:18390   */\n      tag_446\n        /* \"#utility.yul\":18388:18389   */\n      0x00\n        /* \"#utility.yul\":18381:18386   */\n      dup3\n        /* \"#utility.yul\":18351:18390   */\n      tag_262\n      jump\t// in\n    tag_446:\n        /* \"#utility.yul\":18324:18325   */\n      0x01\n        /* \"#utility.yul\":18317:18322   */\n      dup2\n        /* \"#utility.yul\":18313:18326   */\n      add\n        /* \"#utility.yul\":18304:18326   */\n      swap1\n      pop\n        /* \"#utility.yul\":18280:18400   */\n      jump(tag_443)\n    tag_445:\n        /* \"#utility.yul\":18220:18406   */\n      pop\n      pop\n      jump\t// out\n        /* \"#utility.yul\":18412:18953   */\n    tag_264:\n        /* \"#utility.yul\":18512:18514   */\n      0x1f\n        /* \"#utility.yul\":18507:18510   */\n      dup3\n        /* \"#utility.yul\":18504:18515   */\n      gt\n        /* \"#utility.yul\":18501:18946   */\n      iszero\n      tag_448\n      jumpi\n        /* \"#utility.yul\":18546:18583   */\n      tag_449\n        /* \"#utility.yul\":18577:18582   */\n      dup2\n        /* \"#utility.yul\":18546:18583   */\n      tag_253\n      jump\t// in\n    tag_449:\n        /* \"#utility.yul\":18629:18658   */\n      tag_450\n        /* \"#utility.yul\":18647:18657   */\n      dup5\n        /* \"#utility.yul\":18629:18658   */\n      tag_254\n      jump\t// in\n    tag_450:\n        /* \"#utility.yul\":18619:18627   */\n      dup2\n        /* \"#utility.yul\":18615:18659   */\n      add\n        /* \"#utility.yul\":18812:18814   */\n      0x20\n        /* \"#utility.yul\":18800:18810   */\n      dup6\n        /* \"#utility.yul\":18797:18815   */\n      lt\n        /* \"#utility.yul\":18794:18843   */\n      iszero\n      tag_451\n      jumpi\n        /* \"#utility.yul\":18833:18841   */\n      dup2\n        /* \"#utility.yul\":18818:18841   */\n      swap1\n      pop\n        /* \"#utility.yul\":18794:18843   */\n    tag_451:\n        /* \"#utility.yul\":18856:18936   */\n      tag_452\n        /* \"#utility.yul\":18912:18934   */\n      tag_453\n        /* \"#utility.yul\":18930:18933   */\n      dup6\n        /* \"#utility.yul\":18912:18934   */\n      tag_254\n      jump\t// in\n    tag_453:\n        /* \"#utility.yul\":18902:18910   */\n      dup4\n        /* \"#utility.yul\":18898:18935   */\n      add\n        /* \"#utility.yul\":18885:18896   */\n      dup3\n        /* \"#utility.yul\":18856:18936   */\n      tag_263\n      jump\t// in\n    tag_452:\n        /* \"#utility.yul\":18516:18946   */\n      pop\n      pop\n        /* \"#utility.yul\":18501:18946   */\n    tag_448:\n        /* \"#utility.yul\":18412:18953   */\n      pop\n      pop\n      pop\n      jump\t// out\n        /* \"#utility.yul\":18959:19076   */\n    tag_265:\n        /* \"#utility.yul\":19013:19021   */\n      0x00\n        /* \"#utility.yul\":19063:19068   */\n      dup3\n        /* \"#utility.yul\":19057:19061   */\n      dup3\n        /* \"#utility.yul\":19053:19069   */\n      shr\n        /* \"#utility.yul\":19032:19069   */\n      swap1\n      pop\n        /* \"#utility.yul\":18959:19076   */\n      swap3\n      swap2\n      pop\n      pop\n      jump\t// out\n        /* \"#utility.yul\":19082:19251   */\n    tag_266:\n        /* \"#utility.yul\":19126:19132   */\n      0x00\n        /* \"#utility.yul\":19159:19210   */\n      tag_456\n        /* \"#utility.yul\":19207:19208   */\n      0x00\n        /* \"#utility.yul\":19203:19209   */\n      not\n        /* \"#utility.yul\":19195:19200   */\n      dup5\n        /* \"#utility.yul\":19192:19193   */\n      0x08\n        /* \"#utility.yul\":19188:19201   */\n      mul\n        /* \"#utility.yul\":19159:19210   */\n      tag_265\n      jump\t// in\n    tag_456:\n        /* \"#utility.yul\":19155:19211   */\n      not\n        /* \"#utility.yul\":19240:19244   */\n      dup1\n        /* \"#utility.yul\":19234:19238   */\n      dup4\n        /* \"#utility.yul\":19230:19245   */\n      and\n        /* \"#utility.yul\":19220:19245   */\n      swap2\n      pop\n        /* \"#utility.yul\":19133:19251   */\n      pop\n        /* \"#utility.yul\":19082:19251   */\n      swap3\n      swap2\n      pop\n      pop\n      jump\t// out\n        /* \"#utility.yul\":19256:19551   */\n    tag_267:\n        /* \"#utility.yul\":19332:19336   */\n      0x00\n        /* \"#utility.yul\":19478:19507   */\n      tag_458\n        /* \"#utility.yul\":19503:19506   */\n      dup4\n        /* \"#utility.yul\":19497:19501   */\n      dup4\n        /* \"#utility.yul\":19478:19507   */\n      tag_266\n      jump\t// in\n    tag_458:\n        /* \"#utility.yul\":19470:19507   */\n      swap2\n      pop\n        /* \"#utility.yul\":19540:19543   */\n      dup3\n        /* \"#utility.yul\":19537:19538   */\n      0x02\n        /* \"#utility.yul\":19533:19544   */\n      mul\n        /* \"#utility.yul\":19527:19531   */\n      dup3\n        /* \"#utility.yul\":19524:19545   */\n      or\n        /* \"#utility.yul\":19516:19545   */\n      swap1\n      pop\n        /* \"#utility.yul\":19256:19551   */\n      swap3\n      swap2\n      pop\n      pop\n      jump\t// out\n        /* \"#utility.yul\":19556:20946   */\n    tag_175:\n        /* \"#utility.yul\":19671:19707   */\n      tag_460\n        /* \"#utility.yul\":19703:19706   */\n      dup3\n        /* \"#utility.yul\":19671:19707   */\n      tag_224\n      jump\t// in\n    tag_460:\n        /* \"#utility.yul\":19772:19790   */\n      0xffffffffffffffff\n        /* \"#utility.yul\":19764:19770   */\n      dup2\n        /* \"#utility.yul\":19761:19791   */\n      gt\n        /* \"#utility.yul\":19758:19814   */\n      iszero\n      tag_461\n      jumpi\n        /* \"#utility.yul\":19794:19812   */\n      tag_462\n      tag_252\n      jump\t// in\n    tag_462:\n        /* \"#utility.yul\":19758:19814   */\n    tag_461:\n        /* \"#utility.yul\":19838:19876   */\n      tag_463\n        /* \"#utility.yul\":19870:19874   */\n      dup3\n        /* \"#utility.yul\":19864:19875   */\n      sload\n        /* \"#utility.yul\":19838:19876   */\n      tag_151\n      jump\t// in\n    tag_463:\n        /* \"#utility.yul\":19923:19989   */\n      tag_464\n        /* \"#utility.yul\":19982:19988   */\n      dup3\n        /* \"#utility.yul\":19974:19980   */\n      dup3\n        /* \"#utility.yul\":19968:19972   */\n      dup6\n        /* \"#utility.yul\":19923:19989   */\n      tag_264\n      jump\t// in\n    tag_464:\n        /* \"#utility.yul\":20016:20017   */\n      0x00\n        /* \"#utility.yul\":20040:20044   */\n      0x20\n        /* \"#utility.yul\":20027:20044   */\n      swap1\n      pop\n        /* \"#utility.yul\":20072:20074   */\n      0x1f\n        /* \"#utility.yul\":20064:20070   */\n      dup4\n        /* \"#utility.yul\":20061:20075   */\n      gt\n        /* \"#utility.yul\":20089:20090   */\n      0x01\n        /* \"#utility.yul\":20084:20701   */\n      dup2\n      eq\n      tag_466\n      jumpi\n        /* \"#utility.yul\":20745:20746   */\n      0x00\n        /* \"#utility.yul\":20762:20768   */\n      dup5\n        /* \"#utility.yul\":20759:20836   */\n      iszero\n      tag_467\n      jumpi\n        /* \"#utility.yul\":20811:20820   */\n      dup3\n        /* \"#utility.yul\":20806:20809   */\n      dup8\n        /* \"#utility.yul\":20802:20821   */\n      add\n        /* \"#utility.yul\":20796:20822   */\n      mload\n        /* \"#utility.yul\":20787:20822   */\n      swap1\n      pop\n        /* \"#utility.yul\":20759:20836   */\n    tag_467:\n        /* \"#utility.yul\":20862:20929   */\n      tag_468\n        /* \"#utility.yul\":20922:20928   */\n      dup6\n        /* \"#utility.yul\":20915:20920   */\n      dup3\n        /* \"#utility.yul\":20862:20929   */\n      tag_267\n      jump\t// in\n    tag_468:\n        /* \"#utility.yul\":20856:20860   */\n      dup7\n        /* \"#utility.yul\":20849:20930   */\n      sstore\n        /* \"#utility.yul\":20718:20940   */\n      pop\n        /* \"#utility.yul\":20054:20940   */\n      jump(tag_465)\n        /* \"#utility.yul\":20084:20701   */\n    tag_466:\n        /* \"#utility.yul\":20136:20140   */\n      0x1f\n        /* \"#utility.yul\":20132:20141   */\n      not\n        /* \"#utility.yul\":20124:20130   */\n      dup5\n        /* \"#utility.yul\":20120:20142   */\n      and\n        /* \"#utility.yul\":20170:20206   */\n      tag_469\n        /* \"#utility.yul\":20201:20205   */\n      dup7\n        /* \"#utility.yul\":20170:20206   */\n      tag_253\n      jump\t// in\n    tag_469:\n        /* \"#utility.yul\":20228:20229   */\n      0x00\n        /* \"#utility.yul\":20242:20450   */\n    tag_470:\n        /* \"#utility.yul\":20256:20263   */\n      dup3\n        /* \"#utility.yul\":20253:20254   */\n      dup2\n        /* \"#utility.yul\":20250:20264   */\n      lt\n        /* \"#utility.yul\":20242:20450   */\n      iszero\n      tag_472\n      jumpi\n        /* \"#utility.yul\":20335:20344   */\n      dup5\n        /* \"#utility.yul\":20330:20333   */\n      dup10\n        /* \"#utility.yul\":20326:20345   */\n      add\n        /* \"#utility.yul\":20320:20346   */\n      mload\n        /* \"#utility.yul\":20312:20318   */\n      dup3\n        /* \"#utility.yul\":20305:20347   */\n      sstore\n        /* \"#utility.yul\":20386:20387   */\n      0x01\n        /* \"#utility.yul\":20378:20384   */\n      dup3\n        /* \"#utility.yul\":20374:20388   */\n      add\n        /* \"#utility.yul\":20364:20388   */\n      swap2\n      pop\n        /* \"#utility.yul\":20433:20435   */\n      0x20\n        /* \"#utility.yul\":20422:20431   */\n      dup6\n        /* \"#utility.yul\":20418:20436   */\n      add\n        /* \"#utility.yul\":20405:20436   */\n      swap5\n      pop\n        /* \"#utility.yul\":20279:20283   */\n      0x20\n        /* \"#utility.yul\":20276:20277   */\n      dup2\n        /* \"#utility.yul\":20272:20284   */\n      add\n        /* \"#utility.yul\":20267:20284   */\n      swap1\n      pop\n        /* \"#utility.yul\":20242:20450   */\n      jump(tag_470)\n    tag_472:\n        /* \"#utility.yul\":20478:20484   */\n      dup7\n        /* \"#utility.yul\":20469:20476   */\n      dup4\n        /* \"#utility.yul\":20466:20485   */\n      lt\n        /* \"#utility.yul\":20463:20642   */\n      iszero\n      tag_473\n      jumpi\n        /* \"#utility.yul\":20536:20545   */\n      dup5\n        /* \"#utility.yul\":20531:20534   */\n      dup10\n        /* \"#utility.yul\":20527:20546   */\n      add\n        /* \"#utility.yul\":20521:20547   */\n      mload\n        /* \"#utility.yul\":20579:20627   */\n      tag_474\n        /* \"#utility.yul\":20621:20625   */\n      0x1f\n        /* \"#utility.yul\":20613:20619   */\n      dup10\n        /* \"#utility.yul\":20609:20626   */\n      and\n        /* \"#utility.yul\":20598:20607   */\n      dup3\n        /* \"#utility.yul\":20579:20627   */\n      tag_266\n      jump\t// in\n    tag_474:\n        /* \"#utility.yul\":20571:20577   */\n      dup4\n        /* \"#utility.yul\":20564:20628   */\n      sstore\n        /* \"#utility.yul\":20486:20642   */\n      pop\n        /* \"#utility.yul\":20463:20642   */\n    tag_473:\n        /* \"#utility.yul\":20688:20689   */\n      0x01\n        /* \"#utility.yul\":20684:20685   */\n      0x02\n        /* \"#utility.yul\":20676:20682   */\n      dup9\n        /* \"#utility.yul\":20672:20686   */\n      mul\n        /* \"#utility.yul\":20668:20690   */\n      add\n        /* \"#utility.yul\":20662:20666   */\n      dup9\n        /* \"#utility.yul\":20655:20691   */\n      sstore\n        /* \"#utility.yul\":20091:20701   */\n      pop\n      pop\n      pop\n        /* \"#utility.yul\":20054:20940   */\n    tag_465:\n      pop\n        /* \"#utility.yul\":19646:20946   */\n      pop\n      pop\n      pop\n        /* \"#utility.yul\":19556:20946   */\n      pop\n      pop\n      jump\t// out\n        /* \"#utility.yul\":20952:21098   */\n    tag_268:\n        /* \"#utility.yul\":21049:21055   */\n      dup3\n        /* \"#utility.yul\":21044:21047   */\n      dup2\n        /* \"#utility.yul\":21039:21042   */\n      dup4\n        /* \"#utility.yul\":21026:21056   */\n      calldatacopy\n        /* \"#utility.yul\":21090:21091   */\n      0x00\n        /* \"#utility.yul\":21081:21087   */\n      dup4\n        /* \"#utility.yul\":21076:21079   */\n      dup4\n        /* \"#utility.yul\":21072:21088   */\n      add\n        /* \"#utility.yul\":21065:21092   */\n      mstore\n        /* \"#utility.yul\":20952:21098   */\n      pop\n      pop\n      pop\n      jump\t// out\n        /* \"#utility.yul\":21126:21440   */\n    tag_269:\n        /* \"#utility.yul\":21222:21225   */\n      0x00\n        /* \"#utility.yul\":21243:21313   */\n      tag_477\n        /* \"#utility.yul\":21306:21312   */\n      dup4\n        /* \"#utility.yul\":21301:21304   */\n      dup6\n        /* \"#utility.yul\":21243:21313   */\n      tag_225\n      jump\t// in\n    tag_477:\n        /* \"#utility.yul\":21236:21313   */\n      swap4\n      pop\n        /* \"#utility.yul\":21323:21379   */\n      tag_478\n        /* \"#utility.yul\":21372:21378   */\n      dup4\n        /* \"#utility.yul\":21367:21370   */\n      dup6\n        /* \"#utility.yul\":21360:21365   */\n      dup5\n        /* \"#utility.yul\":21323:21379   */\n      tag_268\n      jump\t// in\n    tag_478:\n        /* \"#utility.yul\":21404:21433   */\n      tag_479\n        /* \"#utility.yul\":21426:21432   */\n      dup4\n        /* \"#utility.yul\":21404:21433   */\n      tag_227\n      jump\t// in\n    tag_479:\n        /* \"#utility.yul\":21399:21402   */\n      dup5\n        /* \"#utility.yul\":21395:21434   */\n      add\n        /* \"#utility.yul\":21388:21434   */\n      swap1\n      pop\n        /* \"#utility.yul\":21126:21440   */\n      swap4\n      swap3\n      pop\n      pop\n      pop\n      jump\t// out\n        /* \"#utility.yul\":21446:21885   */\n    tag_177:\n        /* \"#utility.yul\":21595:21599   */\n      0x00\n        /* \"#utility.yul\":21633:21635   */\n      0x40\n        /* \"#utility.yul\":21622:21631   */\n      dup3\n        /* \"#utility.yul\":21618:21636   */\n      add\n        /* \"#utility.yul\":21610:21636   */\n      swap1\n      pop\n        /* \"#utility.yul\":21646:21717   */\n      tag_481\n        /* \"#utility.yul\":21714:21715   */\n      0x00\n        /* \"#utility.yul\":21703:21712   */\n      dup4\n        /* \"#utility.yul\":21699:21716   */\n      add\n        /* \"#utility.yul\":21690:21696   */\n      dup7\n        /* \"#utility.yul\":21646:21717   */\n      tag_223\n      jump\t// in\n    tag_481:\n        /* \"#utility.yul\":21764:21773   */\n      dup2\n        /* \"#utility.yul\":21758:21762   */\n      dup2\n        /* \"#utility.yul\":21754:21774   */\n      sub\n        /* \"#utility.yul\":21749:21751   */\n      0x20\n        /* \"#utility.yul\":21738:21747   */\n      dup4\n        /* \"#utility.yul\":21734:21752   */\n      add\n        /* \"#utility.yul\":21727:21775   */\n      mstore\n        /* \"#utility.yul\":21792:21878   */\n      tag_482\n        /* \"#utility.yul\":21873:21877   */\n      dup2\n        /* \"#utility.yul\":21864:21870   */\n      dup5\n        /* \"#utility.yul\":21856:21862   */\n      dup7\n        /* \"#utility.yul\":21792:21878   */\n      tag_269\n      jump\t// in\n    tag_482:\n        /* \"#utility.yul\":21784:21878   */\n      swap1\n      pop\n        /* \"#utility.yul\":21446:21885   */\n      swap5\n      swap4\n      pop\n      pop\n      pop\n      pop\n      jump\t// out\n        /* \"#utility.yul\":21891:22061   */\n    tag_270:\n        /* \"#utility.yul\":22031:22053   */\n      0x4e6f7420656e6f75676820617070726f76616c73000000000000000000000000\n        /* \"#utility.yul\":22027:22028   */\n      0x00\n        /* \"#utility.yul\":22019:22025   */\n      dup3\n        /* \"#utility.yul\":22015:22029   */\n      add\n        /* \"#utility.yul\":22008:22054   */\n      mstore\n        /* \"#utility.yul\":21891:22061   */\n      pop\n      jump\t// out\n        /* \"#utility.yul\":22067:22433   */\n    tag_271:\n        /* \"#utility.yul\":22209:22212   */\n      0x00\n        /* \"#utility.yul\":22230:22297   */\n      tag_485\n        /* \"#utility.yul\":22294:22296   */\n      0x14\n        /* \"#utility.yul\":22289:22292   */\n      dup4\n        /* \"#utility.yul\":22230:22297   */\n      tag_233\n      jump\t// in\n    tag_485:\n        /* \"#utility.yul\":22223:22297   */\n      swap2\n      pop\n        /* \"#utility.yul\":22306:22399   */\n      tag_486\n        /* \"#utility.yul\":22395:22398   */\n      dup3\n        /* \"#utility.yul\":22306:22399   */\n      tag_270\n      jump\t// in\n    tag_486:\n        /* \"#utility.yul\":22424:22426   */\n      0x20\n        /* \"#utility.yul\":22419:22422   */\n      dup3\n        /* \"#utility.yul\":22415:22427   */\n      add\n        /* \"#utility.yul\":22408:22427   */\n      swap1\n      pop\n        /* \"#utility.yul\":22067:22433   */\n      swap2\n      swap1\n      pop\n      jump\t// out\n        /* \"#utility.yul\":22439:22858   */\n    tag_189:\n        /* \"#utility.yul\":22605:22609   */\n      0x00\n        /* \"#utility.yul\":22643:22645   */\n      0x20\n        /* \"#utility.yul\":22632:22641   */\n      dup3\n        /* \"#utility.yul\":22628:22646   */\n      add\n        /* \"#utility.yul\":22620:22646   */\n      swap1\n      pop\n        /* \"#utility.yul\":22692:22701   */\n      dup2\n        /* \"#utility.yul\":22686:22690   */\n      dup2\n        /* \"#utility.yul\":22682:22702   */\n      sub\n        /* \"#utility.yul\":22678:22679   */\n      0x00\n        /* \"#utility.yul\":22667:22676   */\n      dup4\n        /* \"#utility.yul\":22663:22680   */\n      add\n        /* \"#utility.yul\":22656:22703   */\n      mstore\n        /* \"#utility.yul\":22720:22851   */\n      tag_488\n        /* \"#utility.yul\":22846:22850   */\n      dup2\n        /* \"#utility.yul\":22720:22851   */\n      tag_271\n      jump\t// in\n    tag_488:\n        /* \"#utility.yul\":22712:22851   */\n      swap1\n      pop\n        /* \"#utility.yul\":22439:22858   */\n      swap2\n      swap1\n      pop\n      jump\t// out\n        /* \"#utility.yul\":22864:23011   */\n    tag_272:\n        /* \"#utility.yul\":22965:22976   */\n      0x00\n        /* \"#utility.yul\":23002:23005   */\n      dup2\n        /* \"#utility.yul\":22987:23005   */\n      swap1\n      pop\n        /* \"#utility.yul\":22864:23011   */\n      swap3\n      swap2\n      pop\n      pop\n      jump\t// out\n        /* \"#utility.yul\":23039:23909   */\n    tag_273:\n        /* \"#utility.yul\":23140:23143   */\n      0x00\n        /* \"#utility.yul\":23177:23182   */\n      dup2\n        /* \"#utility.yul\":23171:23183   */\n      sload\n        /* \"#utility.yul\":23206:23242   */\n      tag_491\n        /* \"#utility.yul\":23232:23241   */\n      dup2\n        /* \"#utility.yul\":23206:23242   */\n      tag_151\n      jump\t// in\n    tag_491:\n        /* \"#utility.yul\":23258:23346   */\n      tag_492\n        /* \"#utility.yul\":23339:23345   */\n      dup2\n        /* \"#utility.yul\":23334:23337   */\n      dup7\n        /* \"#utility.yul\":23258:23346   */\n      tag_272\n      jump\t// in\n    tag_492:\n        /* \"#utility.yul\":23251:23346   */\n      swap5\n      pop\n        /* \"#utility.yul\":23377:23378   */\n      0x01\n        /* \"#utility.yul\":23366:23375   */\n      dup3\n        /* \"#utility.yul\":23362:23379   */\n      and\n        /* \"#utility.yul\":23393:23394   */\n      0x00\n        /* \"#utility.yul\":23388:23554   */\n      dup2\n      eq\n      tag_494\n      jumpi\n        /* \"#utility.yul\":23568:23569   */\n      0x01\n        /* \"#utility.yul\":23563:23903   */\n      dup2\n      eq\n      tag_495\n      jumpi\n        /* \"#utility.yul\":23355:23903   */\n      jump(tag_493)\n        /* \"#utility.yul\":23388:23554   */\n    tag_494:\n        /* \"#utility.yul\":23472:23476   */\n      0xff\n        /* \"#utility.yul\":23468:23477   */\n      not\n        /* \"#utility.yul\":23457:23466   */\n      dup4\n        /* \"#utility.yul\":23453:23478   */\n      and\n        /* \"#utility.yul\":23448:23451   */\n      dup7\n        /* \"#utility.yul\":23441:23479   */\n      mstore\n        /* \"#utility.yul\":23534:23540   */\n      dup2\n        /* \"#utility.yul\":23527:23541   */\n      iszero\n        /* \"#utility.yul\":23520:23542   */\n      iszero\n        /* \"#utility.yul\":23512:23518   */\n      dup3\n        /* \"#utility.yul\":23508:23543   */\n      mul\n        /* \"#utility.yul\":23503:23506   */\n      dup7\n        /* \"#utility.yul\":23499:23544   */\n      add\n        /* \"#utility.yul\":23492:23544   */\n      swap4\n      pop\n        /* \"#utility.yul\":23388:23554   */\n      jump(tag_493)\n        /* \"#utility.yul\":23563:23903   */\n    tag_495:\n        /* \"#utility.yul\":23630:23667   */\n      tag_496\n        /* \"#utility.yul\":23661:23666   */\n      dup6\n        /* \"#utility.yul\":23630:23667   */\n      tag_253\n      jump\t// in\n    tag_496:\n        /* \"#utility.yul\":23689:23690   */\n      0x00\n        /* \"#utility.yul\":23703:23857   */\n    tag_497:\n        /* \"#utility.yul\":23717:23723   */\n      dup4\n        /* \"#utility.yul\":23714:23715   */\n      dup2\n        /* \"#utility.yul\":23711:23724   */\n      lt\n        /* \"#utility.yul\":23703:23857   */\n      iszero\n      tag_499\n      jumpi\n        /* \"#utility.yul\":23791:23798   */\n      dup2\n        /* \"#utility.yul\":23785:23799   */\n      sload\n        /* \"#utility.yul\":23781:23782   */\n      dup2\n        /* \"#utility.yul\":23776:23779   */\n      dup10\n        /* \"#utility.yul\":23772:23783   */\n      add\n        /* \"#utility.yul\":23765:23800   */\n      mstore\n        /* \"#utility.yul\":23841:23842   */\n      0x01\n        /* \"#utility.yul\":23832:23839   */\n      dup3\n        /* \"#utility.yul\":23828:23843   */\n      add\n        /* \"#utility.yul\":23817:23843   */\n      swap2\n      pop\n        /* \"#utility.yul\":23739:23743   */\n      0x20\n        /* \"#utility.yul\":23736:23737   */\n      dup2\n        /* \"#utility.yul\":23732:23744   */\n      add\n        /* \"#utility.yul\":23727:23744   */\n      swap1\n      pop\n        /* \"#utility.yul\":23703:23857   */\n      jump(tag_497)\n    tag_499:\n        /* \"#utility.yul\":23886:23892   */\n      dup4\n        /* \"#utility.yul\":23881:23884   */\n      dup9\n        /* \"#utility.yul\":23877:23893   */\n      add\n        /* \"#utility.yul\":23870:23893   */\n      swap6\n      pop\n        /* \"#utility.yul\":23570:23903   */\n      pop\n      pop\n        /* \"#utility.yul\":23355:23903   */\n    tag_493:\n      pop\n        /* \"#utility.yul\":23144:23909   */\n      pop\n      pop\n        /* \"#utility.yul\":23039:23909   */\n      swap3\n      swap2\n      pop\n      pop\n      jump\t// out\n        /* \"#utility.yul\":23915:24180   */\n    tag_203:\n        /* \"#utility.yul\":24042:24045   */\n      0x00\n        /* \"#utility.yul\":24064:24154   */\n      tag_501\n        /* \"#utility.yul\":24150:24153   */\n      dup3\n        /* \"#utility.yul\":24141:24147   */\n      dup5\n        /* \"#utility.yul\":24064:24154   */\n      tag_273\n      jump\t// in\n    tag_501:\n        /* \"#utility.yul\":24057:24154   */\n      swap2\n      pop\n        /* \"#utility.yul\":24171:24174   */\n      dup2\n        /* \"#utility.yul\":24164:24174   */\n      swap1\n      pop\n        /* \"#utility.yul\":23915:24180   */\n      swap3\n      swap2\n      pop\n      pop\n      jump\t// out\n        /* \"#utility.yul\":24186:24364   */\n    tag_274:\n        /* \"#utility.yul\":24326:24356   */\n      0x5472616e73616374696f6e20657865637574696f6e206661696c656400000000\n        /* \"#utility.yul\":24322:24323   */\n      0x00\n        /* \"#utility.yul\":24314:24320   */\n      dup3\n        /* \"#utility.yul\":24310:24324   */\n      add\n        /* \"#utility.yul\":24303:24357   */\n      mstore\n        /* \"#utility.yul\":24186:24364   */\n      pop\n      jump\t// out\n        /* \"#utility.yul\":24370:24736   */\n    tag_275:\n        /* \"#utility.yul\":24512:24515   */\n      0x00\n        /* \"#utility.yul\":24533:24600   */\n      tag_504\n        /* \"#utility.yul\":24597:24599   */\n      0x1c\n        /* \"#utility.yul\":24592:24595   */\n      dup4\n        /* \"#utility.yul\":24533:24600   */\n      tag_233\n      jump\t// in\n    tag_504:\n        /* \"#utility.yul\":24526:24600   */\n      swap2\n      pop\n        /* \"#utility.yul\":24609:24702   */\n      tag_505\n        /* \"#utility.yul\":24698:24701   */\n      dup3\n        /* \"#utility.yul\":24609:24702   */\n      tag_274\n      jump\t// in\n    tag_505:\n        /* \"#utility.yul\":24727:24729   */\n      0x20\n        /* \"#utility.yul\":24722:24725   */\n      dup3\n        /* \"#utility.yul\":24718:24730   */\n      add\n        /* \"#utility.yul\":24711:24730   */\n      swap1\n      pop\n        /* \"#utility.yul\":24370:24736   */\n      swap2\n      swap1\n      pop\n      jump\t// out\n        /* \"#utility.yul\":24742:25161   */\n    tag_209:\n        /* \"#utility.yul\":24908:24912   */\n      0x00\n        /* \"#utility.yul\":24946:24948   */\n      0x20\n        /* \"#utility.yul\":24935:24944   */\n      dup3\n        /* \"#utility.yul\":24931:24949   */\n      add\n        /* \"#utility.yul\":24923:24949   */\n      swap1\n      pop\n        /* \"#utility.yul\":24995:25004   */\n      dup2\n        /* \"#utility.yul\":24989:24993   */\n      dup2\n        /* \"#utility.yul\":24985:25005   */\n      sub\n        /* \"#utility.yul\":24981:24982   */\n      0x00\n        /* \"#utility.yul\":24970:24979   */\n      dup4\n        /* \"#utility.yul\":24966:24983   */\n      add\n        /* \"#utility.yul\":24959:25006   */\n      mstore\n        /* \"#utility.yul\":25023:25154   */\n      tag_507\n        /* \"#utility.yul\":25149:25153   */\n      dup2\n        /* \"#utility.yul\":25023:25154   */\n      tag_275\n      jump\t// in\n    tag_507:\n        /* \"#utility.yul\":25015:25154   */\n      swap1\n      pop\n        /* \"#utility.yul\":24742:25161   */\n      swap2\n      swap1\n      pop\n      jump\t// out\n\n    auxdata: 0xa26469706673582212201b434d977dffd62bbeed0029e8571a37b52578ddd4b407dae3fc5b6f0e75f2e564736f6c63430008170033\n}\n",
				"bytecode": {
					"linkReferences": {},
					"object": "608060405234801562000010575f80fd5b50604051620028ad380380620028ad833981810160405281019062000036919062000525565b5f8251116200007c576040517f08c379a00000000000000000000000000000000000000000000000000000000081526004016200007390620005e7565b60405180910390fd5b5f811180156200008d575081518111155b620000cf576040517f08c379a0000000000000000000000000000000000000000000000000000000008152600401620000c6906200067b565b60405180910390fd5b5f5b8251811015620002ff575f838281518110620000f257620000f16200069b565b5b602002602001015190505f73ffffffffffffffffffffffffffffffffffffffff168173ffffffffffffffffffffffffffffffffffffffff16036200016d576040517f08c379a0000000000000000000000000000000000000000000000000000000008152600401620001649062000716565b60405180910390fd5b60015f8273ffffffffffffffffffffffffffffffffffffffff1673ffffffffffffffffffffffffffffffffffffffff1681526020019081526020015f205f9054906101000a900460ff1615620001fa576040517f08c379a0000000000000000000000000000000000000000000000000000000008152600401620001f19062000784565b60405180910390fd5b5f81908060018154018082558091505060019003905f5260205f20015f9091909190916101000a81548173ffffffffffffffffffffffffffffffffffffffff021916908373ffffffffffffffffffffffffffffffffffffffff1602179055506001805f8373ffffffffffffffffffffffffffffffffffffffff1673ffffffffffffffffffffffffffffffffffffffff1681526020019081526020015f205f6101000a81548160ff0219169083151502179055508073ffffffffffffffffffffffffffffffffffffffff167fb4cd6c6140e1db788f68710738b06ef4d0df6a884a06a088433a4c2f5e036e7c60405160405180910390a2508080600101915050620000d1565b50806002819055505050620007a4565b5f604051905090565b5f80fd5b5f80fd5b5f80fd5b5f601f19601f8301169050919050565b7f4e487b71000000000000000000000000000000000000000000000000000000005f52604160045260245ffd5b6200036c8262000324565b810181811067ffffffffffffffff821117156200038e576200038d62000334565b5b80604052505050565b5f620003a26200030f565b9050620003b0828262000361565b919050565b5f67ffffffffffffffff821115620003d257620003d162000334565b5b602082029050602081019050919050565b5f80fd5b5f73ffffffffffffffffffffffffffffffffffffffff82169050919050565b5f6200041282620003e7565b9050919050565b620004248162000406565b81146200042f575f80fd5b50565b5f81519050620004428162000419565b92915050565b5f6200045e6200045884620003b5565b62000397565b90508083825260208201905060208402830185811115620004845762000483620003e3565b5b835b81811015620004b157806200049c888262000432565b84526020840193505060208101905062000486565b5050509392505050565b5f82601f830112620004d257620004d162000320565b5b8151620004e484826020860162000448565b91505092915050565b5f819050919050565b6200050181620004ed565b81146200050c575f80fd5b50565b5f815190506200051f81620004f6565b92915050565b5f80604083850312156200053e576200053d62000318565b5b5f83015167ffffffffffffffff8111156200055e576200055d6200031c565b5b6200056c85828601620004bb565b92505060206200057f858286016200050f565b9150509250929050565b5f82825260208201905092915050565b7f4f776e657273206c6973742063616e6e6f7420626520656d70747900000000005f82015250565b5f620005cf601b8362000589565b9150620005dc8262000599565b602082019050919050565b5f6020820190508181035f8301526200060081620005c1565b9050919050565b7f496e76616c6964206e756d626572206f6620726571756972656420617070726f5f8201527f76616c7300000000000000000000000000000000000000000000000000000000602082015250565b5f6200066360248362000589565b9150620006708262000607565b604082019050919050565b5f6020820190508181035f830152620006948162000655565b9050919050565b7f4e487b71000000000000000000000000000000000000000000000000000000005f52603260045260245ffd5b7f496e76616c6964206f776e6572206164647265737300000000000000000000005f82015250565b5f620006fe60158362000589565b91506200070b82620006c8565b602082019050919050565b5f6020820190508181035f8301526200072f81620006f0565b9050919050565b7f4475706c6963617465206f776e657220616464726573730000000000000000005f82015250565b5f6200076c60178362000589565b9150620007798262000736565b602082019050919050565b5f6020820190508181035f8301526200079d816200075e565b9050919050565b6120fb80620007b25f395ff3fe608060405234801561000f575f80fd5b50600436106100a7575f3560e01c80637065cb481161006f5780637065cb481461015f57806399c1aadc1461017b5780639ace38c214610199578063ab2850da146101cc578063ba7e7cab146101fc578063c64274741461022c576100a7565b8063025e7c27146100ab578063173825d9146100db578063242232d1146100f75780632f54bf6e146101135780633380c0d814610143575b5f80fd5b6100c560048036038101906100c09190611467565b610248565b6040516100d291906114d1565b60405180910390f35b6100f560048036038101906100f09190611514565b610282565b005b610111600480360381019061010c9190611467565b6105a2565b005b61012d60048036038101906101289190611514565b6108fe565b60405161013a9190611559565b60405180910390f35b61015d60048036038101906101589190611467565b61091b565b005b61017960048036038101906101749190611514565b610aca565b005b610183610d44565b6040516101909190611581565b60405180910390f35b6101b360048036038101906101ae9190611467565b610d4a565b6040516101c39493929190611624565b60405180910390f35b6101e660048036038101906101e1919061166e565b610e36565b6040516101f39190611559565b60405180910390f35b61021660048036038101906102119190611467565b610e60565b6040516102239190611581565b60405180910390f35b6102466004803603810190610241919061170d565b610f31565b005b5f8181548110610256575f80fd5b905f5260205f20015f915054906101000a900473ffffffffffffffffffffffffffffffffffffffff1681565b60015f3373ffffffffffffffffffffffffffffffffffffffff1673ffffffffffffffffffffffffffffffffffffffff1681526020019081526020015f205f9054906101000a900460ff1661030b576040517f08c379a0000000000000000000000000000000000000000000000000000000008152600401610302906117d8565b60405180910390fd5b60015f8273ffffffffffffffffffffffffffffffffffffffff1673ffffffffffffffffffffffffffffffffffffffff1681526020019081526020015f205f9054906101000a900460ff16610394576040517f08c379a000000000000000000000000000000000000000000000000000000000815260040161038b90611840565b60405180910390fd5b5f60015f8373ffffffffffffffffffffffffffffffffffffffff1673ffffffffffffffffffffffffffffffffffffffff1681526020019081526020015f205f6101000a81548160ff0219169083151502179055505f5b5f8054905081101561055b578173ffffffffffffffffffffffffffffffffffffffff165f82815481106104205761041f61185e565b5b905f5260205f20015f9054906101000a900473ffffffffffffffffffffffffffffffffffffffff1673ffffffffffffffffffffffffffffffffffffffff160361054e575f60015f8054905061047591906118b8565b815481106104865761048561185e565b5b905f5260205f20015f9054906101000a900473ffffffffffffffffffffffffffffffffffffffff165f82815481106104c1576104c061185e565b5b905f5260205f20015f6101000a81548173ffffffffffffffffffffffffffffffffffffffff021916908373ffffffffffffffffffffffffffffffffffffffff1602179055505f805480610517576105166118eb565b5b600190038181905f5260205f20015f6101000a81549073ffffffffffffffffffffffffffffffffffffffff0219169055905561055b565b80806001019150506103ea565b508073ffffffffffffffffffffffffffffffffffffffff167f86d076ecf250a6d90a67a7c75317f44709d5001395ecf1df6d9dad5278f1e68160405160405180910390a250565b60015f3373ffffffffffffffffffffffffffffffffffffffff1673ffffffffffffffffffffffffffffffffffffffff1681526020019081526020015f205f9054906101000a900460ff1661062b576040517f08c379a0000000000000000000000000000000000000000000000000000000008152600401610622906117d8565b60405180910390fd5b806003805490508110610673576040517f08c379a000000000000000000000000000000000000000000000000000000000815260040161066a90611962565b60405180910390fd5b81600381815481106106885761068761185e565b5b905f5260205f2090600402016003015f9054906101000a900460ff16156106e4576040517f08c379a00000000000000000000000000000000000000000000000000000000081526004016106db906119ca565b60405180910390fd5b8260045f8281526020019081526020015f205f3373ffffffffffffffffffffffffffffffffffffffff1673ffffffffffffffffffffffffffffffffffffffff1681526020019081526020015f205f9054906101000a900460ff161561077e576040517f08c379a000000000000000000000000000000000000000000000000000000000815260040161077590611a58565b60405180910390fd5b60038054905084106107c5576040517f08c379a00000000000000000000000000000000000000000000000000000000081526004016107bc90611962565b60405180910390fd5b600384815481106107d9576107d861185e565b5b905f5260205f2090600402016003015f9054906101000a900460ff1615610835576040517f08c379a000000000000000000000000000000000000000000000000000000000815260040161082c906119ca565b60405180910390fd5b600160045f8681526020019081526020015f205f3373ffffffffffffffffffffffffffffffffffffffff1673ffffffffffffffffffffffffffffffffffffffff1681526020019081526020015f205f6101000a81548160ff0219169083151502179055503373ffffffffffffffffffffffffffffffffffffffff16847f924813d717e221b5f46dcd8a56da1679e4612584ab3237d55e5faabf6f6a307960405160405180910390a36002546108e985610e60565b106108f8576108f7846111b9565b5b50505050565b6001602052805f5260405f205f915054906101000a900460ff1681565b60015f3373ffffffffffffffffffffffffffffffffffffffff1673ffffffffffffffffffffffffffffffffffffffff1681526020019081526020015f205f9054906101000a900460ff166109a4576040517f08c379a000000000000000000000000000000000000000000000000000000000815260040161099b906117d8565b60405180910390fd5b8060038054905081106109ec576040517f08c379a00000000000000000000000000000000000000000000000000000000081526004016109e390611962565b60405180910390fd5b8160038181548110610a0157610a0061185e565b5b905f5260205f2090600402016003015f9054906101000a900460ff1615610a5d576040517f08c379a0000000000000000000000000000000000000000000000000000000008152600401610a54906119ca565b60405180910390fd5b600160038481548110610a7357610a7261185e565b5b905f5260205f2090600402016003015f6101000a81548160ff021916908315150217905550827f05059bfe288d11577563b32ca8457bdfd86d32da708af82367af4ea6d9dbcae560405160405180910390a2505050565b60015f3373ffffffffffffffffffffffffffffffffffffffff1673ffffffffffffffffffffffffffffffffffffffff1681526020019081526020015f205f9054906101000a900460ff16610b53576040517f08c379a0000000000000000000000000000000000000000000000000000000008152600401610b4a906117d8565b60405180910390fd5b5f73ffffffffffffffffffffffffffffffffffffffff168173ffffffffffffffffffffffffffffffffffffffff1603610bc1576040517f08c379a0000000000000000000000000000000000000000000000000000000008152600401610bb890611ac0565b60405180910390fd5b60015f8273ffffffffffffffffffffffffffffffffffffffff1673ffffffffffffffffffffffffffffffffffffffff1681526020019081526020015f205f9054906101000a900460ff1615610c4b576040517f08c379a0000000000000000000000000000000000000000000000000000000008152600401610c4290611b28565b60405180910390fd5b5f81908060018154018082558091505060019003905f5260205f20015f9091909190916101000a81548173ffffffffffffffffffffffffffffffffffffffff021916908373ffffffffffffffffffffffffffffffffffffffff1602179055506001805f8373ffffffffffffffffffffffffffffffffffffffff1673ffffffffffffffffffffffffffffffffffffffff1681526020019081526020015f205f6101000a81548160ff0219169083151502179055508073ffffffffffffffffffffffffffffffffffffffff167fb4cd6c6140e1db788f68710738b06ef4d0df6a884a06a088433a4c2f5e036e7c60405160405180910390a250565b60025481565b60038181548110610d59575f80fd5b905f5260205f2090600402015f91509050805f015f9054906101000a900473ffffffffffffffffffffffffffffffffffffffff1690806001015490806002018054610da390611b73565b80601f0160208091040260200160405190810160405280929190818152602001828054610dcf90611b73565b8015610e1a5780601f10610df157610100808354040283529160200191610e1a565b820191905f5260205f20905b815481529060010190602001808311610dfd57829003601f168201915b505050505090806003015f9054906101000a900460ff16905084565b6004602052815f5260405f20602052805f5260405f205f915091509054906101000a900460ff1681565b5f805f90505f5b5f80549050811015610f275760045f8581526020019081526020015f205f808381548110610e9857610e9761185e565b5b905f5260205f20015f9054906101000a900473ffffffffffffffffffffffffffffffffffffffff1673ffffffffffffffffffffffffffffffffffffffff1673ffffffffffffffffffffffffffffffffffffffff1681526020019081526020015f205f9054906101000a900460ff1615610f1a578180610f1690611ba3565b9250505b8080600101915050610e67565b5080915050919050565b60015f3373ffffffffffffffffffffffffffffffffffffffff1673ffffffffffffffffffffffffffffffffffffffff1681526020019081526020015f205f9054906101000a900460ff16610fba576040517f08c379a0000000000000000000000000000000000000000000000000000000008152600401610fb1906117d8565b60405180910390fd5b5f73ffffffffffffffffffffffffffffffffffffffff168473ffffffffffffffffffffffffffffffffffffffff1603611028576040517f08c379a000000000000000000000000000000000000000000000000000000000815260040161101f90611c34565b60405180910390fd5b5f60405180608001604052808673ffffffffffffffffffffffffffffffffffffffff16815260200185815260200184848080601f0160208091040260200160405190810160405280939291908181526020018383808284375f81840152601f19601f8201169050808301925050505050505081526020015f151581525090505f6003805490509050600382908060018154018082558091505060019003905f5260205f2090600402015f909190919091505f820151815f015f6101000a81548173ffffffffffffffffffffffffffffffffffffffff021916908373ffffffffffffffffffffffffffffffffffffffff16021790555060208201518160010155604082015181600201908161113c9190611e1c565b506060820151816003015f6101000a81548160ff02191690831515021790555050508573ffffffffffffffffffffffffffffffffffffffff16817f3f6db45da5513bd4fe9f8a31e60ea668bdd4bca57e30a85a9a26f90c9fbcb56c8787876040516111a993929190611f25565b60405180910390a3505050505050565b6003805490508110611200576040517f08c379a00000000000000000000000000000000000000000000000000000000081526004016111f790611962565b60405180910390fd5b600381815481106112145761121361185e565b5b905f5260205f2090600402016003015f9054906101000a900460ff1615611270576040517f08c379a0000000000000000000000000000000000000000000000000000000008152600401611267906119ca565b60405180910390fd5b60025461127c82610e60565b10156112bd576040517f08c379a00000000000000000000000000000000000000000000000000000000081526004016112b490611f9f565b60405180910390fd5b6001600382815481106112d3576112d261185e565b5b905f5260205f2090600402016003015f6101000a81548160ff0219169083151502179055505f6003828154811061130d5761130c61185e565b5b905f5260205f2090600402015f015f9054906101000a900473ffffffffffffffffffffffffffffffffffffffff1673ffffffffffffffffffffffffffffffffffffffff16600383815481106113655761136461185e565b5b905f5260205f20906004020160010154600384815481106113895761138861185e565b5b905f5260205f2090600402016002016040516113a59190612047565b5f6040518083038185875af1925050503d805f81146113df576040519150601f19603f3d011682016040523d82523d5f602084013e6113e4565b606091505b5050905080611428576040517f08c379a000000000000000000000000000000000000000000000000000000000815260040161141f906120a7565b60405180910390fd5b5050565b5f80fd5b5f80fd5b5f819050919050565b61144681611434565b8114611450575f80fd5b50565b5f813590506114618161143d565b92915050565b5f6020828403121561147c5761147b61142c565b5b5f61148984828501611453565b91505092915050565b5f73ffffffffffffffffffffffffffffffffffffffff82169050919050565b5f6114bb82611492565b9050919050565b6114cb816114b1565b82525050565b5f6020820190506114e45f8301846114c2565b92915050565b6114f3816114b1565b81146114fd575f80fd5b50565b5f8135905061150e816114ea565b92915050565b5f602082840312156115295761152861142c565b5b5f61153684828501611500565b91505092915050565b5f8115159050919050565b6115538161153f565b82525050565b5f60208201905061156c5f83018461154a565b92915050565b61157b81611434565b82525050565b5f6020820190506115945f830184611572565b92915050565b5f81519050919050565b5f82825260208201905092915050565b5f5b838110156115d15780820151818401526020810190506115b6565b5f8484015250505050565b5f601f19601f8301169050919050565b5f6115f68261159a565b61160081856115a4565b93506116108185602086016115b4565b611619816115dc565b840191505092915050565b5f6080820190506116375f8301876114c2565b6116446020830186611572565b818103604083015261165681856115ec565b9050611665606083018461154a565b95945050505050565b5f80604083850312156116845761168361142c565b5b5f61169185828601611453565b92505060206116a285828601611500565b9150509250929050565b5f80fd5b5f80fd5b5f80fd5b5f8083601f8401126116cd576116cc6116ac565b5b8235905067ffffffffffffffff8111156116ea576116e96116b0565b5b602083019150836001820283011115611706576117056116b4565b5b9250929050565b5f805f80606085870312156117255761172461142c565b5b5f61173287828801611500565b945050602061174387828801611453565b935050604085013567ffffffffffffffff81111561176457611763611430565b5b611770878288016116b8565b925092505092959194509250565b5f82825260208201905092915050565b7f4e6f7420616e206f776e657200000000000000000000000000000000000000005f82015250565b5f6117c2600c8361177e565b91506117cd8261178e565b602082019050919050565b5f6020820190508181035f8301526117ef816117b6565b9050919050565b7f4f776e657220646f6573206e6f742065786973740000000000000000000000005f82015250565b5f61182a60148361177e565b9150611835826117f6565b602082019050919050565b5f6020820190508181035f8301526118578161181e565b9050919050565b7f4e487b71000000000000000000000000000000000000000000000000000000005f52603260045260245ffd5b7f4e487b71000000000000000000000000000000000000000000000000000000005f52601160045260245ffd5b5f6118c282611434565b91506118cd83611434565b92508282039050818111156118e5576118e461188b565b5b92915050565b7f4e487b71000000000000000000000000000000000000000000000000000000005f52603160045260245ffd5b7f5472616e73616374696f6e20646f6573206e6f742065786973740000000000005f82015250565b5f61194c601a8361177e565b915061195782611918565b602082019050919050565b5f6020820190508181035f83015261197981611940565b9050919050565b7f5472616e73616374696f6e20616c7265616479206578656375746564000000005f82015250565b5f6119b4601c8361177e565b91506119bf82611980565b602082019050919050565b5f6020820190508181035f8301526119e1816119a8565b9050919050565b7f5472616e73616374696f6e20616c726561647920617070726f766564206279205f8201527f74686973206f776e657200000000000000000000000000000000000000000000602082015250565b5f611a42602a8361177e565b9150611a4d826119e8565b604082019050919050565b5f6020820190508181035f830152611a6f81611a36565b9050919050565b7f496e76616c6964206f776e6572206164647265737300000000000000000000005f82015250565b5f611aaa60158361177e565b9150611ab582611a76565b602082019050919050565b5f6020820190508181035f830152611ad781611a9e565b9050919050565b7f4f776e657220616c7265616479206578697374730000000000000000000000005f82015250565b5f611b1260148361177e565b9150611b1d82611ade565b602082019050919050565b5f6020820190508181035f830152611b3f81611b06565b9050919050565b7f4e487b71000000000000000000000000000000000000000000000000000000005f52602260045260245ffd5b5f6002820490506001821680611b8a57607f821691505b602082108103611b9d57611b9c611b46565b5b50919050565b5f611bad82611434565b91507fffffffffffffffffffffffffffffffffffffffffffffffffffffffffffffffff8203611bdf57611bde61188b565b5b600182019050919050565b7f496e76616c69642064657374696e6174696f6e206164647265737300000000005f82015250565b5f611c1e601b8361177e565b9150611c2982611bea565b602082019050919050565b5f6020820190508181035f830152611c4b81611c12565b9050919050565b7f4e487b71000000000000000000000000000000000000000000000000000000005f52604160045260245ffd5b5f819050815f5260205f209050919050565b5f6020601f8301049050919050565b5f82821b905092915050565b5f60088302611cdb7fffffffffffffffffffffffffffffffffffffffffffffffffffffffffffffffff82611ca0565b611ce58683611ca0565b95508019841693508086168417925050509392505050565b5f819050919050565b5f611d20611d1b611d1684611434565b611cfd565b611434565b9050919050565b5f819050919050565b611d3983611d06565b611d4d611d4582611d27565b848454611cac565b825550505050565b5f90565b611d61611d55565b611d6c818484611d30565b505050565b5b81811015611d8f57611d845f82611d59565b600181019050611d72565b5050565b601f821115611dd457611da581611c7f565b611dae84611c91565b81016020851015611dbd578190505b611dd1611dc985611c91565b830182611d71565b50505b505050565b5f82821c905092915050565b5f611df45f1984600802611dd9565b1980831691505092915050565b5f611e0c8383611de5565b9150826002028217905092915050565b611e258261159a565b67ffffffffffffffff811115611e3e57611e3d611c52565b5b611e488254611b73565b611e53828285611d93565b5f60209050601f831160018114611e84575f8415611e72578287015190505b611e7c8582611e01565b865550611ee3565b601f198416611e9286611c7f565b5f5b82811015611eb957848901518255600182019150602085019450602081019050611e94565b86831015611ed65784890151611ed2601f891682611de5565b8355505b6001600288020188555050505b505050505050565b828183375f83830152505050565b5f611f0483856115a4565b9350611f11838584611eeb565b611f1a836115dc565b840190509392505050565b5f604082019050611f385f830186611572565b8181036020830152611f4b818486611ef9565b9050949350505050565b7f4e6f7420656e6f75676820617070726f76616c730000000000000000000000005f82015250565b5f611f8960148361177e565b9150611f9482611f55565b602082019050919050565b5f6020820190508181035f830152611fb681611f7d565b9050919050565b5f81905092915050565b5f8154611fd381611b73565b611fdd8186611fbd565b9450600182165f8114611ff7576001811461200c5761203e565b60ff198316865281151582028601935061203e565b61201585611c7f565b5f5b8381101561203657815481890152600182019150602081019050612017565b838801955050505b50505092915050565b5f6120528284611fc7565b915081905092915050565b7f5472616e73616374696f6e20657865637574696f6e206661696c6564000000005f82015250565b5f612091601c8361177e565b915061209c8261205d565b602082019050919050565b5f6020820190508181035f8301526120be81612085565b905091905056fea26469706673582212201b434d977dffd62bbeed0029e8571a37b52578ddd4b407dae3fc5b6f0e75f2e564736f6c63430008170033",
					"opcodes": "PUSH1 0x80 PUSH1 0x40 MSTORE CALLVALUE DUP1 ISZERO PUSH3 0x10 JUMPI PUSH0 DUP1 REVERT JUMPDEST POP PUSH1 0x40 MLOAD PUSH3 0x28AD CODESIZE SUB DUP1 PUSH3 0x28AD DUP4 CODECOPY DUP2 DUP2 ADD PUSH1 0x40 MSTORE DUP2 ADD SWAP1 PUSH3 0x36 SWAP2 SWAP1 PUSH3 0x525 JUMP JUMPDEST PUSH0 DUP3 MLOAD GT PUSH3 0x7C JUMPI PUSH1 0x40 MLOAD PUSH32 0x8C379A000000000000000000000000000000000000000000000000000000000 DUP2 MSTORE PUSH1 0x4 ADD PUSH3 0x73 SWAP1 PUSH3 0x5E7 JUMP JUMPDEST PUSH1 0x40 MLOAD DUP1 SWAP2 SUB SWAP1 REVERT JUMPDEST PUSH0 DUP2 GT DUP1 ISZERO PUSH3 0x8D JUMPI POP DUP2 MLOAD DUP2 GT ISZERO JUMPDEST PUSH3 0xCF JUMPI PUSH1 0x40 MLOAD PUSH32 0x8C379A000000000000000000000000000000000000000000000000000000000 DUP2 MSTORE PUSH1 0x4 ADD PUSH3 0xC6 SWAP1 PUSH3 0x67B JUMP JUMPDEST PUSH1 0x40 MLOAD DUP1 SWAP2 SUB SWAP1 REVERT JUMPDEST PUSH0 JUMPDEST DUP3 MLOAD DUP2 LT ISZERO PUSH3 0x2FF JUMPI PUSH0 DUP4 DUP3 DUP2 MLOAD DUP2 LT PUSH3 0xF2 JUMPI PUSH3 0xF1 PUSH3 0x69B JUMP JUMPDEST JUMPDEST PUSH1 0x20 MUL PUSH1 0x20 ADD ADD MLOAD SWAP1 POP PUSH0 PUSH20 0xFFFFFFFFFFFFFFFFFFFFFFFFFFFFFFFFFFFFFFFF AND DUP2 PUSH20 0xFFFFFFFFFFFFFFFFFFFFFFFFFFFFFFFFFFFFFFFF AND SUB PUSH3 0x16D JUMPI PUSH1 0x40 MLOAD PUSH32 0x8C379A000000000000000000000000000000000000000000000000000000000 DUP2 MSTORE PUSH1 0x4 ADD PUSH3 0x164 SWAP1 PUSH3 0x716 JUMP JUMPDEST PUSH1 0x40 MLOAD DUP1 SWAP2 SUB SWAP1 REVERT JUMPDEST PUSH1 0x1 PUSH0 DUP3 PUSH20 0xFFFFFFFFFFFFFFFFFFFFFFFFFFFFFFFFFFFFFFFF AND PUSH20 0xFFFFFFFFFFFFFFFFFFFFFFFFFFFFFFFFFFFFFFFF AND DUP2 MSTORE PUSH1 0x20 ADD SWAP1 DUP2 MSTORE PUSH1 0x20 ADD PUSH0 KECCAK256 PUSH0 SWAP1 SLOAD SWAP1 PUSH2 0x100 EXP SWAP1 DIV PUSH1 0xFF AND ISZERO PUSH3 0x1FA JUMPI PUSH1 0x40 MLOAD PUSH32 0x8C379A000000000000000000000000000000000000000000000000000000000 DUP2 MSTORE PUSH1 0x4 ADD PUSH3 0x1F1 SWAP1 PUSH3 0x784 JUMP JUMPDEST PUSH1 0x40 MLOAD DUP1 SWAP2 SUB SWAP1 REVERT JUMPDEST PUSH0 DUP2 SWAP1 DUP1 PUSH1 0x1 DUP2 SLOAD ADD DUP1 DUP3 SSTORE DUP1 SWAP2 POP POP PUSH1 0x1 SWAP1 SUB SWAP1 PUSH0 MSTORE PUSH1 0x20 PUSH0 KECCAK256 ADD PUSH0 SWAP1 SWAP2 SWAP1 SWAP2 SWAP1 SWAP2 PUSH2 0x100 EXP DUP2 SLOAD DUP2 PUSH20 0xFFFFFFFFFFFFFFFFFFFFFFFFFFFFFFFFFFFFFFFF MUL NOT AND SWAP1 DUP4 PUSH20 0xFFFFFFFFFFFFFFFFFFFFFFFFFFFFFFFFFFFFFFFF AND MUL OR SWAP1 SSTORE POP PUSH1 0x1 DUP1 PUSH0 DUP4 PUSH20 0xFFFFFFFFFFFFFFFFFFFFFFFFFFFFFFFFFFFFFFFF AND PUSH20 0xFFFFFFFFFFFFFFFFFFFFFFFFFFFFFFFFFFFFFFFF AND DUP2 MSTORE PUSH1 0x20 ADD SWAP1 DUP2 MSTORE PUSH1 0x20 ADD PUSH0 KECCAK256 PUSH0 PUSH2 0x100 EXP DUP2 SLOAD DUP2 PUSH1 0xFF MUL NOT AND SWAP1 DUP4 ISZERO ISZERO MUL OR SWAP1 SSTORE POP DUP1 PUSH20 0xFFFFFFFFFFFFFFFFFFFFFFFFFFFFFFFFFFFFFFFF AND PUSH32 0xB4CD6C6140E1DB788F68710738B06EF4D0DF6A884A06A088433A4C2F5E036E7C PUSH1 0x40 MLOAD PUSH1 0x40 MLOAD DUP1 SWAP2 SUB SWAP1 LOG2 POP DUP1 DUP1 PUSH1 0x1 ADD SWAP2 POP POP PUSH3 0xD1 JUMP JUMPDEST POP DUP1 PUSH1 0x2 DUP2 SWAP1 SSTORE POP POP POP PUSH3 0x7A4 JUMP JUMPDEST PUSH0 PUSH1 0x40 MLOAD SWAP1 POP SWAP1 JUMP JUMPDEST PUSH0 DUP1 REVERT JUMPDEST PUSH0 DUP1 REVERT JUMPDEST PUSH0 DUP1 REVERT JUMPDEST PUSH0 PUSH1 0x1F NOT PUSH1 0x1F DUP4 ADD AND SWAP1 POP SWAP2 SWAP1 POP JUMP JUMPDEST PUSH32 0x4E487B7100000000000000000000000000000000000000000000000000000000 PUSH0 MSTORE PUSH1 0x41 PUSH1 0x4 MSTORE PUSH1 0x24 PUSH0 REVERT JUMPDEST PUSH3 0x36C DUP3 PUSH3 0x324 JUMP JUMPDEST DUP2 ADD DUP2 DUP2 LT PUSH8 0xFFFFFFFFFFFFFFFF DUP3 GT OR ISZERO PUSH3 0x38E JUMPI PUSH3 0x38D PUSH3 0x334 JUMP JUMPDEST JUMPDEST DUP1 PUSH1 0x40 MSTORE POP POP POP JUMP JUMPDEST PUSH0 PUSH3 0x3A2 PUSH3 0x30F JUMP JUMPDEST SWAP1 POP PUSH3 0x3B0 DUP3 DUP3 PUSH3 0x361 JUMP JUMPDEST SWAP2 SWAP1 POP JUMP JUMPDEST PUSH0 PUSH8 0xFFFFFFFFFFFFFFFF DUP3 GT ISZERO PUSH3 0x3D2 JUMPI PUSH3 0x3D1 PUSH3 0x334 JUMP JUMPDEST JUMPDEST PUSH1 0x20 DUP3 MUL SWAP1 POP PUSH1 0x20 DUP2 ADD SWAP1 POP SWAP2 SWAP1 POP JUMP JUMPDEST PUSH0 DUP1 REVERT JUMPDEST PUSH0 PUSH20 0xFFFFFFFFFFFFFFFFFFFFFFFFFFFFFFFFFFFFFFFF DUP3 AND SWAP1 POP SWAP2 SWAP1 POP JUMP JUMPDEST PUSH0 PUSH3 0x412 DUP3 PUSH3 0x3E7 JUMP JUMPDEST SWAP1 POP SWAP2 SWAP1 POP JUMP JUMPDEST PUSH3 0x424 DUP2 PUSH3 0x406 JUMP JUMPDEST DUP2 EQ PUSH3 0x42F JUMPI PUSH0 DUP1 REVERT JUMPDEST POP JUMP JUMPDEST PUSH0 DUP2 MLOAD SWAP1 POP PUSH3 0x442 DUP2 PUSH3 0x419 JUMP JUMPDEST SWAP3 SWAP2 POP POP JUMP JUMPDEST PUSH0 PUSH3 0x45E PUSH3 0x458 DUP5 PUSH3 0x3B5 JUMP JUMPDEST PUSH3 0x397 JUMP JUMPDEST SWAP1 POP DUP1 DUP4 DUP3 MSTORE PUSH1 0x20 DUP3 ADD SWAP1 POP PUSH1 0x20 DUP5 MUL DUP4 ADD DUP6 DUP2 GT ISZERO PUSH3 0x484 JUMPI PUSH3 0x483 PUSH3 0x3E3 JUMP JUMPDEST JUMPDEST DUP4 JUMPDEST DUP2 DUP2 LT ISZERO PUSH3 0x4B1 JUMPI DUP1 PUSH3 0x49C DUP9 DUP3 PUSH3 0x432 JUMP JUMPDEST DUP5 MSTORE PUSH1 0x20 DUP5 ADD SWAP4 POP POP PUSH1 0x20 DUP2 ADD SWAP1 POP PUSH3 0x486 JUMP JUMPDEST POP POP POP SWAP4 SWAP3 POP POP POP JUMP JUMPDEST PUSH0 DUP3 PUSH1 0x1F DUP4 ADD SLT PUSH3 0x4D2 JUMPI PUSH3 0x4D1 PUSH3 0x320 JUMP JUMPDEST JUMPDEST DUP2 MLOAD PUSH3 0x4E4 DUP5 DUP3 PUSH1 0x20 DUP7 ADD PUSH3 0x448 JUMP JUMPDEST SWAP2 POP POP SWAP3 SWAP2 POP POP JUMP JUMPDEST PUSH0 DUP2 SWAP1 POP SWAP2 SWAP1 POP JUMP JUMPDEST PUSH3 0x501 DUP2 PUSH3 0x4ED JUMP JUMPDEST DUP2 EQ PUSH3 0x50C JUMPI PUSH0 DUP1 REVERT JUMPDEST POP JUMP JUMPDEST PUSH0 DUP2 MLOAD SWAP1 POP PUSH3 0x51F DUP2 PUSH3 0x4F6 JUMP JUMPDEST SWAP3 SWAP2 POP POP JUMP JUMPDEST PUSH0 DUP1 PUSH1 0x40 DUP4 DUP6 SUB SLT ISZERO PUSH3 0x53E JUMPI PUSH3 0x53D PUSH3 0x318 JUMP JUMPDEST JUMPDEST PUSH0 DUP4 ADD MLOAD PUSH8 0xFFFFFFFFFFFFFFFF DUP2 GT ISZERO PUSH3 0x55E JUMPI PUSH3 0x55D PUSH3 0x31C JUMP JUMPDEST JUMPDEST PUSH3 0x56C DUP6 DUP3 DUP7 ADD PUSH3 0x4BB JUMP JUMPDEST SWAP3 POP POP PUSH1 0x20 PUSH3 0x57F DUP6 DUP3 DUP7 ADD PUSH3 0x50F JUMP JUMPDEST SWAP2 POP POP SWAP3 POP SWAP3 SWAP1 POP JUMP JUMPDEST PUSH0 DUP3 DUP3 MSTORE PUSH1 0x20 DUP3 ADD SWAP1 POP SWAP3 SWAP2 POP POP JUMP JUMPDEST PUSH32 0x4F776E657273206C6973742063616E6E6F7420626520656D7074790000000000 PUSH0 DUP3 ADD MSTORE POP JUMP JUMPDEST PUSH0 PUSH3 0x5CF PUSH1 0x1B DUP4 PUSH3 0x589 JUMP JUMPDEST SWAP2 POP PUSH3 0x5DC DUP3 PUSH3 0x599 JUMP JUMPDEST PUSH1 0x20 DUP3 ADD SWAP1 POP SWAP2 SWAP1 POP JUMP JUMPDEST PUSH0 PUSH1 0x20 DUP3 ADD SWAP1 POP DUP2 DUP2 SUB PUSH0 DUP4 ADD MSTORE PUSH3 0x600 DUP2 PUSH3 0x5C1 JUMP JUMPDEST SWAP1 POP SWAP2 SWAP1 POP JUMP JUMPDEST PUSH32 0x496E76616C6964206E756D626572206F6620726571756972656420617070726F PUSH0 DUP3 ADD MSTORE PUSH32 0x76616C7300000000000000000000000000000000000000000000000000000000 PUSH1 0x20 DUP3 ADD MSTORE POP JUMP JUMPDEST PUSH0 PUSH3 0x663 PUSH1 0x24 DUP4 PUSH3 0x589 JUMP JUMPDEST SWAP2 POP PUSH3 0x670 DUP3 PUSH3 0x607 JUMP JUMPDEST PUSH1 0x40 DUP3 ADD SWAP1 POP SWAP2 SWAP1 POP JUMP JUMPDEST PUSH0 PUSH1 0x20 DUP3 ADD SWAP1 POP DUP2 DUP2 SUB PUSH0 DUP4 ADD MSTORE PUSH3 0x694 DUP2 PUSH3 0x655 JUMP JUMPDEST SWAP1 POP SWAP2 SWAP1 POP JUMP JUMPDEST PUSH32 0x4E487B7100000000000000000000000000000000000000000000000000000000 PUSH0 MSTORE PUSH1 0x32 PUSH1 0x4 MSTORE PUSH1 0x24 PUSH0 REVERT JUMPDEST PUSH32 0x496E76616C6964206F776E657220616464726573730000000000000000000000 PUSH0 DUP3 ADD MSTORE POP JUMP JUMPDEST PUSH0 PUSH3 0x6FE PUSH1 0x15 DUP4 PUSH3 0x589 JUMP JUMPDEST SWAP2 POP PUSH3 0x70B DUP3 PUSH3 0x6C8 JUMP JUMPDEST PUSH1 0x20 DUP3 ADD SWAP1 POP SWAP2 SWAP1 POP JUMP JUMPDEST PUSH0 PUSH1 0x20 DUP3 ADD SWAP1 POP DUP2 DUP2 SUB PUSH0 DUP4 ADD MSTORE PUSH3 0x72F DUP2 PUSH3 0x6F0 JUMP JUMPDEST SWAP1 POP SWAP2 SWAP1 POP JUMP JUMPDEST PUSH32 0x4475706C6963617465206F776E65722061646472657373000000000000000000 PUSH0 DUP3 ADD MSTORE POP JUMP JUMPDEST PUSH0 PUSH3 0x76C PUSH1 0x17 DUP4 PUSH3 0x589 JUMP JUMPDEST SWAP2 POP PUSH3 0x779 DUP3 PUSH3 0x736 JUMP JUMPDEST PUSH1 0x20 DUP3 ADD SWAP1 POP SWAP2 SWAP1 POP JUMP JUMPDEST PUSH0 PUSH1 0x20 DUP3 ADD SWAP1 POP DUP2 DUP2 SUB PUSH0 DUP4 ADD MSTORE PUSH3 0x79D DUP2 PUSH3 0x75E JUMP JUMPDEST SWAP1 POP SWAP2 SWAP1 POP JUMP JUMPDEST PUSH2 0x20FB DUP1 PUSH3 0x7B2 PUSH0 CODECOPY PUSH0 RETURN INVALID PUSH1 0x80 PUSH1 0x40 MSTORE CALLVALUE DUP1 ISZERO PUSH2 0xF JUMPI PUSH0 DUP1 REVERT JUMPDEST POP PUSH1 0x4 CALLDATASIZE LT PUSH2 0xA7 JUMPI PUSH0 CALLDATALOAD PUSH1 0xE0 SHR DUP1 PUSH4 0x7065CB48 GT PUSH2 0x6F JUMPI DUP1 PUSH4 0x7065CB48 EQ PUSH2 0x15F JUMPI DUP1 PUSH4 0x99C1AADC EQ PUSH2 0x17B JUMPI DUP1 PUSH4 0x9ACE38C2 EQ PUSH2 0x199 JUMPI DUP1 PUSH4 0xAB2850DA EQ PUSH2 0x1CC JUMPI DUP1 PUSH4 0xBA7E7CAB EQ PUSH2 0x1FC JUMPI DUP1 PUSH4 0xC6427474 EQ PUSH2 0x22C JUMPI PUSH2 0xA7 JUMP JUMPDEST DUP1 PUSH4 0x25E7C27 EQ PUSH2 0xAB JUMPI DUP1 PUSH4 0x173825D9 EQ PUSH2 0xDB JUMPI DUP1 PUSH4 0x242232D1 EQ PUSH2 0xF7 JUMPI DUP1 PUSH4 0x2F54BF6E EQ PUSH2 0x113 JUMPI DUP1 PUSH4 0x3380C0D8 EQ PUSH2 0x143 JUMPI JUMPDEST PUSH0 DUP1 REVERT JUMPDEST PUSH2 0xC5 PUSH1 0x4 DUP1 CALLDATASIZE SUB DUP2 ADD SWAP1 PUSH2 0xC0 SWAP2 SWAP1 PUSH2 0x1467 JUMP JUMPDEST PUSH2 0x248 JUMP JUMPDEST PUSH1 0x40 MLOAD PUSH2 0xD2 SWAP2 SWAP1 PUSH2 0x14D1 JUMP JUMPDEST PUSH1 0x40 MLOAD DUP1 SWAP2 SUB SWAP1 RETURN JUMPDEST PUSH2 0xF5 PUSH1 0x4 DUP1 CALLDATASIZE SUB DUP2 ADD SWAP1 PUSH2 0xF0 SWAP2 SWAP1 PUSH2 0x1514 JUMP JUMPDEST PUSH2 0x282 JUMP JUMPDEST STOP JUMPDEST PUSH2 0x111 PUSH1 0x4 DUP1 CALLDATASIZE SUB DUP2 ADD SWAP1 PUSH2 0x10C SWAP2 SWAP1 PUSH2 0x1467 JUMP JUMPDEST PUSH2 0x5A2 JUMP JUMPDEST STOP JUMPDEST PUSH2 0x12D PUSH1 0x4 DUP1 CALLDATASIZE SUB DUP2 ADD SWAP1 PUSH2 0x128 SWAP2 SWAP1 PUSH2 0x1514 JUMP JUMPDEST PUSH2 0x8FE JUMP JUMPDEST PUSH1 0x40 MLOAD PUSH2 0x13A SWAP2 SWAP1 PUSH2 0x1559 JUMP JUMPDEST PUSH1 0x40 MLOAD DUP1 SWAP2 SUB SWAP1 RETURN JUMPDEST PUSH2 0x15D PUSH1 0x4 DUP1 CALLDATASIZE SUB DUP2 ADD SWAP1 PUSH2 0x158 SWAP2 SWAP1 PUSH2 0x1467 JUMP JUMPDEST PUSH2 0x91B JUMP JUMPDEST STOP JUMPDEST PUSH2 0x179 PUSH1 0x4 DUP1 CALLDATASIZE SUB DUP2 ADD SWAP1 PUSH2 0x174 SWAP2 SWAP1 PUSH2 0x1514 JUMP JUMPDEST PUSH2 0xACA JUMP JUMPDEST STOP JUMPDEST PUSH2 0x183 PUSH2 0xD44 JUMP JUMPDEST PUSH1 0x40 MLOAD PUSH2 0x190 SWAP2 SWAP1 PUSH2 0x1581 JUMP JUMPDEST PUSH1 0x40 MLOAD DUP1 SWAP2 SUB SWAP1 RETURN JUMPDEST PUSH2 0x1B3 PUSH1 0x4 DUP1 CALLDATASIZE SUB DUP2 ADD SWAP1 PUSH2 0x1AE SWAP2 SWAP1 PUSH2 0x1467 JUMP JUMPDEST PUSH2 0xD4A JUMP JUMPDEST PUSH1 0x40 MLOAD PUSH2 0x1C3 SWAP5 SWAP4 SWAP3 SWAP2 SWAP1 PUSH2 0x1624 JUMP JUMPDEST PUSH1 0x40 MLOAD DUP1 SWAP2 SUB SWAP1 RETURN JUMPDEST PUSH2 0x1E6 PUSH1 0x4 DUP1 CALLDATASIZE SUB DUP2 ADD SWAP1 PUSH2 0x1E1 SWAP2 SWAP1 PUSH2 0x166E JUMP JUMPDEST PUSH2 0xE36 JUMP JUMPDEST PUSH1 0x40 MLOAD PUSH2 0x1F3 SWAP2 SWAP1 PUSH2 0x1559 JUMP JUMPDEST PUSH1 0x40 MLOAD DUP1 SWAP2 SUB SWAP1 RETURN JUMPDEST PUSH2 0x216 PUSH1 0x4 DUP1 CALLDATASIZE SUB DUP2 ADD SWAP1 PUSH2 0x211 SWAP2 SWAP1 PUSH2 0x1467 JUMP JUMPDEST PUSH2 0xE60 JUMP JUMPDEST PUSH1 0x40 MLOAD PUSH2 0x223 SWAP2 SWAP1 PUSH2 0x1581 JUMP JUMPDEST PUSH1 0x40 MLOAD DUP1 SWAP2 SUB SWAP1 RETURN JUMPDEST PUSH2 0x246 PUSH1 0x4 DUP1 CALLDATASIZE SUB DUP2 ADD SWAP1 PUSH2 0x241 SWAP2 SWAP1 PUSH2 0x170D JUMP JUMPDEST PUSH2 0xF31 JUMP JUMPDEST STOP JUMPDEST PUSH0 DUP2 DUP2 SLOAD DUP2 LT PUSH2 0x256 JUMPI PUSH0 DUP1 REVERT JUMPDEST SWAP1 PUSH0 MSTORE PUSH1 0x20 PUSH0 KECCAK256 ADD PUSH0 SWAP2 POP SLOAD SWAP1 PUSH2 0x100 EXP SWAP1 DIV PUSH20 0xFFFFFFFFFFFFFFFFFFFFFFFFFFFFFFFFFFFFFFFF AND DUP2 JUMP JUMPDEST PUSH1 0x1 PUSH0 CALLER PUSH20 0xFFFFFFFFFFFFFFFFFFFFFFFFFFFFFFFFFFFFFFFF AND PUSH20 0xFFFFFFFFFFFFFFFFFFFFFFFFFFFFFFFFFFFFFFFF AND DUP2 MSTORE PUSH1 0x20 ADD SWAP1 DUP2 MSTORE PUSH1 0x20 ADD PUSH0 KECCAK256 PUSH0 SWAP1 SLOAD SWAP1 PUSH2 0x100 EXP SWAP1 DIV PUSH1 0xFF AND PUSH2 0x30B JUMPI PUSH1 0x40 MLOAD PUSH32 0x8C379A000000000000000000000000000000000000000000000000000000000 DUP2 MSTORE PUSH1 0x4 ADD PUSH2 0x302 SWAP1 PUSH2 0x17D8 JUMP JUMPDEST PUSH1 0x40 MLOAD DUP1 SWAP2 SUB SWAP1 REVERT JUMPDEST PUSH1 0x1 PUSH0 DUP3 PUSH20 0xFFFFFFFFFFFFFFFFFFFFFFFFFFFFFFFFFFFFFFFF AND PUSH20 0xFFFFFFFFFFFFFFFFFFFFFFFFFFFFFFFFFFFFFFFF AND DUP2 MSTORE PUSH1 0x20 ADD SWAP1 DUP2 MSTORE PUSH1 0x20 ADD PUSH0 KECCAK256 PUSH0 SWAP1 SLOAD SWAP1 PUSH2 0x100 EXP SWAP1 DIV PUSH1 0xFF AND PUSH2 0x394 JUMPI PUSH1 0x40 MLOAD PUSH32 0x8C379A000000000000000000000000000000000000000000000000000000000 DUP2 MSTORE PUSH1 0x4 ADD PUSH2 0x38B SWAP1 PUSH2 0x1840 JUMP JUMPDEST PUSH1 0x40 MLOAD DUP1 SWAP2 SUB SWAP1 REVERT JUMPDEST PUSH0 PUSH1 0x1 PUSH0 DUP4 PUSH20 0xFFFFFFFFFFFFFFFFFFFFFFFFFFFFFFFFFFFFFFFF AND PUSH20 0xFFFFFFFFFFFFFFFFFFFFFFFFFFFFFFFFFFFFFFFF AND DUP2 MSTORE PUSH1 0x20 ADD SWAP1 DUP2 MSTORE PUSH1 0x20 ADD PUSH0 KECCAK256 PUSH0 PUSH2 0x100 EXP DUP2 SLOAD DUP2 PUSH1 0xFF MUL NOT AND SWAP1 DUP4 ISZERO ISZERO MUL OR SWAP1 SSTORE POP PUSH0 JUMPDEST PUSH0 DUP1 SLOAD SWAP1 POP DUP2 LT ISZERO PUSH2 0x55B JUMPI DUP2 PUSH20 0xFFFFFFFFFFFFFFFFFFFFFFFFFFFFFFFFFFFFFFFF AND PUSH0 DUP3 DUP2 SLOAD DUP2 LT PUSH2 0x420 JUMPI PUSH2 0x41F PUSH2 0x185E JUMP JUMPDEST JUMPDEST SWAP1 PUSH0 MSTORE PUSH1 0x20 PUSH0 KECCAK256 ADD PUSH0 SWAP1 SLOAD SWAP1 PUSH2 0x100 EXP SWAP1 DIV PUSH20 0xFFFFFFFFFFFFFFFFFFFFFFFFFFFFFFFFFFFFFFFF AND PUSH20 0xFFFFFFFFFFFFFFFFFFFFFFFFFFFFFFFFFFFFFFFF AND SUB PUSH2 0x54E JUMPI PUSH0 PUSH1 0x1 PUSH0 DUP1 SLOAD SWAP1 POP PUSH2 0x475 SWAP2 SWAP1 PUSH2 0x18B8 JUMP JUMPDEST DUP2 SLOAD DUP2 LT PUSH2 0x486 JUMPI PUSH2 0x485 PUSH2 0x185E JUMP JUMPDEST JUMPDEST SWAP1 PUSH0 MSTORE PUSH1 0x20 PUSH0 KECCAK256 ADD PUSH0 SWAP1 SLOAD SWAP1 PUSH2 0x100 EXP SWAP1 DIV PUSH20 0xFFFFFFFFFFFFFFFFFFFFFFFFFFFFFFFFFFFFFFFF AND PUSH0 DUP3 DUP2 SLOAD DUP2 LT PUSH2 0x4C1 JUMPI PUSH2 0x4C0 PUSH2 0x185E JUMP JUMPDEST JUMPDEST SWAP1 PUSH0 MSTORE PUSH1 0x20 PUSH0 KECCAK256 ADD PUSH0 PUSH2 0x100 EXP DUP2 SLOAD DUP2 PUSH20 0xFFFFFFFFFFFFFFFFFFFFFFFFFFFFFFFFFFFFFFFF MUL NOT AND SWAP1 DUP4 PUSH20 0xFFFFFFFFFFFFFFFFFFFFFFFFFFFFFFFFFFFFFFFF AND MUL OR SWAP1 SSTORE POP PUSH0 DUP1 SLOAD DUP1 PUSH2 0x517 JUMPI PUSH2 0x516 PUSH2 0x18EB JUMP JUMPDEST JUMPDEST PUSH1 0x1 SWAP1 SUB DUP2 DUP2 SWAP1 PUSH0 MSTORE PUSH1 0x20 PUSH0 KECCAK256 ADD PUSH0 PUSH2 0x100 EXP DUP2 SLOAD SWAP1 PUSH20 0xFFFFFFFFFFFFFFFFFFFFFFFFFFFFFFFFFFFFFFFF MUL NOT AND SWAP1 SSTORE SWAP1 SSTORE PUSH2 0x55B JUMP JUMPDEST DUP1 DUP1 PUSH1 0x1 ADD SWAP2 POP POP PUSH2 0x3EA JUMP JUMPDEST POP DUP1 PUSH20 0xFFFFFFFFFFFFFFFFFFFFFFFFFFFFFFFFFFFFFFFF AND PUSH32 0x86D076ECF250A6D90A67A7C75317F44709D5001395ECF1DF6D9DAD5278F1E681 PUSH1 0x40 MLOAD PUSH1 0x40 MLOAD DUP1 SWAP2 SUB SWAP1 LOG2 POP JUMP JUMPDEST PUSH1 0x1 PUSH0 CALLER PUSH20 0xFFFFFFFFFFFFFFFFFFFFFFFFFFFFFFFFFFFFFFFF AND PUSH20 0xFFFFFFFFFFFFFFFFFFFFFFFFFFFFFFFFFFFFFFFF AND DUP2 MSTORE PUSH1 0x20 ADD SWAP1 DUP2 MSTORE PUSH1 0x20 ADD PUSH0 KECCAK256 PUSH0 SWAP1 SLOAD SWAP1 PUSH2 0x100 EXP SWAP1 DIV PUSH1 0xFF AND PUSH2 0x62B JUMPI PUSH1 0x40 MLOAD PUSH32 0x8C379A000000000000000000000000000000000000000000000000000000000 DUP2 MSTORE PUSH1 0x4 ADD PUSH2 0x622 SWAP1 PUSH2 0x17D8 JUMP JUMPDEST PUSH1 0x40 MLOAD DUP1 SWAP2 SUB SWAP1 REVERT JUMPDEST DUP1 PUSH1 0x3 DUP1 SLOAD SWAP1 POP DUP2 LT PUSH2 0x673 JUMPI PUSH1 0x40 MLOAD PUSH32 0x8C379A000000000000000000000000000000000000000000000000000000000 DUP2 MSTORE PUSH1 0x4 ADD PUSH2 0x66A SWAP1 PUSH2 0x1962 JUMP JUMPDEST PUSH1 0x40 MLOAD DUP1 SWAP2 SUB SWAP1 REVERT JUMPDEST DUP2 PUSH1 0x3 DUP2 DUP2 SLOAD DUP2 LT PUSH2 0x688 JUMPI PUSH2 0x687 PUSH2 0x185E JUMP JUMPDEST JUMPDEST SWAP1 PUSH0 MSTORE PUSH1 0x20 PUSH0 KECCAK256 SWAP1 PUSH1 0x4 MUL ADD PUSH1 0x3 ADD PUSH0 SWAP1 SLOAD SWAP1 PUSH2 0x100 EXP SWAP1 DIV PUSH1 0xFF AND ISZERO PUSH2 0x6E4 JUMPI PUSH1 0x40 MLOAD PUSH32 0x8C379A000000000000000000000000000000000000000000000000000000000 DUP2 MSTORE PUSH1 0x4 ADD PUSH2 0x6DB SWAP1 PUSH2 0x19CA JUMP JUMPDEST PUSH1 0x40 MLOAD DUP1 SWAP2 SUB SWAP1 REVERT JUMPDEST DUP3 PUSH1 0x4 PUSH0 DUP3 DUP2 MSTORE PUSH1 0x20 ADD SWAP1 DUP2 MSTORE PUSH1 0x20 ADD PUSH0 KECCAK256 PUSH0 CALLER PUSH20 0xFFFFFFFFFFFFFFFFFFFFFFFFFFFFFFFFFFFFFFFF AND PUSH20 0xFFFFFFFFFFFFFFFFFFFFFFFFFFFFFFFFFFFFFFFF AND DUP2 MSTORE PUSH1 0x20 ADD SWAP1 DUP2 MSTORE PUSH1 0x20 ADD PUSH0 KECCAK256 PUSH0 SWAP1 SLOAD SWAP1 PUSH2 0x100 EXP SWAP1 DIV PUSH1 0xFF AND ISZERO PUSH2 0x77E JUMPI PUSH1 0x40 MLOAD PUSH32 0x8C379A000000000000000000000000000000000000000000000000000000000 DUP2 MSTORE PUSH1 0x4 ADD PUSH2 0x775 SWAP1 PUSH2 0x1A58 JUMP JUMPDEST PUSH1 0x40 MLOAD DUP1 SWAP2 SUB SWAP1 REVERT JUMPDEST PUSH1 0x3 DUP1 SLOAD SWAP1 POP DUP5 LT PUSH2 0x7C5 JUMPI PUSH1 0x40 MLOAD PUSH32 0x8C379A000000000000000000000000000000000000000000000000000000000 DUP2 MSTORE PUSH1 0x4 ADD PUSH2 0x7BC SWAP1 PUSH2 0x1962 JUMP JUMPDEST PUSH1 0x40 MLOAD DUP1 SWAP2 SUB SWAP1 REVERT JUMPDEST PUSH1 0x3 DUP5 DUP2 SLOAD DUP2 LT PUSH2 0x7D9 JUMPI PUSH2 0x7D8 PUSH2 0x185E JUMP JUMPDEST JUMPDEST SWAP1 PUSH0 MSTORE PUSH1 0x20 PUSH0 KECCAK256 SWAP1 PUSH1 0x4 MUL ADD PUSH1 0x3 ADD PUSH0 SWAP1 SLOAD SWAP1 PUSH2 0x100 EXP SWAP1 DIV PUSH1 0xFF AND ISZERO PUSH2 0x835 JUMPI PUSH1 0x40 MLOAD PUSH32 0x8C379A000000000000000000000000000000000000000000000000000000000 DUP2 MSTORE PUSH1 0x4 ADD PUSH2 0x82C SWAP1 PUSH2 0x19CA JUMP JUMPDEST PUSH1 0x40 MLOAD DUP1 SWAP2 SUB SWAP1 REVERT JUMPDEST PUSH1 0x1 PUSH1 0x4 PUSH0 DUP7 DUP2 MSTORE PUSH1 0x20 ADD SWAP1 DUP2 MSTORE PUSH1 0x20 ADD PUSH0 KECCAK256 PUSH0 CALLER PUSH20 0xFFFFFFFFFFFFFFFFFFFFFFFFFFFFFFFFFFFFFFFF AND PUSH20 0xFFFFFFFFFFFFFFFFFFFFFFFFFFFFFFFFFFFFFFFF AND DUP2 MSTORE PUSH1 0x20 ADD SWAP1 DUP2 MSTORE PUSH1 0x20 ADD PUSH0 KECCAK256 PUSH0 PUSH2 0x100 EXP DUP2 SLOAD DUP2 PUSH1 0xFF MUL NOT AND SWAP1 DUP4 ISZERO ISZERO MUL OR SWAP1 SSTORE POP CALLER PUSH20 0xFFFFFFFFFFFFFFFFFFFFFFFFFFFFFFFFFFFFFFFF AND DUP5 PUSH32 0x924813D717E221B5F46DCD8A56DA1679E4612584AB3237D55E5FAABF6F6A3079 PUSH1 0x40 MLOAD PUSH1 0x40 MLOAD DUP1 SWAP2 SUB SWAP1 LOG3 PUSH1 0x2 SLOAD PUSH2 0x8E9 DUP6 PUSH2 0xE60 JUMP JUMPDEST LT PUSH2 0x8F8 JUMPI PUSH2 0x8F7 DUP5 PUSH2 0x11B9 JUMP JUMPDEST JUMPDEST POP POP POP POP JUMP JUMPDEST PUSH1 0x1 PUSH1 0x20 MSTORE DUP1 PUSH0 MSTORE PUSH1 0x40 PUSH0 KECCAK256 PUSH0 SWAP2 POP SLOAD SWAP1 PUSH2 0x100 EXP SWAP1 DIV PUSH1 0xFF AND DUP2 JUMP JUMPDEST PUSH1 0x1 PUSH0 CALLER PUSH20 0xFFFFFFFFFFFFFFFFFFFFFFFFFFFFFFFFFFFFFFFF AND PUSH20 0xFFFFFFFFFFFFFFFFFFFFFFFFFFFFFFFFFFFFFFFF AND DUP2 MSTORE PUSH1 0x20 ADD SWAP1 DUP2 MSTORE PUSH1 0x20 ADD PUSH0 KECCAK256 PUSH0 SWAP1 SLOAD SWAP1 PUSH2 0x100 EXP SWAP1 DIV PUSH1 0xFF AND PUSH2 0x9A4 JUMPI PUSH1 0x40 MLOAD PUSH32 0x8C379A000000000000000000000000000000000000000000000000000000000 DUP2 MSTORE PUSH1 0x4 ADD PUSH2 0x99B SWAP1 PUSH2 0x17D8 JUMP JUMPDEST PUSH1 0x40 MLOAD DUP1 SWAP2 SUB SWAP1 REVERT JUMPDEST DUP1 PUSH1 0x3 DUP1 SLOAD SWAP1 POP DUP2 LT PUSH2 0x9EC JUMPI PUSH1 0x40 MLOAD PUSH32 0x8C379A000000000000000000000000000000000000000000000000000000000 DUP2 MSTORE PUSH1 0x4 ADD PUSH2 0x9E3 SWAP1 PUSH2 0x1962 JUMP JUMPDEST PUSH1 0x40 MLOAD DUP1 SWAP2 SUB SWAP1 REVERT JUMPDEST DUP2 PUSH1 0x3 DUP2 DUP2 SLOAD DUP2 LT PUSH2 0xA01 JUMPI PUSH2 0xA00 PUSH2 0x185E JUMP JUMPDEST JUMPDEST SWAP1 PUSH0 MSTORE PUSH1 0x20 PUSH0 KECCAK256 SWAP1 PUSH1 0x4 MUL ADD PUSH1 0x3 ADD PUSH0 SWAP1 SLOAD SWAP1 PUSH2 0x100 EXP SWAP1 DIV PUSH1 0xFF AND ISZERO PUSH2 0xA5D JUMPI PUSH1 0x40 MLOAD PUSH32 0x8C379A000000000000000000000000000000000000000000000000000000000 DUP2 MSTORE PUSH1 0x4 ADD PUSH2 0xA54 SWAP1 PUSH2 0x19CA JUMP JUMPDEST PUSH1 0x40 MLOAD DUP1 SWAP2 SUB SWAP1 REVERT JUMPDEST PUSH1 0x1 PUSH1 0x3 DUP5 DUP2 SLOAD DUP2 LT PUSH2 0xA73 JUMPI PUSH2 0xA72 PUSH2 0x185E JUMP JUMPDEST JUMPDEST SWAP1 PUSH0 MSTORE PUSH1 0x20 PUSH0 KECCAK256 SWAP1 PUSH1 0x4 MUL ADD PUSH1 0x3 ADD PUSH0 PUSH2 0x100 EXP DUP2 SLOAD DUP2 PUSH1 0xFF MUL NOT AND SWAP1 DUP4 ISZERO ISZERO MUL OR SWAP1 SSTORE POP DUP3 PUSH32 0x5059BFE288D11577563B32CA8457BDFD86D32DA708AF82367AF4EA6D9DBCAE5 PUSH1 0x40 MLOAD PUSH1 0x40 MLOAD DUP1 SWAP2 SUB SWAP1 LOG2 POP POP POP JUMP JUMPDEST PUSH1 0x1 PUSH0 CALLER PUSH20 0xFFFFFFFFFFFFFFFFFFFFFFFFFFFFFFFFFFFFFFFF AND PUSH20 0xFFFFFFFFFFFFFFFFFFFFFFFFFFFFFFFFFFFFFFFF AND DUP2 MSTORE PUSH1 0x20 ADD SWAP1 DUP2 MSTORE PUSH1 0x20 ADD PUSH0 KECCAK256 PUSH0 SWAP1 SLOAD SWAP1 PUSH2 0x100 EXP SWAP1 DIV PUSH1 0xFF AND PUSH2 0xB53 JUMPI PUSH1 0x40 MLOAD PUSH32 0x8C379A000000000000000000000000000000000000000000000000000000000 DUP2 MSTORE PUSH1 0x4 ADD PUSH2 0xB4A SWAP1 PUSH2 0x17D8 JUMP JUMPDEST PUSH1 0x40 MLOAD DUP1 SWAP2 SUB SWAP1 REVERT JUMPDEST PUSH0 PUSH20 0xFFFFFFFFFFFFFFFFFFFFFFFFFFFFFFFFFFFFFFFF AND DUP2 PUSH20 0xFFFFFFFFFFFFFFFFFFFFFFFFFFFFFFFFFFFFFFFF AND SUB PUSH2 0xBC1 JUMPI PUSH1 0x40 MLOAD PUSH32 0x8C379A000000000000000000000000000000000000000000000000000000000 DUP2 MSTORE PUSH1 0x4 ADD PUSH2 0xBB8 SWAP1 PUSH2 0x1AC0 JUMP JUMPDEST PUSH1 0x40 MLOAD DUP1 SWAP2 SUB SWAP1 REVERT JUMPDEST PUSH1 0x1 PUSH0 DUP3 PUSH20 0xFFFFFFFFFFFFFFFFFFFFFFFFFFFFFFFFFFFFFFFF AND PUSH20 0xFFFFFFFFFFFFFFFFFFFFFFFFFFFFFFFFFFFFFFFF AND DUP2 MSTORE PUSH1 0x20 ADD SWAP1 DUP2 MSTORE PUSH1 0x20 ADD PUSH0 KECCAK256 PUSH0 SWAP1 SLOAD SWAP1 PUSH2 0x100 EXP SWAP1 DIV PUSH1 0xFF AND ISZERO PUSH2 0xC4B JUMPI PUSH1 0x40 MLOAD PUSH32 0x8C379A000000000000000000000000000000000000000000000000000000000 DUP2 MSTORE PUSH1 0x4 ADD PUSH2 0xC42 SWAP1 PUSH2 0x1B28 JUMP JUMPDEST PUSH1 0x40 MLOAD DUP1 SWAP2 SUB SWAP1 REVERT JUMPDEST PUSH0 DUP2 SWAP1 DUP1 PUSH1 0x1 DUP2 SLOAD ADD DUP1 DUP3 SSTORE DUP1 SWAP2 POP POP PUSH1 0x1 SWAP1 SUB SWAP1 PUSH0 MSTORE PUSH1 0x20 PUSH0 KECCAK256 ADD PUSH0 SWAP1 SWAP2 SWAP1 SWAP2 SWAP1 SWAP2 PUSH2 0x100 EXP DUP2 SLOAD DUP2 PUSH20 0xFFFFFFFFFFFFFFFFFFFFFFFFFFFFFFFFFFFFFFFF MUL NOT AND SWAP1 DUP4 PUSH20 0xFFFFFFFFFFFFFFFFFFFFFFFFFFFFFFFFFFFFFFFF AND MUL OR SWAP1 SSTORE POP PUSH1 0x1 DUP1 PUSH0 DUP4 PUSH20 0xFFFFFFFFFFFFFFFFFFFFFFFFFFFFFFFFFFFFFFFF AND PUSH20 0xFFFFFFFFFFFFFFFFFFFFFFFFFFFFFFFFFFFFFFFF AND DUP2 MSTORE PUSH1 0x20 ADD SWAP1 DUP2 MSTORE PUSH1 0x20 ADD PUSH0 KECCAK256 PUSH0 PUSH2 0x100 EXP DUP2 SLOAD DUP2 PUSH1 0xFF MUL NOT AND SWAP1 DUP4 ISZERO ISZERO MUL OR SWAP1 SSTORE POP DUP1 PUSH20 0xFFFFFFFFFFFFFFFFFFFFFFFFFFFFFFFFFFFFFFFF AND PUSH32 0xB4CD6C6140E1DB788F68710738B06EF4D0DF6A884A06A088433A4C2F5E036E7C PUSH1 0x40 MLOAD PUSH1 0x40 MLOAD DUP1 SWAP2 SUB SWAP1 LOG2 POP JUMP JUMPDEST PUSH1 0x2 SLOAD DUP2 JUMP JUMPDEST PUSH1 0x3 DUP2 DUP2 SLOAD DUP2 LT PUSH2 0xD59 JUMPI PUSH0 DUP1 REVERT JUMPDEST SWAP1 PUSH0 MSTORE PUSH1 0x20 PUSH0 KECCAK256 SWAP1 PUSH1 0x4 MUL ADD PUSH0 SWAP2 POP SWAP1 POP DUP1 PUSH0 ADD PUSH0 SWAP1 SLOAD SWAP1 PUSH2 0x100 EXP SWAP1 DIV PUSH20 0xFFFFFFFFFFFFFFFFFFFFFFFFFFFFFFFFFFFFFFFF AND SWAP1 DUP1 PUSH1 0x1 ADD SLOAD SWAP1 DUP1 PUSH1 0x2 ADD DUP1 SLOAD PUSH2 0xDA3 SWAP1 PUSH2 0x1B73 JUMP JUMPDEST DUP1 PUSH1 0x1F ADD PUSH1 0x20 DUP1 SWAP2 DIV MUL PUSH1 0x20 ADD PUSH1 0x40 MLOAD SWAP1 DUP2 ADD PUSH1 0x40 MSTORE DUP1 SWAP3 SWAP2 SWAP1 DUP2 DUP2 MSTORE PUSH1 0x20 ADD DUP3 DUP1 SLOAD PUSH2 0xDCF SWAP1 PUSH2 0x1B73 JUMP JUMPDEST DUP1 ISZERO PUSH2 0xE1A JUMPI DUP1 PUSH1 0x1F LT PUSH2 0xDF1 JUMPI PUSH2 0x100 DUP1 DUP4 SLOAD DIV MUL DUP4 MSTORE SWAP2 PUSH1 0x20 ADD SWAP2 PUSH2 0xE1A JUMP JUMPDEST DUP3 ADD SWAP2 SWAP1 PUSH0 MSTORE PUSH1 0x20 PUSH0 KECCAK256 SWAP1 JUMPDEST DUP2 SLOAD DUP2 MSTORE SWAP1 PUSH1 0x1 ADD SWAP1 PUSH1 0x20 ADD DUP1 DUP4 GT PUSH2 0xDFD JUMPI DUP3 SWAP1 SUB PUSH1 0x1F AND DUP3 ADD SWAP2 JUMPDEST POP POP POP POP POP SWAP1 DUP1 PUSH1 0x3 ADD PUSH0 SWAP1 SLOAD SWAP1 PUSH2 0x100 EXP SWAP1 DIV PUSH1 0xFF AND SWAP1 POP DUP5 JUMP JUMPDEST PUSH1 0x4 PUSH1 0x20 MSTORE DUP2 PUSH0 MSTORE PUSH1 0x40 PUSH0 KECCAK256 PUSH1 0x20 MSTORE DUP1 PUSH0 MSTORE PUSH1 0x40 PUSH0 KECCAK256 PUSH0 SWAP2 POP SWAP2 POP SWAP1 SLOAD SWAP1 PUSH2 0x100 EXP SWAP1 DIV PUSH1 0xFF AND DUP2 JUMP JUMPDEST PUSH0 DUP1 PUSH0 SWAP1 POP PUSH0 JUMPDEST PUSH0 DUP1 SLOAD SWAP1 POP DUP2 LT ISZERO PUSH2 0xF27 JUMPI PUSH1 0x4 PUSH0 DUP6 DUP2 MSTORE PUSH1 0x20 ADD SWAP1 DUP2 MSTORE PUSH1 0x20 ADD PUSH0 KECCAK256 PUSH0 DUP1 DUP4 DUP2 SLOAD DUP2 LT PUSH2 0xE98 JUMPI PUSH2 0xE97 PUSH2 0x185E JUMP JUMPDEST JUMPDEST SWAP1 PUSH0 MSTORE PUSH1 0x20 PUSH0 KECCAK256 ADD PUSH0 SWAP1 SLOAD SWAP1 PUSH2 0x100 EXP SWAP1 DIV PUSH20 0xFFFFFFFFFFFFFFFFFFFFFFFFFFFFFFFFFFFFFFFF AND PUSH20 0xFFFFFFFFFFFFFFFFFFFFFFFFFFFFFFFFFFFFFFFF AND PUSH20 0xFFFFFFFFFFFFFFFFFFFFFFFFFFFFFFFFFFFFFFFF AND DUP2 MSTORE PUSH1 0x20 ADD SWAP1 DUP2 MSTORE PUSH1 0x20 ADD PUSH0 KECCAK256 PUSH0 SWAP1 SLOAD SWAP1 PUSH2 0x100 EXP SWAP1 DIV PUSH1 0xFF AND ISZERO PUSH2 0xF1A JUMPI DUP2 DUP1 PUSH2 0xF16 SWAP1 PUSH2 0x1BA3 JUMP JUMPDEST SWAP3 POP POP JUMPDEST DUP1 DUP1 PUSH1 0x1 ADD SWAP2 POP POP PUSH2 0xE67 JUMP JUMPDEST POP DUP1 SWAP2 POP POP SWAP2 SWAP1 POP JUMP JUMPDEST PUSH1 0x1 PUSH0 CALLER PUSH20 0xFFFFFFFFFFFFFFFFFFFFFFFFFFFFFFFFFFFFFFFF AND PUSH20 0xFFFFFFFFFFFFFFFFFFFFFFFFFFFFFFFFFFFFFFFF AND DUP2 MSTORE PUSH1 0x20 ADD SWAP1 DUP2 MSTORE PUSH1 0x20 ADD PUSH0 KECCAK256 PUSH0 SWAP1 SLOAD SWAP1 PUSH2 0x100 EXP SWAP1 DIV PUSH1 0xFF AND PUSH2 0xFBA JUMPI PUSH1 0x40 MLOAD PUSH32 0x8C379A000000000000000000000000000000000000000000000000000000000 DUP2 MSTORE PUSH1 0x4 ADD PUSH2 0xFB1 SWAP1 PUSH2 0x17D8 JUMP JUMPDEST PUSH1 0x40 MLOAD DUP1 SWAP2 SUB SWAP1 REVERT JUMPDEST PUSH0 PUSH20 0xFFFFFFFFFFFFFFFFFFFFFFFFFFFFFFFFFFFFFFFF AND DUP5 PUSH20 0xFFFFFFFFFFFFFFFFFFFFFFFFFFFFFFFFFFFFFFFF AND SUB PUSH2 0x1028 JUMPI PUSH1 0x40 MLOAD PUSH32 0x8C379A000000000000000000000000000000000000000000000000000000000 DUP2 MSTORE PUSH1 0x4 ADD PUSH2 0x101F SWAP1 PUSH2 0x1C34 JUMP JUMPDEST PUSH1 0x40 MLOAD DUP1 SWAP2 SUB SWAP1 REVERT JUMPDEST PUSH0 PUSH1 0x40 MLOAD DUP1 PUSH1 0x80 ADD PUSH1 0x40 MSTORE DUP1 DUP7 PUSH20 0xFFFFFFFFFFFFFFFFFFFFFFFFFFFFFFFFFFFFFFFF AND DUP2 MSTORE PUSH1 0x20 ADD DUP6 DUP2 MSTORE PUSH1 0x20 ADD DUP5 DUP5 DUP1 DUP1 PUSH1 0x1F ADD PUSH1 0x20 DUP1 SWAP2 DIV MUL PUSH1 0x20 ADD PUSH1 0x40 MLOAD SWAP1 DUP2 ADD PUSH1 0x40 MSTORE DUP1 SWAP4 SWAP3 SWAP2 SWAP1 DUP2 DUP2 MSTORE PUSH1 0x20 ADD DUP4 DUP4 DUP1 DUP3 DUP5 CALLDATACOPY PUSH0 DUP2 DUP5 ADD MSTORE PUSH1 0x1F NOT PUSH1 0x1F DUP3 ADD AND SWAP1 POP DUP1 DUP4 ADD SWAP3 POP POP POP POP POP POP POP DUP2 MSTORE PUSH1 0x20 ADD PUSH0 ISZERO ISZERO DUP2 MSTORE POP SWAP1 POP PUSH0 PUSH1 0x3 DUP1 SLOAD SWAP1 POP SWAP1 POP PUSH1 0x3 DUP3 SWAP1 DUP1 PUSH1 0x1 DUP2 SLOAD ADD DUP1 DUP3 SSTORE DUP1 SWAP2 POP POP PUSH1 0x1 SWAP1 SUB SWAP1 PUSH0 MSTORE PUSH1 0x20 PUSH0 KECCAK256 SWAP1 PUSH1 0x4 MUL ADD PUSH0 SWAP1 SWAP2 SWAP1 SWAP2 SWAP1 SWAP2 POP PUSH0 DUP3 ADD MLOAD DUP2 PUSH0 ADD PUSH0 PUSH2 0x100 EXP DUP2 SLOAD DUP2 PUSH20 0xFFFFFFFFFFFFFFFFFFFFFFFFFFFFFFFFFFFFFFFF MUL NOT AND SWAP1 DUP4 PUSH20 0xFFFFFFFFFFFFFFFFFFFFFFFFFFFFFFFFFFFFFFFF AND MUL OR SWAP1 SSTORE POP PUSH1 0x20 DUP3 ADD MLOAD DUP2 PUSH1 0x1 ADD SSTORE PUSH1 0x40 DUP3 ADD MLOAD DUP2 PUSH1 0x2 ADD SWAP1 DUP2 PUSH2 0x113C SWAP2 SWAP1 PUSH2 0x1E1C JUMP JUMPDEST POP PUSH1 0x60 DUP3 ADD MLOAD DUP2 PUSH1 0x3 ADD PUSH0 PUSH2 0x100 EXP DUP2 SLOAD DUP2 PUSH1 0xFF MUL NOT AND SWAP1 DUP4 ISZERO ISZERO MUL OR SWAP1 SSTORE POP POP POP DUP6 PUSH20 0xFFFFFFFFFFFFFFFFFFFFFFFFFFFFFFFFFFFFFFFF AND DUP2 PUSH32 0x3F6DB45DA5513BD4FE9F8A31E60EA668BDD4BCA57E30A85A9A26F90C9FBCB56C DUP8 DUP8 DUP8 PUSH1 0x40 MLOAD PUSH2 0x11A9 SWAP4 SWAP3 SWAP2 SWAP1 PUSH2 0x1F25 JUMP JUMPDEST PUSH1 0x40 MLOAD DUP1 SWAP2 SUB SWAP1 LOG3 POP POP POP POP POP POP JUMP JUMPDEST PUSH1 0x3 DUP1 SLOAD SWAP1 POP DUP2 LT PUSH2 0x1200 JUMPI PUSH1 0x40 MLOAD PUSH32 0x8C379A000000000000000000000000000000000000000000000000000000000 DUP2 MSTORE PUSH1 0x4 ADD PUSH2 0x11F7 SWAP1 PUSH2 0x1962 JUMP JUMPDEST PUSH1 0x40 MLOAD DUP1 SWAP2 SUB SWAP1 REVERT JUMPDEST PUSH1 0x3 DUP2 DUP2 SLOAD DUP2 LT PUSH2 0x1214 JUMPI PUSH2 0x1213 PUSH2 0x185E JUMP JUMPDEST JUMPDEST SWAP1 PUSH0 MSTORE PUSH1 0x20 PUSH0 KECCAK256 SWAP1 PUSH1 0x4 MUL ADD PUSH1 0x3 ADD PUSH0 SWAP1 SLOAD SWAP1 PUSH2 0x100 EXP SWAP1 DIV PUSH1 0xFF AND ISZERO PUSH2 0x1270 JUMPI PUSH1 0x40 MLOAD PUSH32 0x8C379A000000000000000000000000000000000000000000000000000000000 DUP2 MSTORE PUSH1 0x4 ADD PUSH2 0x1267 SWAP1 PUSH2 0x19CA JUMP JUMPDEST PUSH1 0x40 MLOAD DUP1 SWAP2 SUB SWAP1 REVERT JUMPDEST PUSH1 0x2 SLOAD PUSH2 0x127C DUP3 PUSH2 0xE60 JUMP JUMPDEST LT ISZERO PUSH2 0x12BD JUMPI PUSH1 0x40 MLOAD PUSH32 0x8C379A000000000000000000000000000000000000000000000000000000000 DUP2 MSTORE PUSH1 0x4 ADD PUSH2 0x12B4 SWAP1 PUSH2 0x1F9F JUMP JUMPDEST PUSH1 0x40 MLOAD DUP1 SWAP2 SUB SWAP1 REVERT JUMPDEST PUSH1 0x1 PUSH1 0x3 DUP3 DUP2 SLOAD DUP2 LT PUSH2 0x12D3 JUMPI PUSH2 0x12D2 PUSH2 0x185E JUMP JUMPDEST JUMPDEST SWAP1 PUSH0 MSTORE PUSH1 0x20 PUSH0 KECCAK256 SWAP1 PUSH1 0x4 MUL ADD PUSH1 0x3 ADD PUSH0 PUSH2 0x100 EXP DUP2 SLOAD DUP2 PUSH1 0xFF MUL NOT AND SWAP1 DUP4 ISZERO ISZERO MUL OR SWAP1 SSTORE POP PUSH0 PUSH1 0x3 DUP3 DUP2 SLOAD DUP2 LT PUSH2 0x130D JUMPI PUSH2 0x130C PUSH2 0x185E JUMP JUMPDEST JUMPDEST SWAP1 PUSH0 MSTORE PUSH1 0x20 PUSH0 KECCAK256 SWAP1 PUSH1 0x4 MUL ADD PUSH0 ADD PUSH0 SWAP1 SLOAD SWAP1 PUSH2 0x100 EXP SWAP1 DIV PUSH20 0xFFFFFFFFFFFFFFFFFFFFFFFFFFFFFFFFFFFFFFFF AND PUSH20 0xFFFFFFFFFFFFFFFFFFFFFFFFFFFFFFFFFFFFFFFF AND PUSH1 0x3 DUP4 DUP2 SLOAD DUP2 LT PUSH2 0x1365 JUMPI PUSH2 0x1364 PUSH2 0x185E JUMP JUMPDEST JUMPDEST SWAP1 PUSH0 MSTORE PUSH1 0x20 PUSH0 KECCAK256 SWAP1 PUSH1 0x4 MUL ADD PUSH1 0x1 ADD SLOAD PUSH1 0x3 DUP5 DUP2 SLOAD DUP2 LT PUSH2 0x1389 JUMPI PUSH2 0x1388 PUSH2 0x185E JUMP JUMPDEST JUMPDEST SWAP1 PUSH0 MSTORE PUSH1 0x20 PUSH0 KECCAK256 SWAP1 PUSH1 0x4 MUL ADD PUSH1 0x2 ADD PUSH1 0x40 MLOAD PUSH2 0x13A5 SWAP2 SWAP1 PUSH2 0x2047 JUMP JUMPDEST PUSH0 PUSH1 0x40 MLOAD DUP1 DUP4 SUB DUP2 DUP6 DUP8 GAS CALL SWAP3 POP POP POP RETURNDATASIZE DUP1 PUSH0 DUP2 EQ PUSH2 0x13DF JUMPI PUSH1 0x40 MLOAD SWAP2 POP PUSH1 0x1F NOT PUSH1 0x3F RETURNDATASIZE ADD AND DUP3 ADD PUSH1 0x40 MSTORE RETURNDATASIZE DUP3 MSTORE RETURNDATASIZE PUSH0 PUSH1 0x20 DUP5 ADD RETURNDATACOPY PUSH2 0x13E4 JUMP JUMPDEST PUSH1 0x60 SWAP2 POP JUMPDEST POP POP SWAP1 POP DUP1 PUSH2 0x1428 JUMPI PUSH1 0x40 MLOAD PUSH32 0x8C379A000000000000000000000000000000000000000000000000000000000 DUP2 MSTORE PUSH1 0x4 ADD PUSH2 0x141F SWAP1 PUSH2 0x20A7 JUMP JUMPDEST PUSH1 0x40 MLOAD DUP1 SWAP2 SUB SWAP1 REVERT JUMPDEST POP POP JUMP JUMPDEST PUSH0 DUP1 REVERT JUMPDEST PUSH0 DUP1 REVERT JUMPDEST PUSH0 DUP2 SWAP1 POP SWAP2 SWAP1 POP JUMP JUMPDEST PUSH2 0x1446 DUP2 PUSH2 0x1434 JUMP JUMPDEST DUP2 EQ PUSH2 0x1450 JUMPI PUSH0 DUP1 REVERT JUMPDEST POP JUMP JUMPDEST PUSH0 DUP2 CALLDATALOAD SWAP1 POP PUSH2 0x1461 DUP2 PUSH2 0x143D JUMP JUMPDEST SWAP3 SWAP2 POP POP JUMP JUMPDEST PUSH0 PUSH1 0x20 DUP3 DUP5 SUB SLT ISZERO PUSH2 0x147C JUMPI PUSH2 0x147B PUSH2 0x142C JUMP JUMPDEST JUMPDEST PUSH0 PUSH2 0x1489 DUP5 DUP3 DUP6 ADD PUSH2 0x1453 JUMP JUMPDEST SWAP2 POP POP SWAP3 SWAP2 POP POP JUMP JUMPDEST PUSH0 PUSH20 0xFFFFFFFFFFFFFFFFFFFFFFFFFFFFFFFFFFFFFFFF DUP3 AND SWAP1 POP SWAP2 SWAP1 POP JUMP JUMPDEST PUSH0 PUSH2 0x14BB DUP3 PUSH2 0x1492 JUMP JUMPDEST SWAP1 POP SWAP2 SWAP1 POP JUMP JUMPDEST PUSH2 0x14CB DUP2 PUSH2 0x14B1 JUMP JUMPDEST DUP3 MSTORE POP POP JUMP JUMPDEST PUSH0 PUSH1 0x20 DUP3 ADD SWAP1 POP PUSH2 0x14E4 PUSH0 DUP4 ADD DUP5 PUSH2 0x14C2 JUMP JUMPDEST SWAP3 SWAP2 POP POP JUMP JUMPDEST PUSH2 0x14F3 DUP2 PUSH2 0x14B1 JUMP JUMPDEST DUP2 EQ PUSH2 0x14FD JUMPI PUSH0 DUP1 REVERT JUMPDEST POP JUMP JUMPDEST PUSH0 DUP2 CALLDATALOAD SWAP1 POP PUSH2 0x150E DUP2 PUSH2 0x14EA JUMP JUMPDEST SWAP3 SWAP2 POP POP JUMP JUMPDEST PUSH0 PUSH1 0x20 DUP3 DUP5 SUB SLT ISZERO PUSH2 0x1529 JUMPI PUSH2 0x1528 PUSH2 0x142C JUMP JUMPDEST JUMPDEST PUSH0 PUSH2 0x1536 DUP5 DUP3 DUP6 ADD PUSH2 0x1500 JUMP JUMPDEST SWAP2 POP POP SWAP3 SWAP2 POP POP JUMP JUMPDEST PUSH0 DUP2 ISZERO ISZERO SWAP1 POP SWAP2 SWAP1 POP JUMP JUMPDEST PUSH2 0x1553 DUP2 PUSH2 0x153F JUMP JUMPDEST DUP3 MSTORE POP POP JUMP JUMPDEST PUSH0 PUSH1 0x20 DUP3 ADD SWAP1 POP PUSH2 0x156C PUSH0 DUP4 ADD DUP5 PUSH2 0x154A JUMP JUMPDEST SWAP3 SWAP2 POP POP JUMP JUMPDEST PUSH2 0x157B DUP2 PUSH2 0x1434 JUMP JUMPDEST DUP3 MSTORE POP POP JUMP JUMPDEST PUSH0 PUSH1 0x20 DUP3 ADD SWAP1 POP PUSH2 0x1594 PUSH0 DUP4 ADD DUP5 PUSH2 0x1572 JUMP JUMPDEST SWAP3 SWAP2 POP POP JUMP JUMPDEST PUSH0 DUP2 MLOAD SWAP1 POP SWAP2 SWAP1 POP JUMP JUMPDEST PUSH0 DUP3 DUP3 MSTORE PUSH1 0x20 DUP3 ADD SWAP1 POP SWAP3 SWAP2 POP POP JUMP JUMPDEST PUSH0 JUMPDEST DUP4 DUP2 LT ISZERO PUSH2 0x15D1 JUMPI DUP1 DUP3 ADD MLOAD DUP2 DUP5 ADD MSTORE PUSH1 0x20 DUP2 ADD SWAP1 POP PUSH2 0x15B6 JUMP JUMPDEST PUSH0 DUP5 DUP5 ADD MSTORE POP POP POP POP JUMP JUMPDEST PUSH0 PUSH1 0x1F NOT PUSH1 0x1F DUP4 ADD AND SWAP1 POP SWAP2 SWAP1 POP JUMP JUMPDEST PUSH0 PUSH2 0x15F6 DUP3 PUSH2 0x159A JUMP JUMPDEST PUSH2 0x1600 DUP2 DUP6 PUSH2 0x15A4 JUMP JUMPDEST SWAP4 POP PUSH2 0x1610 DUP2 DUP6 PUSH1 0x20 DUP7 ADD PUSH2 0x15B4 JUMP JUMPDEST PUSH2 0x1619 DUP2 PUSH2 0x15DC JUMP JUMPDEST DUP5 ADD SWAP2 POP POP SWAP3 SWAP2 POP POP JUMP JUMPDEST PUSH0 PUSH1 0x80 DUP3 ADD SWAP1 POP PUSH2 0x1637 PUSH0 DUP4 ADD DUP8 PUSH2 0x14C2 JUMP JUMPDEST PUSH2 0x1644 PUSH1 0x20 DUP4 ADD DUP7 PUSH2 0x1572 JUMP JUMPDEST DUP2 DUP2 SUB PUSH1 0x40 DUP4 ADD MSTORE PUSH2 0x1656 DUP2 DUP6 PUSH2 0x15EC JUMP JUMPDEST SWAP1 POP PUSH2 0x1665 PUSH1 0x60 DUP4 ADD DUP5 PUSH2 0x154A JUMP JUMPDEST SWAP6 SWAP5 POP POP POP POP POP JUMP JUMPDEST PUSH0 DUP1 PUSH1 0x40 DUP4 DUP6 SUB SLT ISZERO PUSH2 0x1684 JUMPI PUSH2 0x1683 PUSH2 0x142C JUMP JUMPDEST JUMPDEST PUSH0 PUSH2 0x1691 DUP6 DUP3 DUP7 ADD PUSH2 0x1453 JUMP JUMPDEST SWAP3 POP POP PUSH1 0x20 PUSH2 0x16A2 DUP6 DUP3 DUP7 ADD PUSH2 0x1500 JUMP JUMPDEST SWAP2 POP POP SWAP3 POP SWAP3 SWAP1 POP JUMP JUMPDEST PUSH0 DUP1 REVERT JUMPDEST PUSH0 DUP1 REVERT JUMPDEST PUSH0 DUP1 REVERT JUMPDEST PUSH0 DUP1 DUP4 PUSH1 0x1F DUP5 ADD SLT PUSH2 0x16CD JUMPI PUSH2 0x16CC PUSH2 0x16AC JUMP JUMPDEST JUMPDEST DUP3 CALLDATALOAD SWAP1 POP PUSH8 0xFFFFFFFFFFFFFFFF DUP2 GT ISZERO PUSH2 0x16EA JUMPI PUSH2 0x16E9 PUSH2 0x16B0 JUMP JUMPDEST JUMPDEST PUSH1 0x20 DUP4 ADD SWAP2 POP DUP4 PUSH1 0x1 DUP3 MUL DUP4 ADD GT ISZERO PUSH2 0x1706 JUMPI PUSH2 0x1705 PUSH2 0x16B4 JUMP JUMPDEST JUMPDEST SWAP3 POP SWAP3 SWAP1 POP JUMP JUMPDEST PUSH0 DUP1 PUSH0 DUP1 PUSH1 0x60 DUP6 DUP8 SUB SLT ISZERO PUSH2 0x1725 JUMPI PUSH2 0x1724 PUSH2 0x142C JUMP JUMPDEST JUMPDEST PUSH0 PUSH2 0x1732 DUP8 DUP3 DUP9 ADD PUSH2 0x1500 JUMP JUMPDEST SWAP5 POP POP PUSH1 0x20 PUSH2 0x1743 DUP8 DUP3 DUP9 ADD PUSH2 0x1453 JUMP JUMPDEST SWAP4 POP POP PUSH1 0x40 DUP6 ADD CALLDATALOAD PUSH8 0xFFFFFFFFFFFFFFFF DUP2 GT ISZERO PUSH2 0x1764 JUMPI PUSH2 0x1763 PUSH2 0x1430 JUMP JUMPDEST JUMPDEST PUSH2 0x1770 DUP8 DUP3 DUP9 ADD PUSH2 0x16B8 JUMP JUMPDEST SWAP3 POP SWAP3 POP POP SWAP3 SWAP6 SWAP2 SWAP5 POP SWAP3 POP JUMP JUMPDEST PUSH0 DUP3 DUP3 MSTORE PUSH1 0x20 DUP3 ADD SWAP1 POP SWAP3 SWAP2 POP POP JUMP JUMPDEST PUSH32 0x4E6F7420616E206F776E65720000000000000000000000000000000000000000 PUSH0 DUP3 ADD MSTORE POP JUMP JUMPDEST PUSH0 PUSH2 0x17C2 PUSH1 0xC DUP4 PUSH2 0x177E JUMP JUMPDEST SWAP2 POP PUSH2 0x17CD DUP3 PUSH2 0x178E JUMP JUMPDEST PUSH1 0x20 DUP3 ADD SWAP1 POP SWAP2 SWAP1 POP JUMP JUMPDEST PUSH0 PUSH1 0x20 DUP3 ADD SWAP1 POP DUP2 DUP2 SUB PUSH0 DUP4 ADD MSTORE PUSH2 0x17EF DUP2 PUSH2 0x17B6 JUMP JUMPDEST SWAP1 POP SWAP2 SWAP1 POP JUMP JUMPDEST PUSH32 0x4F776E657220646F6573206E6F74206578697374000000000000000000000000 PUSH0 DUP3 ADD MSTORE POP JUMP JUMPDEST PUSH0 PUSH2 0x182A PUSH1 0x14 DUP4 PUSH2 0x177E JUMP JUMPDEST SWAP2 POP PUSH2 0x1835 DUP3 PUSH2 0x17F6 JUMP JUMPDEST PUSH1 0x20 DUP3 ADD SWAP1 POP SWAP2 SWAP1 POP JUMP JUMPDEST PUSH0 PUSH1 0x20 DUP3 ADD SWAP1 POP DUP2 DUP2 SUB PUSH0 DUP4 ADD MSTORE PUSH2 0x1857 DUP2 PUSH2 0x181E JUMP JUMPDEST SWAP1 POP SWAP2 SWAP1 POP JUMP JUMPDEST PUSH32 0x4E487B7100000000000000000000000000000000000000000000000000000000 PUSH0 MSTORE PUSH1 0x32 PUSH1 0x4 MSTORE PUSH1 0x24 PUSH0 REVERT JUMPDEST PUSH32 0x4E487B7100000000000000000000000000000000000000000000000000000000 PUSH0 MSTORE PUSH1 0x11 PUSH1 0x4 MSTORE PUSH1 0x24 PUSH0 REVERT JUMPDEST PUSH0 PUSH2 0x18C2 DUP3 PUSH2 0x1434 JUMP JUMPDEST SWAP2 POP PUSH2 0x18CD DUP4 PUSH2 0x1434 JUMP JUMPDEST SWAP3 POP DUP3 DUP3 SUB SWAP1 POP DUP2 DUP2 GT ISZERO PUSH2 0x18E5 JUMPI PUSH2 0x18E4 PUSH2 0x188B JUMP JUMPDEST JUMPDEST SWAP3 SWAP2 POP POP JUMP JUMPDEST PUSH32 0x4E487B7100000000000000000000000000000000000000000000000000000000 PUSH0 MSTORE PUSH1 0x31 PUSH1 0x4 MSTORE PUSH1 0x24 PUSH0 REVERT JUMPDEST PUSH32 0x5472616E73616374696F6E20646F6573206E6F74206578697374000000000000 PUSH0 DUP3 ADD MSTORE POP JUMP JUMPDEST PUSH0 PUSH2 0x194C PUSH1 0x1A DUP4 PUSH2 0x177E JUMP JUMPDEST SWAP2 POP PUSH2 0x1957 DUP3 PUSH2 0x1918 JUMP JUMPDEST PUSH1 0x20 DUP3 ADD SWAP1 POP SWAP2 SWAP1 POP JUMP JUMPDEST PUSH0 PUSH1 0x20 DUP3 ADD SWAP1 POP DUP2 DUP2 SUB PUSH0 DUP4 ADD MSTORE PUSH2 0x1979 DUP2 PUSH2 0x1940 JUMP JUMPDEST SWAP1 POP SWAP2 SWAP1 POP JUMP JUMPDEST PUSH32 0x5472616E73616374696F6E20616C726561647920657865637574656400000000 PUSH0 DUP3 ADD MSTORE POP JUMP JUMPDEST PUSH0 PUSH2 0x19B4 PUSH1 0x1C DUP4 PUSH2 0x177E JUMP JUMPDEST SWAP2 POP PUSH2 0x19BF DUP3 PUSH2 0x1980 JUMP JUMPDEST PUSH1 0x20 DUP3 ADD SWAP1 POP SWAP2 SWAP1 POP JUMP JUMPDEST PUSH0 PUSH1 0x20 DUP3 ADD SWAP1 POP DUP2 DUP2 SUB PUSH0 DUP4 ADD MSTORE PUSH2 0x19E1 DUP2 PUSH2 0x19A8 JUMP JUMPDEST SWAP1 POP SWAP2 SWAP1 POP JUMP JUMPDEST PUSH32 0x5472616E73616374696F6E20616C726561647920617070726F76656420627920 PUSH0 DUP3 ADD MSTORE PUSH32 0x74686973206F776E657200000000000000000000000000000000000000000000 PUSH1 0x20 DUP3 ADD MSTORE POP JUMP JUMPDEST PUSH0 PUSH2 0x1A42 PUSH1 0x2A DUP4 PUSH2 0x177E JUMP JUMPDEST SWAP2 POP PUSH2 0x1A4D DUP3 PUSH2 0x19E8 JUMP JUMPDEST PUSH1 0x40 DUP3 ADD SWAP1 POP SWAP2 SWAP1 POP JUMP JUMPDEST PUSH0 PUSH1 0x20 DUP3 ADD SWAP1 POP DUP2 DUP2 SUB PUSH0 DUP4 ADD MSTORE PUSH2 0x1A6F DUP2 PUSH2 0x1A36 JUMP JUMPDEST SWAP1 POP SWAP2 SWAP1 POP JUMP JUMPDEST PUSH32 0x496E76616C6964206F776E657220616464726573730000000000000000000000 PUSH0 DUP3 ADD MSTORE POP JUMP JUMPDEST PUSH0 PUSH2 0x1AAA PUSH1 0x15 DUP4 PUSH2 0x177E JUMP JUMPDEST SWAP2 POP PUSH2 0x1AB5 DUP3 PUSH2 0x1A76 JUMP JUMPDEST PUSH1 0x20 DUP3 ADD SWAP1 POP SWAP2 SWAP1 POP JUMP JUMPDEST PUSH0 PUSH1 0x20 DUP3 ADD SWAP1 POP DUP2 DUP2 SUB PUSH0 DUP4 ADD MSTORE PUSH2 0x1AD7 DUP2 PUSH2 0x1A9E JUMP JUMPDEST SWAP1 POP SWAP2 SWAP1 POP JUMP JUMPDEST PUSH32 0x4F776E657220616C726561647920657869737473000000000000000000000000 PUSH0 DUP3 ADD MSTORE POP JUMP JUMPDEST PUSH0 PUSH2 0x1B12 PUSH1 0x14 DUP4 PUSH2 0x177E JUMP JUMPDEST SWAP2 POP PUSH2 0x1B1D DUP3 PUSH2 0x1ADE JUMP JUMPDEST PUSH1 0x20 DUP3 ADD SWAP1 POP SWAP2 SWAP1 POP JUMP JUMPDEST PUSH0 PUSH1 0x20 DUP3 ADD SWAP1 POP DUP2 DUP2 SUB PUSH0 DUP4 ADD MSTORE PUSH2 0x1B3F DUP2 PUSH2 0x1B06 JUMP JUMPDEST SWAP1 POP SWAP2 SWAP1 POP JUMP JUMPDEST PUSH32 0x4E487B7100000000000000000000000000000000000000000000000000000000 PUSH0 MSTORE PUSH1 0x22 PUSH1 0x4 MSTORE PUSH1 0x24 PUSH0 REVERT JUMPDEST PUSH0 PUSH1 0x2 DUP3 DIV SWAP1 POP PUSH1 0x1 DUP3 AND DUP1 PUSH2 0x1B8A JUMPI PUSH1 0x7F DUP3 AND SWAP2 POP JUMPDEST PUSH1 0x20 DUP3 LT DUP2 SUB PUSH2 0x1B9D JUMPI PUSH2 0x1B9C PUSH2 0x1B46 JUMP JUMPDEST JUMPDEST POP SWAP2 SWAP1 POP JUMP JUMPDEST PUSH0 PUSH2 0x1BAD DUP3 PUSH2 0x1434 JUMP JUMPDEST SWAP2 POP PUSH32 0xFFFFFFFFFFFFFFFFFFFFFFFFFFFFFFFFFFFFFFFFFFFFFFFFFFFFFFFFFFFFFFFF DUP3 SUB PUSH2 0x1BDF JUMPI PUSH2 0x1BDE PUSH2 0x188B JUMP JUMPDEST JUMPDEST PUSH1 0x1 DUP3 ADD SWAP1 POP SWAP2 SWAP1 POP JUMP JUMPDEST PUSH32 0x496E76616C69642064657374696E6174696F6E20616464726573730000000000 PUSH0 DUP3 ADD MSTORE POP JUMP JUMPDEST PUSH0 PUSH2 0x1C1E PUSH1 0x1B DUP4 PUSH2 0x177E JUMP JUMPDEST SWAP2 POP PUSH2 0x1C29 DUP3 PUSH2 0x1BEA JUMP JUMPDEST PUSH1 0x20 DUP3 ADD SWAP1 POP SWAP2 SWAP1 POP JUMP JUMPDEST PUSH0 PUSH1 0x20 DUP3 ADD SWAP1 POP DUP2 DUP2 SUB PUSH0 DUP4 ADD MSTORE PUSH2 0x1C4B DUP2 PUSH2 0x1C12 JUMP JUMPDEST SWAP1 POP SWAP2 SWAP1 POP JUMP JUMPDEST PUSH32 0x4E487B7100000000000000000000000000000000000000000000000000000000 PUSH0 MSTORE PUSH1 0x41 PUSH1 0x4 MSTORE PUSH1 0x24 PUSH0 REVERT JUMPDEST PUSH0 DUP2 SWAP1 POP DUP2 PUSH0 MSTORE PUSH1 0x20 PUSH0 KECCAK256 SWAP1 POP SWAP2 SWAP1 POP JUMP JUMPDEST PUSH0 PUSH1 0x20 PUSH1 0x1F DUP4 ADD DIV SWAP1 POP SWAP2 SWAP1 POP JUMP JUMPDEST PUSH0 DUP3 DUP3 SHL SWAP1 POP SWAP3 SWAP2 POP POP JUMP JUMPDEST PUSH0 PUSH1 0x8 DUP4 MUL PUSH2 0x1CDB PUSH32 0xFFFFFFFFFFFFFFFFFFFFFFFFFFFFFFFFFFFFFFFFFFFFFFFFFFFFFFFFFFFFFFFF DUP3 PUSH2 0x1CA0 JUMP JUMPDEST PUSH2 0x1CE5 DUP7 DUP4 PUSH2 0x1CA0 JUMP JUMPDEST SWAP6 POP DUP1 NOT DUP5 AND SWAP4 POP DUP1 DUP7 AND DUP5 OR SWAP3 POP POP POP SWAP4 SWAP3 POP POP POP JUMP JUMPDEST PUSH0 DUP2 SWAP1 POP SWAP2 SWAP1 POP JUMP JUMPDEST PUSH0 PUSH2 0x1D20 PUSH2 0x1D1B PUSH2 0x1D16 DUP5 PUSH2 0x1434 JUMP JUMPDEST PUSH2 0x1CFD JUMP JUMPDEST PUSH2 0x1434 JUMP JUMPDEST SWAP1 POP SWAP2 SWAP1 POP JUMP JUMPDEST PUSH0 DUP2 SWAP1 POP SWAP2 SWAP1 POP JUMP JUMPDEST PUSH2 0x1D39 DUP4 PUSH2 0x1D06 JUMP JUMPDEST PUSH2 0x1D4D PUSH2 0x1D45 DUP3 PUSH2 0x1D27 JUMP JUMPDEST DUP5 DUP5 SLOAD PUSH2 0x1CAC JUMP JUMPDEST DUP3 SSTORE POP POP POP POP JUMP JUMPDEST PUSH0 SWAP1 JUMP JUMPDEST PUSH2 0x1D61 PUSH2 0x1D55 JUMP JUMPDEST PUSH2 0x1D6C DUP2 DUP5 DUP5 PUSH2 0x1D30 JUMP JUMPDEST POP POP POP JUMP JUMPDEST JUMPDEST DUP2 DUP2 LT ISZERO PUSH2 0x1D8F JUMPI PUSH2 0x1D84 PUSH0 DUP3 PUSH2 0x1D59 JUMP JUMPDEST PUSH1 0x1 DUP2 ADD SWAP1 POP PUSH2 0x1D72 JUMP JUMPDEST POP POP JUMP JUMPDEST PUSH1 0x1F DUP3 GT ISZERO PUSH2 0x1DD4 JUMPI PUSH2 0x1DA5 DUP2 PUSH2 0x1C7F JUMP JUMPDEST PUSH2 0x1DAE DUP5 PUSH2 0x1C91 JUMP JUMPDEST DUP2 ADD PUSH1 0x20 DUP6 LT ISZERO PUSH2 0x1DBD JUMPI DUP2 SWAP1 POP JUMPDEST PUSH2 0x1DD1 PUSH2 0x1DC9 DUP6 PUSH2 0x1C91 JUMP JUMPDEST DUP4 ADD DUP3 PUSH2 0x1D71 JUMP JUMPDEST POP POP JUMPDEST POP POP POP JUMP JUMPDEST PUSH0 DUP3 DUP3 SHR SWAP1 POP SWAP3 SWAP2 POP POP JUMP JUMPDEST PUSH0 PUSH2 0x1DF4 PUSH0 NOT DUP5 PUSH1 0x8 MUL PUSH2 0x1DD9 JUMP JUMPDEST NOT DUP1 DUP4 AND SWAP2 POP POP SWAP3 SWAP2 POP POP JUMP JUMPDEST PUSH0 PUSH2 0x1E0C DUP4 DUP4 PUSH2 0x1DE5 JUMP JUMPDEST SWAP2 POP DUP3 PUSH1 0x2 MUL DUP3 OR SWAP1 POP SWAP3 SWAP2 POP POP JUMP JUMPDEST PUSH2 0x1E25 DUP3 PUSH2 0x159A JUMP JUMPDEST PUSH8 0xFFFFFFFFFFFFFFFF DUP2 GT ISZERO PUSH2 0x1E3E JUMPI PUSH2 0x1E3D PUSH2 0x1C52 JUMP JUMPDEST JUMPDEST PUSH2 0x1E48 DUP3 SLOAD PUSH2 0x1B73 JUMP JUMPDEST PUSH2 0x1E53 DUP3 DUP3 DUP6 PUSH2 0x1D93 JUMP JUMPDEST PUSH0 PUSH1 0x20 SWAP1 POP PUSH1 0x1F DUP4 GT PUSH1 0x1 DUP2 EQ PUSH2 0x1E84 JUMPI PUSH0 DUP5 ISZERO PUSH2 0x1E72 JUMPI DUP3 DUP8 ADD MLOAD SWAP1 POP JUMPDEST PUSH2 0x1E7C DUP6 DUP3 PUSH2 0x1E01 JUMP JUMPDEST DUP7 SSTORE POP PUSH2 0x1EE3 JUMP JUMPDEST PUSH1 0x1F NOT DUP5 AND PUSH2 0x1E92 DUP7 PUSH2 0x1C7F JUMP JUMPDEST PUSH0 JUMPDEST DUP3 DUP2 LT ISZERO PUSH2 0x1EB9 JUMPI DUP5 DUP10 ADD MLOAD DUP3 SSTORE PUSH1 0x1 DUP3 ADD SWAP2 POP PUSH1 0x20 DUP6 ADD SWAP5 POP PUSH1 0x20 DUP2 ADD SWAP1 POP PUSH2 0x1E94 JUMP JUMPDEST DUP7 DUP4 LT ISZERO PUSH2 0x1ED6 JUMPI DUP5 DUP10 ADD MLOAD PUSH2 0x1ED2 PUSH1 0x1F DUP10 AND DUP3 PUSH2 0x1DE5 JUMP JUMPDEST DUP4 SSTORE POP JUMPDEST PUSH1 0x1 PUSH1 0x2 DUP9 MUL ADD DUP9 SSTORE POP POP POP JUMPDEST POP POP POP POP POP POP JUMP JUMPDEST DUP3 DUP2 DUP4 CALLDATACOPY PUSH0 DUP4 DUP4 ADD MSTORE POP POP POP JUMP JUMPDEST PUSH0 PUSH2 0x1F04 DUP4 DUP6 PUSH2 0x15A4 JUMP JUMPDEST SWAP4 POP PUSH2 0x1F11 DUP4 DUP6 DUP5 PUSH2 0x1EEB JUMP JUMPDEST PUSH2 0x1F1A DUP4 PUSH2 0x15DC JUMP JUMPDEST DUP5 ADD SWAP1 POP SWAP4 SWAP3 POP POP POP JUMP JUMPDEST PUSH0 PUSH1 0x40 DUP3 ADD SWAP1 POP PUSH2 0x1F38 PUSH0 DUP4 ADD DUP7 PUSH2 0x1572 JUMP JUMPDEST DUP2 DUP2 SUB PUSH1 0x20 DUP4 ADD MSTORE PUSH2 0x1F4B DUP2 DUP5 DUP7 PUSH2 0x1EF9 JUMP JUMPDEST SWAP1 POP SWAP5 SWAP4 POP POP POP POP JUMP JUMPDEST PUSH32 0x4E6F7420656E6F75676820617070726F76616C73000000000000000000000000 PUSH0 DUP3 ADD MSTORE POP JUMP JUMPDEST PUSH0 PUSH2 0x1F89 PUSH1 0x14 DUP4 PUSH2 0x177E JUMP JUMPDEST SWAP2 POP PUSH2 0x1F94 DUP3 PUSH2 0x1F55 JUMP JUMPDEST PUSH1 0x20 DUP3 ADD SWAP1 POP SWAP2 SWAP1 POP JUMP JUMPDEST PUSH0 PUSH1 0x20 DUP3 ADD SWAP1 POP DUP2 DUP2 SUB PUSH0 DUP4 ADD MSTORE PUSH2 0x1FB6 DUP2 PUSH2 0x1F7D JUMP JUMPDEST SWAP1 POP SWAP2 SWAP1 POP JUMP JUMPDEST PUSH0 DUP2 SWAP1 POP SWAP3 SWAP2 POP POP JUMP JUMPDEST PUSH0 DUP2 SLOAD PUSH2 0x1FD3 DUP2 PUSH2 0x1B73 JUMP JUMPDEST PUSH2 0x1FDD DUP2 DUP7 PUSH2 0x1FBD JUMP JUMPDEST SWAP5 POP PUSH1 0x1 DUP3 AND PUSH0 DUP2 EQ PUSH2 0x1FF7 JUMPI PUSH1 0x1 DUP2 EQ PUSH2 0x200C JUMPI PUSH2 0x203E JUMP JUMPDEST PUSH1 0xFF NOT DUP4 AND DUP7 MSTORE DUP2 ISZERO ISZERO DUP3 MUL DUP7 ADD SWAP4 POP PUSH2 0x203E JUMP JUMPDEST PUSH2 0x2015 DUP6 PUSH2 0x1C7F JUMP JUMPDEST PUSH0 JUMPDEST DUP4 DUP2 LT ISZERO PUSH2 0x2036 JUMPI DUP2 SLOAD DUP2 DUP10 ADD MSTORE PUSH1 0x1 DUP3 ADD SWAP2 POP PUSH1 0x20 DUP2 ADD SWAP1 POP PUSH2 0x2017 JUMP JUMPDEST DUP4 DUP9 ADD SWAP6 POP POP POP JUMPDEST POP POP POP SWAP3 SWAP2 POP POP JUMP JUMPDEST PUSH0 PUSH2 0x2052 DUP3 DUP5 PUSH2 0x1FC7 JUMP JUMPDEST SWAP2 POP DUP2 SWAP1 POP SWAP3 SWAP2 POP POP JUMP JUMPDEST PUSH32 0x5472616E73616374696F6E20657865637574696F6E206661696C656400000000 PUSH0 DUP3 ADD MSTORE POP JUMP JUMPDEST PUSH0 PUSH2 0x2091 PUSH1 0x1C DUP4 PUSH2 0x177E JUMP JUMPDEST SWAP2 POP PUSH2 0x209C DUP3 PUSH2 0x205D JUMP JUMPDEST PUSH1 0x20 DUP3 ADD SWAP1 POP SWAP2 SWAP1 POP JUMP JUMPDEST PUSH0 PUSH1 0x20 DUP3 ADD SWAP1 POP DUP2 DUP2 SUB PUSH0 DUP4 ADD MSTORE PUSH2 0x20BE DUP2 PUSH2 0x2085 JUMP JUMPDEST SWAP1 POP SWAP2 SWAP1 POP JUMP INVALID LOG2 PUSH5 0x6970667358 0x22 SLT KECCAK256 SHL NUMBER 0x4D SWAP8 PUSH30 0xFFD62BBEED0029E8571A37B52578DDD4B407DAE3FC5B6F0E75F2E564736F PUSH13 0x63430008170033000000000000 "
				},
				"gasEstimates": {
					"creation": {
						"codeDepositCost": "1688600",
						"executionCost": "infinite",
						"totalCost": "infinite"
					},
					"external": {
						"addOwner(address)": "79055",
						"approvals(uint256,address)": "3137",
						"approveTransaction(uint256)": "infinite",
						"cancelTransaction(uint256)": "36836",
						"getApprovalCount(uint256)": "infinite",
						"isOwner(address)": "2900",
						"owners(uint256)": "4944",
						"removeOwner(address)": "infinite",
						"requiredApprovals()": "2447",
						"submitTransaction(address,uint256,bytes)": "infinite",
						"transactions(uint256)": "infinite"
					},
					"internal": {
						"executeTransaction(uint256)": "infinite"
					}
				},
				"methodIdentifiers": {
					"addOwner(address)": "7065cb48",
					"approvals(uint256,address)": "ab2850da",
					"approveTransaction(uint256)": "242232d1",
					"cancelTransaction(uint256)": "3380c0d8",
					"getApprovalCount(uint256)": "ba7e7cab",
					"isOwner(address)": "2f54bf6e",
					"owners(uint256)": "025e7c27",
					"removeOwner(address)": "173825d9",
					"requiredApprovals()": "99c1aadc",
					"submitTransaction(address,uint256,bytes)": "c6427474",
					"transactions(uint256)": "9ace38c2"
				}
			},
			"storageLayout": {
				"storage": [
					{
						"astId": 4,
						"contract": "contracts/MultiSignatureWallet.sol:MultiSigWallet",
						"label": "owners",
						"offset": 0,
						"slot": "0",
						"type": "t_array(t_address)dyn_storage"
					},
					{
						"astId": 8,
						"contract": "contracts/MultiSignatureWallet.sol:MultiSigWallet",
						"label": "isOwner",
						"offset": 0,
						"slot": "1",
						"type": "t_mapping(t_address,t_bool)"
					},
					{
						"astId": 10,
						"contract": "contracts/MultiSignatureWallet.sol:MultiSigWallet",
						"label": "requiredApprovals",
						"offset": 0,
						"slot": "2",
						"type": "t_uint256"
					},
					{
						"astId": 23,
						"contract": "contracts/MultiSignatureWallet.sol:MultiSigWallet",
						"label": "transactions",
						"offset": 0,
						"slot": "3",
						"type": "t_array(t_struct(Transaction)19_storage)dyn_storage"
					},
					{
						"astId": 29,
						"contract": "contracts/MultiSignatureWallet.sol:MultiSigWallet",
						"label": "approvals",
						"offset": 0,
						"slot": "4",
						"type": "t_mapping(t_uint256,t_mapping(t_address,t_bool))"
					}
				],
				"types": {
					"t_address": {
						"encoding": "inplace",
						"label": "address",
						"numberOfBytes": "20"
					},
					"t_array(t_address)dyn_storage": {
						"base": "t_address",
						"encoding": "dynamic_array",
						"label": "address[]",
						"numberOfBytes": "32"
					},
					"t_array(t_struct(Transaction)19_storage)dyn_storage": {
						"base": "t_struct(Transaction)19_storage",
						"encoding": "dynamic_array",
						"label": "struct MultiSigWallet.Transaction[]",
						"numberOfBytes": "32"
					},
					"t_bool": {
						"encoding": "inplace",
						"label": "bool",
						"numberOfBytes": "1"
					},
					"t_bytes_storage": {
						"encoding": "bytes",
						"label": "bytes",
						"numberOfBytes": "32"
					},
					"t_mapping(t_address,t_bool)": {
						"encoding": "mapping",
						"key": "t_address",
						"label": "mapping(address => bool)",
						"numberOfBytes": "32",
						"value": "t_bool"
					},
					"t_mapping(t_uint256,t_mapping(t_address,t_bool))": {
						"encoding": "mapping",
						"key": "t_uint256",
						"label": "mapping(uint256 => mapping(address => bool))",
						"numberOfBytes": "32",
						"value": "t_mapping(t_address,t_bool)"
					},
					"t_struct(Transaction)19_storage": {
						"encoding": "inplace",
						"label": "struct MultiSigWallet.Transaction",
						"members": [
							{
								"astId": 12,
								"contract": "contracts/MultiSignatureWallet.sol:MultiSigWallet",
								"label": "to",
								"offset": 0,
								"slot": "0",
								"type": "t_address"
							},
							{
								"astId": 14,
								"contract": "contracts/MultiSignatureWallet.sol:MultiSigWallet",
								"label": "value",
								"offset": 0,
								"slot": "1",
								"type": "t_uint256"
							},
							{
								"astId": 16,
								"contract": "contracts/MultiSignatureWallet.sol:MultiSigWallet",
								"label": "data",
								"offset": 0,
								"slot": "2",
								"type": "t_bytes_storage"
							},
							{
								"astId": 18,
								"contract": "contracts/MultiSignatureWallet.sol:MultiSigWallet",
								"label": "executed",
								"offset": 0,
								"slot": "3",
								"type": "t_bool"
							}
						],
						"numberOfBytes": "128"
					},
					"t_uint256": {
						"encoding": "inplace",
						"label": "uint256",
						"numberOfBytes": "32"
					}
				}
			},
			"userdoc": {
				"kind": "user",
				"methods": {},
				"version": 1
			}
		}
	}
}